{
	"data": {
		"bytecode": {
			"linkReferences": {},
			"object": "608060405234801561001057600080fd5b50611681806100206000396000f3fe608060405234801561001057600080fd5b50600436106100925760003560e01c8063a22cb46511610066578063a22cb46514610115578063db90e83c14610128578063e985e9c514610149578063eaec5f811461015c578063f242432a1461016f57610092565b8062fdd58e1461009757806301ffc9a7146100c05780632eb2c2d6146100e05780634e1273f4146100f5575b600080fd5b6100aa6100a5366004610e95565b610182565b6040516100b791906115d9565b60405180910390f35b6100d36100ce366004610f7f565b6101ca565b6040516100b79190611150565b6100f36100ee366004610d52565b6101fe565b005b610108610103366004610ebe565b610286565b6040516100b79190611118565b6100f3610123366004610e5b565b61047e565b61013b610136366004610fb7565b6104ed565b6040516100b79291906115e2565b6100d3610157366004610d20565b6104fa565b6100aa61016a366004610fcf565b610528565b6100f361017d366004610df8565b61053b565b6000806000610190846104ed565b6001600160a01b03871660009081526020818152604080832085845290915290205491935091506101c19082610528565b95945050505050565b60006001600160e01b03198216636cdb3d1360e11b14156101ed575060016101f9565b6101f6826105b3565b90505b919050565b336001600160a01b038616148061021a575061021a85336104fa565b61023f5760405162461bcd60e51b81526004016102369061139f565b60405180910390fd5b6001600160a01b0384166102655760405162461bcd60e51b8152600401610236906111b8565b610271858585856105cc565b61027f858585855a86610870565b5050505050565b815181516060919081146102ac5760405162461bcd60e51b81526004016102369061115b565b6000806102cc856000815181106102bf57fe5b60200260200101516104ed565b915091506000806000886000815181106102e257fe5b60200260200101516001600160a01b03166001600160a01b031681526020019081526020016000206000848152602001908152602001600020549050600083905060608567ffffffffffffffff8111801561033c57600080fd5b50604051908082528060200260200182016040528015610366578160200160208202803683370190505b5090506103738385610528565b8160008151811061038057fe5b602090810291909101015260015b86811015610471576103a58982815181106102bf57fe5b909650945082861415806103f457508981815181106103c057fe5b60200260200101516001600160a01b03168a60018303815181106103e057fe5b60200260200101516001600160a01b031614155b15610448576000808b838151811061040857fe5b60200260200101516001600160a01b03166001600160a01b0316815260200190815260200160002060008781526020019081526020016000205493508592505b6104528486610528565b82828151811061045e57fe5b602090810291909101015260010161038e565b5098975050505050505050565b3360008181526001602090815260408083206001600160a01b038716808552925291829020805460ff191685151517905590519091907f17307eab39ab6107e8899845ad3d59bd9653f200f220920489ca2b5937696c31906104e1908590611150565b60405180910390a35050565b6008810491600790911690565b6001600160a01b03918216600090815260016020908152604080832093909416825291909152205460ff1690565b6020810282901c63ffffffff1692915050565b336001600160a01b0386161480610557575061055785336104fa565b6105735760405162461bcd60e51b815260040161023690611268565b6001600160a01b0384166105995760405162461bcd60e51b8152600401610236906114bf565b6105a58585858561094d565b61027f858585855a866109c4565b6001600160e01b031981166301ffc9a760e01b14919050565b8151815181146105ee5760405162461bcd60e51b8152600401610236906112c5565b836001600160a01b0316856001600160a01b0316141580156106105750600081115b156107ae57600080610628856000815181106102bf57fe5b6001600160a01b038916600090815260208181526040808320858452909152812054875193955091935091610673919084908890859061066457fe5b60200260200101516001610a97565b6001600160a01b038816600090815260208181526040808320878452909152812054875192935090916106bc91908590899085906106ad57fe5b60200260200101516000610a97565b90508360015b86811015610769576106d98982815181106102bf57fe5b909650945081861461073b576001600160a01b038b811660009081526020818152604080832086845280835281842098909855928d16825281815282822094825284815282822095909555878152948452808520549290935291909220549084905b61074c84868a848151811061066457fe5b935061075f83868a84815181106106ad57fe5b92506001016106c2565b50506001600160a01b03808a16600090815260208181526040808320888452825280832095909555918a16815280825283812095815294905292209190915550610812565b60005b81811015610810578281815181106107c557fe5b60200260200101516107ea878684815181106107dd57fe5b6020026020010151610182565b10156108085760405162461bcd60e51b8152600401610236906113fc565b6001016107b1565b505b836001600160a01b0316856001600160a01b0316336001600160a01b03167f4a39dc06d4c0dbc64b70af90fd698a233a518aa5d07e595d983b8c0526c8f7fb868660405161086192919061112b565b60405180910390a45050505050565b610882856001600160a01b0316610b8d565b15610945576000856001600160a01b031663bc197c8184338a8989886040518763ffffffff1660e01b81526004016108be959493929190611075565b602060405180830381600088803b1580156108d857600080fd5b5087f11580156108ec573d6000803e3d6000fd5b50505050506040513d601f19601f820116820180604052508101906109119190610f9b565b90506001600160e01b0319811663bc197c8160e01b146109435760405162461bcd60e51b81526004016102369061132d565b505b505050505050565b61095a8483836001610bc7565b6109678383836000610bc7565b826001600160a01b0316846001600160a01b0316336001600160a01b03167fc3d58168c5ae7397731d063d5bbf3d657854427343f4c083240f7aacaa2d0f6285856040516109b69291906115e2565b60405180910390a450505050565b6109d6856001600160a01b0316610b8d565b15610945576000856001600160a01b031663f23a6e6184338a8989886040518763ffffffff1660e01b8152600401610a129594939291906110d3565b602060405180830381600088803b158015610a2c57600080fd5b5087f1158015610a40573d6000803e3d6000fd5b50505050506040513d601f19601f82011682018060405250810190610a659190610f9b565b90506001600160e01b0319811663f23a6e6160e01b146109435760405162461bcd60e51b815260040161023690611452565b60006020840263ffffffff82846001811115610aaf57fe5b1415610b0b5784821b8701925086831015610adc5760405162461bcd60e51b815260040161023690611587565b64010000000087831c8216860110610b065760405162461bcd60e51b815260040161023690611587565b610b83565b6001846001811115610b1957fe5b1415610b6b5784821b8703925086831115610b465760405162461bcd60e51b815260040161023690611215565b84818389901c161015610b065760405162461bcd60e51b815260040161023690611215565b60405162461bcd60e51b81526004016102369061151c565b5050949350505050565b6000813f8015801590610bc057507fc5d2460186f7233c927e7db2dcc703c0e500b653ca82273b7bfad8045d85a4708114155b9392505050565b600080610bd3856104ed565b6001600160a01b0388166000908152602081815260408083208584529091529020549193509150610c0690828686610a97565b6001600160a01b03909616600090815260208181526040808320948352939052919091209490945550505050565b80356001600160a01b03811681146101f957600080fd5b600082601f830112610c5b578081fd5b8135610c6e610c6982611614565b6115f0565b818152915060208083019084810181840286018201871015610c8f57600080fd5b60005b84811015610cae57813584529282019290820190600101610c92565b505050505092915050565b600082601f830112610cc9578081fd5b813567ffffffffffffffff811115610cdd57fe5b610cf0601f8201601f19166020016115f0565b9150808252836020828501011115610d0757600080fd5b8060208401602084013760009082016020015292915050565b60008060408385031215610d32578182fd5b610d3b83610c34565b9150610d4960208401610c34565b90509250929050565b600080600080600060a08688031215610d69578081fd5b610d7286610c34565b9450610d8060208701610c34565b9350604086013567ffffffffffffffff80821115610d9c578283fd5b610da889838a01610c4b565b94506060880135915080821115610dbd578283fd5b610dc989838a01610c4b565b93506080880135915080821115610dde578283fd5b50610deb88828901610cb9565b9150509295509295909350565b600080600080600060a08688031215610e0f578081fd5b610e1886610c34565b9450610e2660208701610c34565b93506040860135925060608601359150608086013567ffffffffffffffff811115610e4f578182fd5b610deb88828901610cb9565b60008060408385031215610e6d578182fd5b610e7683610c34565b915060208301358015158114610e8a578182fd5b809150509250929050565b60008060408385031215610ea7578182fd5b610eb083610c34565b946020939093013593505050565b60008060408385031215610ed0578182fd5b823567ffffffffffffffff80821115610ee7578384fd5b818501915085601f830112610efa578384fd5b8135610f08610c6982611614565b80828252602080830192508086018a828387028901011115610f28578889fd5b8896505b84871015610f5157610f3d81610c34565b845260019690960195928101928101610f2c565b509096508701359350505080821115610f68578283fd5b50610f7585828601610c4b565b9150509250929050565b600060208284031215610f90578081fd5b8135610bc081611632565b600060208284031215610fac578081fd5b8151610bc081611632565b600060208284031215610fc8578081fd5b5035919050565b60008060408385031215610fe1578182fd5b50508035926020909101359150565b6000815180845260208085019450808401835b8381101561101f57815187529582019590820190600101611003565b509495945050505050565b60008151808452815b8181101561104f57602081850181015186830182015201611033565b818111156110605782602083870101525b50601f01601f19169290920160200192915050565b6001600160a01b0386811682528516602082015260a0604082018190526000906110a190830186610ff0565b82810360608401526110b38186610ff0565b905082810360808401526110c7818561102a565b98975050505050505050565b6001600160a01b03868116825285166020820152604081018490526060810183905260a06080820181905260009061110d9083018461102a565b979650505050505050565b600060208252610bc06020830184610ff0565b60006040825261113e6040830185610ff0565b82810360208401526101c18185610ff0565b901515815260200190565b60208082526039908201527f455243313135355061636b656442616c616e63652362616c616e63654f66426160408201527f7463683a20494e56414c49445f41525241595f4c454e47544800000000000000606082015260800190565b6020808252603d908201527f455243313135355061636b656442616c616e636523736166654261746368547260408201527f616e7366657246726f6d3a20494e56414c49445f524543495049454e54000000606082015260800190565b60208082526033908201527f455243313135355061636b656442616c616e6365235f7669657755706461746560408201527242696e56616c75653a20554e444552464c4f5760681b606082015260800190565b60208082526037908201527f455243313135355061636b656442616c616e636523736166655472616e73666560408201527f7246726f6d3a20494e56414c49445f4f50455241544f52000000000000000000606082015260800190565b60208082526042908201527f455243313135355061636b656442616c616e6365235f7361666542617463685460408201527f72616e7366657246726f6d3a20494e56414c49445f4152524159535f4c454e476060820152610a8960f31b608082015260a00190565b6020808252604c908201527f455243313135355061636b656442616c616e6365235f63616c6c6f6e4552433160408201527f313535426174636852656365697665643a20494e56414c49445f4f4e5f52454360608201526b454956455f4d45535341474560a01b608082015260a00190565b6020808252603c908201527f455243313135355061636b656442616c616e636523736166654261746368547260408201527f616e7366657246726f6d3a20494e56414c49445f4f50455241544f5200000000606082015260800190565b60208082526036908201527f455243313135355061636b656442616c616e6365235f7361666542617463685460408201527572616e7366657246726f6d3a20554e444552464c4f5760501b606082015260800190565b60208082526047908201527f455243313135355061636b656442616c616e6365235f63616c6c6f6e4552433160408201527f31353552656365697665643a20494e56414c49445f4f4e5f524543454956455f6060820152664d45535341474560c81b608082015260a00190565b60208082526038908201527f455243313135355061636b656442616c616e636523736166655472616e73666560408201527f7246726f6d3a20494e56414c49445f524543495049454e540000000000000000606082015260800190565b60208082526045908201527f455243313135355061636b656442616c616e6365235f7669657755706461746560408201527f42696e56616c75653a20494e56414c49445f42494e5f57524954455f4f50455260608201526420aa24a7a760d91b608082015260a00190565b60208082526032908201527f455243313135355061636b656442616c616e6365235f7669657755706461746560408201527142696e56616c75653a204f564552464c4f5760701b606082015260800190565b90815260200190565b918252602082015260400190565b60405181810167ffffffffffffffff8111828210171561160c57fe5b604052919050565b600067ffffffffffffffff82111561162857fe5b5060209081020190565b6001600160e01b03198116811461164857600080fd5b5056fea2646970667358221220efe8e84f0169858d19925d7a911d98b623534e77245aca1487236e2d5fca495364736f6c63430007040033",
			"opcodes": "PUSH1 0x80 PUSH1 0x40 MSTORE CALLVALUE DUP1 ISZERO PUSH2 0x10 JUMPI PUSH1 0x0 DUP1 REVERT JUMPDEST POP PUSH2 0x1681 DUP1 PUSH2 0x20 PUSH1 0x0 CODECOPY PUSH1 0x0 RETURN INVALID PUSH1 0x80 PUSH1 0x40 MSTORE CALLVALUE DUP1 ISZERO PUSH2 0x10 JUMPI PUSH1 0x0 DUP1 REVERT JUMPDEST POP PUSH1 0x4 CALLDATASIZE LT PUSH2 0x92 JUMPI PUSH1 0x0 CALLDATALOAD PUSH1 0xE0 SHR DUP1 PUSH4 0xA22CB465 GT PUSH2 0x66 JUMPI DUP1 PUSH4 0xA22CB465 EQ PUSH2 0x115 JUMPI DUP1 PUSH4 0xDB90E83C EQ PUSH2 0x128 JUMPI DUP1 PUSH4 0xE985E9C5 EQ PUSH2 0x149 JUMPI DUP1 PUSH4 0xEAEC5F81 EQ PUSH2 0x15C JUMPI DUP1 PUSH4 0xF242432A EQ PUSH2 0x16F JUMPI PUSH2 0x92 JUMP JUMPDEST DUP1 PUSH3 0xFDD58E EQ PUSH2 0x97 JUMPI DUP1 PUSH4 0x1FFC9A7 EQ PUSH2 0xC0 JUMPI DUP1 PUSH4 0x2EB2C2D6 EQ PUSH2 0xE0 JUMPI DUP1 PUSH4 0x4E1273F4 EQ PUSH2 0xF5 JUMPI JUMPDEST PUSH1 0x0 DUP1 REVERT JUMPDEST PUSH2 0xAA PUSH2 0xA5 CALLDATASIZE PUSH1 0x4 PUSH2 0xE95 JUMP JUMPDEST PUSH2 0x182 JUMP JUMPDEST PUSH1 0x40 MLOAD PUSH2 0xB7 SWAP2 SWAP1 PUSH2 0x15D9 JUMP JUMPDEST PUSH1 0x40 MLOAD DUP1 SWAP2 SUB SWAP1 RETURN JUMPDEST PUSH2 0xD3 PUSH2 0xCE CALLDATASIZE PUSH1 0x4 PUSH2 0xF7F JUMP JUMPDEST PUSH2 0x1CA JUMP JUMPDEST PUSH1 0x40 MLOAD PUSH2 0xB7 SWAP2 SWAP1 PUSH2 0x1150 JUMP JUMPDEST PUSH2 0xF3 PUSH2 0xEE CALLDATASIZE PUSH1 0x4 PUSH2 0xD52 JUMP JUMPDEST PUSH2 0x1FE JUMP JUMPDEST STOP JUMPDEST PUSH2 0x108 PUSH2 0x103 CALLDATASIZE PUSH1 0x4 PUSH2 0xEBE JUMP JUMPDEST PUSH2 0x286 JUMP JUMPDEST PUSH1 0x40 MLOAD PUSH2 0xB7 SWAP2 SWAP1 PUSH2 0x1118 JUMP JUMPDEST PUSH2 0xF3 PUSH2 0x123 CALLDATASIZE PUSH1 0x4 PUSH2 0xE5B JUMP JUMPDEST PUSH2 0x47E JUMP JUMPDEST PUSH2 0x13B PUSH2 0x136 CALLDATASIZE PUSH1 0x4 PUSH2 0xFB7 JUMP JUMPDEST PUSH2 0x4ED JUMP JUMPDEST PUSH1 0x40 MLOAD PUSH2 0xB7 SWAP3 SWAP2 SWAP1 PUSH2 0x15E2 JUMP JUMPDEST PUSH2 0xD3 PUSH2 0x157 CALLDATASIZE PUSH1 0x4 PUSH2 0xD20 JUMP JUMPDEST PUSH2 0x4FA JUMP JUMPDEST PUSH2 0xAA PUSH2 0x16A CALLDATASIZE PUSH1 0x4 PUSH2 0xFCF JUMP JUMPDEST PUSH2 0x528 JUMP JUMPDEST PUSH2 0xF3 PUSH2 0x17D CALLDATASIZE PUSH1 0x4 PUSH2 0xDF8 JUMP JUMPDEST PUSH2 0x53B JUMP JUMPDEST PUSH1 0x0 DUP1 PUSH1 0x0 PUSH2 0x190 DUP5 PUSH2 0x4ED JUMP JUMPDEST PUSH1 0x1 PUSH1 0x1 PUSH1 0xA0 SHL SUB DUP8 AND PUSH1 0x0 SWAP1 DUP2 MSTORE PUSH1 0x20 DUP2 DUP2 MSTORE PUSH1 0x40 DUP1 DUP4 KECCAK256 DUP6 DUP5 MSTORE SWAP1 SWAP2 MSTORE SWAP1 KECCAK256 SLOAD SWAP2 SWAP4 POP SWAP2 POP PUSH2 0x1C1 SWAP1 DUP3 PUSH2 0x528 JUMP JUMPDEST SWAP6 SWAP5 POP POP POP POP POP JUMP JUMPDEST PUSH1 0x0 PUSH1 0x1 PUSH1 0x1 PUSH1 0xE0 SHL SUB NOT DUP3 AND PUSH4 0x6CDB3D13 PUSH1 0xE1 SHL EQ ISZERO PUSH2 0x1ED JUMPI POP PUSH1 0x1 PUSH2 0x1F9 JUMP JUMPDEST PUSH2 0x1F6 DUP3 PUSH2 0x5B3 JUMP JUMPDEST SWAP1 POP JUMPDEST SWAP2 SWAP1 POP JUMP JUMPDEST CALLER PUSH1 0x1 PUSH1 0x1 PUSH1 0xA0 SHL SUB DUP7 AND EQ DUP1 PUSH2 0x21A JUMPI POP PUSH2 0x21A DUP6 CALLER PUSH2 0x4FA JUMP JUMPDEST PUSH2 0x23F JUMPI PUSH1 0x40 MLOAD PUSH3 0x461BCD PUSH1 0xE5 SHL DUP2 MSTORE PUSH1 0x4 ADD PUSH2 0x236 SWAP1 PUSH2 0x139F JUMP JUMPDEST PUSH1 0x40 MLOAD DUP1 SWAP2 SUB SWAP1 REVERT JUMPDEST PUSH1 0x1 PUSH1 0x1 PUSH1 0xA0 SHL SUB DUP5 AND PUSH2 0x265 JUMPI PUSH1 0x40 MLOAD PUSH3 0x461BCD PUSH1 0xE5 SHL DUP2 MSTORE PUSH1 0x4 ADD PUSH2 0x236 SWAP1 PUSH2 0x11B8 JUMP JUMPDEST PUSH2 0x271 DUP6 DUP6 DUP6 DUP6 PUSH2 0x5CC JUMP JUMPDEST PUSH2 0x27F DUP6 DUP6 DUP6 DUP6 GAS DUP7 PUSH2 0x870 JUMP JUMPDEST POP POP POP POP POP JUMP JUMPDEST DUP2 MLOAD DUP2 MLOAD PUSH1 0x60 SWAP2 SWAP1 DUP2 EQ PUSH2 0x2AC JUMPI PUSH1 0x40 MLOAD PUSH3 0x461BCD PUSH1 0xE5 SHL DUP2 MSTORE PUSH1 0x4 ADD PUSH2 0x236 SWAP1 PUSH2 0x115B JUMP JUMPDEST PUSH1 0x0 DUP1 PUSH2 0x2CC DUP6 PUSH1 0x0 DUP2 MLOAD DUP2 LT PUSH2 0x2BF JUMPI INVALID JUMPDEST PUSH1 0x20 MUL PUSH1 0x20 ADD ADD MLOAD PUSH2 0x4ED JUMP JUMPDEST SWAP2 POP SWAP2 POP PUSH1 0x0 DUP1 PUSH1 0x0 DUP9 PUSH1 0x0 DUP2 MLOAD DUP2 LT PUSH2 0x2E2 JUMPI INVALID JUMPDEST PUSH1 0x20 MUL PUSH1 0x20 ADD ADD MLOAD PUSH1 0x1 PUSH1 0x1 PUSH1 0xA0 SHL SUB AND PUSH1 0x1 PUSH1 0x1 PUSH1 0xA0 SHL SUB AND DUP2 MSTORE PUSH1 0x20 ADD SWAP1 DUP2 MSTORE PUSH1 0x20 ADD PUSH1 0x0 KECCAK256 PUSH1 0x0 DUP5 DUP2 MSTORE PUSH1 0x20 ADD SWAP1 DUP2 MSTORE PUSH1 0x20 ADD PUSH1 0x0 KECCAK256 SLOAD SWAP1 POP PUSH1 0x0 DUP4 SWAP1 POP PUSH1 0x60 DUP6 PUSH8 0xFFFFFFFFFFFFFFFF DUP2 GT DUP1 ISZERO PUSH2 0x33C JUMPI PUSH1 0x0 DUP1 REVERT JUMPDEST POP PUSH1 0x40 MLOAD SWAP1 DUP1 DUP3 MSTORE DUP1 PUSH1 0x20 MUL PUSH1 0x20 ADD DUP3 ADD PUSH1 0x40 MSTORE DUP1 ISZERO PUSH2 0x366 JUMPI DUP2 PUSH1 0x20 ADD PUSH1 0x20 DUP3 MUL DUP1 CALLDATASIZE DUP4 CALLDATACOPY ADD SWAP1 POP JUMPDEST POP SWAP1 POP PUSH2 0x373 DUP4 DUP6 PUSH2 0x528 JUMP JUMPDEST DUP2 PUSH1 0x0 DUP2 MLOAD DUP2 LT PUSH2 0x380 JUMPI INVALID JUMPDEST PUSH1 0x20 SWAP1 DUP2 MUL SWAP2 SWAP1 SWAP2 ADD ADD MSTORE PUSH1 0x1 JUMPDEST DUP7 DUP2 LT ISZERO PUSH2 0x471 JUMPI PUSH2 0x3A5 DUP10 DUP3 DUP2 MLOAD DUP2 LT PUSH2 0x2BF JUMPI INVALID JUMPDEST SWAP1 SWAP7 POP SWAP5 POP DUP3 DUP7 EQ ISZERO DUP1 PUSH2 0x3F4 JUMPI POP DUP10 DUP2 DUP2 MLOAD DUP2 LT PUSH2 0x3C0 JUMPI INVALID JUMPDEST PUSH1 0x20 MUL PUSH1 0x20 ADD ADD MLOAD PUSH1 0x1 PUSH1 0x1 PUSH1 0xA0 SHL SUB AND DUP11 PUSH1 0x1 DUP4 SUB DUP2 MLOAD DUP2 LT PUSH2 0x3E0 JUMPI INVALID JUMPDEST PUSH1 0x20 MUL PUSH1 0x20 ADD ADD MLOAD PUSH1 0x1 PUSH1 0x1 PUSH1 0xA0 SHL SUB AND EQ ISZERO JUMPDEST ISZERO PUSH2 0x448 JUMPI PUSH1 0x0 DUP1 DUP12 DUP4 DUP2 MLOAD DUP2 LT PUSH2 0x408 JUMPI INVALID JUMPDEST PUSH1 0x20 MUL PUSH1 0x20 ADD ADD MLOAD PUSH1 0x1 PUSH1 0x1 PUSH1 0xA0 SHL SUB AND PUSH1 0x1 PUSH1 0x1 PUSH1 0xA0 SHL SUB AND DUP2 MSTORE PUSH1 0x20 ADD SWAP1 DUP2 MSTORE PUSH1 0x20 ADD PUSH1 0x0 KECCAK256 PUSH1 0x0 DUP8 DUP2 MSTORE PUSH1 0x20 ADD SWAP1 DUP2 MSTORE PUSH1 0x20 ADD PUSH1 0x0 KECCAK256 SLOAD SWAP4 POP DUP6 SWAP3 POP JUMPDEST PUSH2 0x452 DUP5 DUP7 PUSH2 0x528 JUMP JUMPDEST DUP3 DUP3 DUP2 MLOAD DUP2 LT PUSH2 0x45E JUMPI INVALID JUMPDEST PUSH1 0x20 SWAP1 DUP2 MUL SWAP2 SWAP1 SWAP2 ADD ADD MSTORE PUSH1 0x1 ADD PUSH2 0x38E JUMP JUMPDEST POP SWAP9 SWAP8 POP POP POP POP POP POP POP POP JUMP JUMPDEST CALLER PUSH1 0x0 DUP2 DUP2 MSTORE PUSH1 0x1 PUSH1 0x20 SWAP1 DUP2 MSTORE PUSH1 0x40 DUP1 DUP4 KECCAK256 PUSH1 0x1 PUSH1 0x1 PUSH1 0xA0 SHL SUB DUP8 AND DUP1 DUP6 MSTORE SWAP3 MSTORE SWAP2 DUP3 SWAP1 KECCAK256 DUP1 SLOAD PUSH1 0xFF NOT AND DUP6 ISZERO ISZERO OR SWAP1 SSTORE SWAP1 MLOAD SWAP1 SWAP2 SWAP1 PUSH32 0x17307EAB39AB6107E8899845AD3D59BD9653F200F220920489CA2B5937696C31 SWAP1 PUSH2 0x4E1 SWAP1 DUP6 SWAP1 PUSH2 0x1150 JUMP JUMPDEST PUSH1 0x40 MLOAD DUP1 SWAP2 SUB SWAP1 LOG3 POP POP JUMP JUMPDEST PUSH1 0x8 DUP2 DIV SWAP2 PUSH1 0x7 SWAP1 SWAP2 AND SWAP1 JUMP JUMPDEST PUSH1 0x1 PUSH1 0x1 PUSH1 0xA0 SHL SUB SWAP2 DUP3 AND PUSH1 0x0 SWAP1 DUP2 MSTORE PUSH1 0x1 PUSH1 0x20 SWAP1 DUP2 MSTORE PUSH1 0x40 DUP1 DUP4 KECCAK256 SWAP4 SWAP1 SWAP5 AND DUP3 MSTORE SWAP2 SWAP1 SWAP2 MSTORE KECCAK256 SLOAD PUSH1 0xFF AND SWAP1 JUMP JUMPDEST PUSH1 0x20 DUP2 MUL DUP3 SWAP1 SHR PUSH4 0xFFFFFFFF AND SWAP3 SWAP2 POP POP JUMP JUMPDEST CALLER PUSH1 0x1 PUSH1 0x1 PUSH1 0xA0 SHL SUB DUP7 AND EQ DUP1 PUSH2 0x557 JUMPI POP PUSH2 0x557 DUP6 CALLER PUSH2 0x4FA JUMP JUMPDEST PUSH2 0x573 JUMPI PUSH1 0x40 MLOAD PUSH3 0x461BCD PUSH1 0xE5 SHL DUP2 MSTORE PUSH1 0x4 ADD PUSH2 0x236 SWAP1 PUSH2 0x1268 JUMP JUMPDEST PUSH1 0x1 PUSH1 0x1 PUSH1 0xA0 SHL SUB DUP5 AND PUSH2 0x599 JUMPI PUSH1 0x40 MLOAD PUSH3 0x461BCD PUSH1 0xE5 SHL DUP2 MSTORE PUSH1 0x4 ADD PUSH2 0x236 SWAP1 PUSH2 0x14BF JUMP JUMPDEST PUSH2 0x5A5 DUP6 DUP6 DUP6 DUP6 PUSH2 0x94D JUMP JUMPDEST PUSH2 0x27F DUP6 DUP6 DUP6 DUP6 GAS DUP7 PUSH2 0x9C4 JUMP JUMPDEST PUSH1 0x1 PUSH1 0x1 PUSH1 0xE0 SHL SUB NOT DUP2 AND PUSH4 0x1FFC9A7 PUSH1 0xE0 SHL EQ SWAP2 SWAP1 POP JUMP JUMPDEST DUP2 MLOAD DUP2 MLOAD DUP2 EQ PUSH2 0x5EE JUMPI PUSH1 0x40 MLOAD PUSH3 0x461BCD PUSH1 0xE5 SHL DUP2 MSTORE PUSH1 0x4 ADD PUSH2 0x236 SWAP1 PUSH2 0x12C5 JUMP JUMPDEST DUP4 PUSH1 0x1 PUSH1 0x1 PUSH1 0xA0 SHL SUB AND DUP6 PUSH1 0x1 PUSH1 0x1 PUSH1 0xA0 SHL SUB AND EQ ISZERO DUP1 ISZERO PUSH2 0x610 JUMPI POP PUSH1 0x0 DUP2 GT JUMPDEST ISZERO PUSH2 0x7AE JUMPI PUSH1 0x0 DUP1 PUSH2 0x628 DUP6 PUSH1 0x0 DUP2 MLOAD DUP2 LT PUSH2 0x2BF JUMPI INVALID JUMPDEST PUSH1 0x1 PUSH1 0x1 PUSH1 0xA0 SHL SUB DUP10 AND PUSH1 0x0 SWAP1 DUP2 MSTORE PUSH1 0x20 DUP2 DUP2 MSTORE PUSH1 0x40 DUP1 DUP4 KECCAK256 DUP6 DUP5 MSTORE SWAP1 SWAP2 MSTORE DUP2 KECCAK256 SLOAD DUP8 MLOAD SWAP4 SWAP6 POP SWAP2 SWAP4 POP SWAP2 PUSH2 0x673 SWAP2 SWAP1 DUP5 SWAP1 DUP9 SWAP1 DUP6 SWAP1 PUSH2 0x664 JUMPI INVALID JUMPDEST PUSH1 0x20 MUL PUSH1 0x20 ADD ADD MLOAD PUSH1 0x1 PUSH2 0xA97 JUMP JUMPDEST PUSH1 0x1 PUSH1 0x1 PUSH1 0xA0 SHL SUB DUP9 AND PUSH1 0x0 SWAP1 DUP2 MSTORE PUSH1 0x20 DUP2 DUP2 MSTORE PUSH1 0x40 DUP1 DUP4 KECCAK256 DUP8 DUP5 MSTORE SWAP1 SWAP2 MSTORE DUP2 KECCAK256 SLOAD DUP8 MLOAD SWAP3 SWAP4 POP SWAP1 SWAP2 PUSH2 0x6BC SWAP2 SWAP1 DUP6 SWAP1 DUP10 SWAP1 DUP6 SWAP1 PUSH2 0x6AD JUMPI INVALID JUMPDEST PUSH1 0x20 MUL PUSH1 0x20 ADD ADD MLOAD PUSH1 0x0 PUSH2 0xA97 JUMP JUMPDEST SWAP1 POP DUP4 PUSH1 0x1 JUMPDEST DUP7 DUP2 LT ISZERO PUSH2 0x769 JUMPI PUSH2 0x6D9 DUP10 DUP3 DUP2 MLOAD DUP2 LT PUSH2 0x2BF JUMPI INVALID JUMPDEST SWAP1 SWAP7 POP SWAP5 POP DUP2 DUP7 EQ PUSH2 0x73B JUMPI PUSH1 0x1 PUSH1 0x1 PUSH1 0xA0 SHL SUB DUP12 DUP2 AND PUSH1 0x0 SWAP1 DUP2 MSTORE PUSH1 0x20 DUP2 DUP2 MSTORE PUSH1 0x40 DUP1 DUP4 KECCAK256 DUP7 DUP5 MSTORE DUP1 DUP4 MSTORE DUP2 DUP5 KECCAK256 SWAP9 SWAP1 SWAP9 SSTORE SWAP3 DUP14 AND DUP3 MSTORE DUP2 DUP2 MSTORE DUP3 DUP3 KECCAK256 SWAP5 DUP3 MSTORE DUP5 DUP2 MSTORE DUP3 DUP3 KECCAK256 SWAP6 SWAP1 SWAP6 SSTORE DUP8 DUP2 MSTORE SWAP5 DUP5 MSTORE DUP1 DUP6 KECCAK256 SLOAD SWAP3 SWAP1 SWAP4 MSTORE SWAP2 SWAP1 SWAP3 KECCAK256 SLOAD SWAP1 DUP5 SWAP1 JUMPDEST PUSH2 0x74C DUP5 DUP7 DUP11 DUP5 DUP2 MLOAD DUP2 LT PUSH2 0x664 JUMPI INVALID JUMPDEST SWAP4 POP PUSH2 0x75F DUP4 DUP7 DUP11 DUP5 DUP2 MLOAD DUP2 LT PUSH2 0x6AD JUMPI INVALID JUMPDEST SWAP3 POP PUSH1 0x1 ADD PUSH2 0x6C2 JUMP JUMPDEST POP POP PUSH1 0x1 PUSH1 0x1 PUSH1 0xA0 SHL SUB DUP1 DUP11 AND PUSH1 0x0 SWAP1 DUP2 MSTORE PUSH1 0x20 DUP2 DUP2 MSTORE PUSH1 0x40 DUP1 DUP4 KECCAK256 DUP9 DUP5 MSTORE DUP3 MSTORE DUP1 DUP4 KECCAK256 SWAP6 SWAP1 SWAP6 SSTORE SWAP2 DUP11 AND DUP2 MSTORE DUP1 DUP3 MSTORE DUP4 DUP2 KECCAK256 SWAP6 DUP2 MSTORE SWAP5 SWAP1 MSTORE SWAP3 KECCAK256 SWAP2 SWAP1 SWAP2 SSTORE POP PUSH2 0x812 JUMP JUMPDEST PUSH1 0x0 JUMPDEST DUP2 DUP2 LT ISZERO PUSH2 0x810 JUMPI DUP3 DUP2 DUP2 MLOAD DUP2 LT PUSH2 0x7C5 JUMPI INVALID JUMPDEST PUSH1 0x20 MUL PUSH1 0x20 ADD ADD MLOAD PUSH2 0x7EA DUP8 DUP7 DUP5 DUP2 MLOAD DUP2 LT PUSH2 0x7DD JUMPI INVALID JUMPDEST PUSH1 0x20 MUL PUSH1 0x20 ADD ADD MLOAD PUSH2 0x182 JUMP JUMPDEST LT ISZERO PUSH2 0x808 JUMPI PUSH1 0x40 MLOAD PUSH3 0x461BCD PUSH1 0xE5 SHL DUP2 MSTORE PUSH1 0x4 ADD PUSH2 0x236 SWAP1 PUSH2 0x13FC JUMP JUMPDEST PUSH1 0x1 ADD PUSH2 0x7B1 JUMP JUMPDEST POP JUMPDEST DUP4 PUSH1 0x1 PUSH1 0x1 PUSH1 0xA0 SHL SUB AND DUP6 PUSH1 0x1 PUSH1 0x1 PUSH1 0xA0 SHL SUB AND CALLER PUSH1 0x1 PUSH1 0x1 PUSH1 0xA0 SHL SUB AND PUSH32 0x4A39DC06D4C0DBC64B70AF90FD698A233A518AA5D07E595D983B8C0526C8F7FB DUP7 DUP7 PUSH1 0x40 MLOAD PUSH2 0x861 SWAP3 SWAP2 SWAP1 PUSH2 0x112B JUMP JUMPDEST PUSH1 0x40 MLOAD DUP1 SWAP2 SUB SWAP1 LOG4 POP POP POP POP POP JUMP JUMPDEST PUSH2 0x882 DUP6 PUSH1 0x1 PUSH1 0x1 PUSH1 0xA0 SHL SUB AND PUSH2 0xB8D JUMP JUMPDEST ISZERO PUSH2 0x945 JUMPI PUSH1 0x0 DUP6 PUSH1 0x1 PUSH1 0x1 PUSH1 0xA0 SHL SUB AND PUSH4 0xBC197C81 DUP5 CALLER DUP11 DUP10 DUP10 DUP9 PUSH1 0x40 MLOAD DUP8 PUSH4 0xFFFFFFFF AND PUSH1 0xE0 SHL DUP2 MSTORE PUSH1 0x4 ADD PUSH2 0x8BE SWAP6 SWAP5 SWAP4 SWAP3 SWAP2 SWAP1 PUSH2 0x1075 JUMP JUMPDEST PUSH1 0x20 PUSH1 0x40 MLOAD DUP1 DUP4 SUB DUP2 PUSH1 0x0 DUP9 DUP1 EXTCODESIZE ISZERO DUP1 ISZERO PUSH2 0x8D8 JUMPI PUSH1 0x0 DUP1 REVERT JUMPDEST POP DUP8 CALL ISZERO DUP1 ISZERO PUSH2 0x8EC JUMPI RETURNDATASIZE PUSH1 0x0 DUP1 RETURNDATACOPY RETURNDATASIZE PUSH1 0x0 REVERT JUMPDEST POP POP POP POP POP PUSH1 0x40 MLOAD RETURNDATASIZE PUSH1 0x1F NOT PUSH1 0x1F DUP3 ADD AND DUP3 ADD DUP1 PUSH1 0x40 MSTORE POP DUP2 ADD SWAP1 PUSH2 0x911 SWAP2 SWAP1 PUSH2 0xF9B JUMP JUMPDEST SWAP1 POP PUSH1 0x1 PUSH1 0x1 PUSH1 0xE0 SHL SUB NOT DUP2 AND PUSH4 0xBC197C81 PUSH1 0xE0 SHL EQ PUSH2 0x943 JUMPI PUSH1 0x40 MLOAD PUSH3 0x461BCD PUSH1 0xE5 SHL DUP2 MSTORE PUSH1 0x4 ADD PUSH2 0x236 SWAP1 PUSH2 0x132D JUMP JUMPDEST POP JUMPDEST POP POP POP POP POP POP JUMP JUMPDEST PUSH2 0x95A DUP5 DUP4 DUP4 PUSH1 0x1 PUSH2 0xBC7 JUMP JUMPDEST PUSH2 0x967 DUP4 DUP4 DUP4 PUSH1 0x0 PUSH2 0xBC7 JUMP JUMPDEST DUP3 PUSH1 0x1 PUSH1 0x1 PUSH1 0xA0 SHL SUB AND DUP5 PUSH1 0x1 PUSH1 0x1 PUSH1 0xA0 SHL SUB AND CALLER PUSH1 0x1 PUSH1 0x1 PUSH1 0xA0 SHL SUB AND PUSH32 0xC3D58168C5AE7397731D063D5BBF3D657854427343F4C083240F7AACAA2D0F62 DUP6 DUP6 PUSH1 0x40 MLOAD PUSH2 0x9B6 SWAP3 SWAP2 SWAP1 PUSH2 0x15E2 JUMP JUMPDEST PUSH1 0x40 MLOAD DUP1 SWAP2 SUB SWAP1 LOG4 POP POP POP POP JUMP JUMPDEST PUSH2 0x9D6 DUP6 PUSH1 0x1 PUSH1 0x1 PUSH1 0xA0 SHL SUB AND PUSH2 0xB8D JUMP JUMPDEST ISZERO PUSH2 0x945 JUMPI PUSH1 0x0 DUP6 PUSH1 0x1 PUSH1 0x1 PUSH1 0xA0 SHL SUB AND PUSH4 0xF23A6E61 DUP5 CALLER DUP11 DUP10 DUP10 DUP9 PUSH1 0x40 MLOAD DUP8 PUSH4 0xFFFFFFFF AND PUSH1 0xE0 SHL DUP2 MSTORE PUSH1 0x4 ADD PUSH2 0xA12 SWAP6 SWAP5 SWAP4 SWAP3 SWAP2 SWAP1 PUSH2 0x10D3 JUMP JUMPDEST PUSH1 0x20 PUSH1 0x40 MLOAD DUP1 DUP4 SUB DUP2 PUSH1 0x0 DUP9 DUP1 EXTCODESIZE ISZERO DUP1 ISZERO PUSH2 0xA2C JUMPI PUSH1 0x0 DUP1 REVERT JUMPDEST POP DUP8 CALL ISZERO DUP1 ISZERO PUSH2 0xA40 JUMPI RETURNDATASIZE PUSH1 0x0 DUP1 RETURNDATACOPY RETURNDATASIZE PUSH1 0x0 REVERT JUMPDEST POP POP POP POP POP PUSH1 0x40 MLOAD RETURNDATASIZE PUSH1 0x1F NOT PUSH1 0x1F DUP3 ADD AND DUP3 ADD DUP1 PUSH1 0x40 MSTORE POP DUP2 ADD SWAP1 PUSH2 0xA65 SWAP2 SWAP1 PUSH2 0xF9B JUMP JUMPDEST SWAP1 POP PUSH1 0x1 PUSH1 0x1 PUSH1 0xE0 SHL SUB NOT DUP2 AND PUSH4 0xF23A6E61 PUSH1 0xE0 SHL EQ PUSH2 0x943 JUMPI PUSH1 0x40 MLOAD PUSH3 0x461BCD PUSH1 0xE5 SHL DUP2 MSTORE PUSH1 0x4 ADD PUSH2 0x236 SWAP1 PUSH2 0x1452 JUMP JUMPDEST PUSH1 0x0 PUSH1 0x20 DUP5 MUL PUSH4 0xFFFFFFFF DUP3 DUP5 PUSH1 0x1 DUP2 GT ISZERO PUSH2 0xAAF JUMPI INVALID JUMPDEST EQ ISZERO PUSH2 0xB0B JUMPI DUP5 DUP3 SHL DUP8 ADD SWAP3 POP DUP7 DUP4 LT ISZERO PUSH2 0xADC JUMPI PUSH1 0x40 MLOAD PUSH3 0x461BCD PUSH1 0xE5 SHL DUP2 MSTORE PUSH1 0x4 ADD PUSH2 0x236 SWAP1 PUSH2 0x1587 JUMP JUMPDEST PUSH5 0x100000000 DUP8 DUP4 SHR DUP3 AND DUP7 ADD LT PUSH2 0xB06 JUMPI PUSH1 0x40 MLOAD PUSH3 0x461BCD PUSH1 0xE5 SHL DUP2 MSTORE PUSH1 0x4 ADD PUSH2 0x236 SWAP1 PUSH2 0x1587 JUMP JUMPDEST PUSH2 0xB83 JUMP JUMPDEST PUSH1 0x1 DUP5 PUSH1 0x1 DUP2 GT ISZERO PUSH2 0xB19 JUMPI INVALID JUMPDEST EQ ISZERO PUSH2 0xB6B JUMPI DUP5 DUP3 SHL DUP8 SUB SWAP3 POP DUP7 DUP4 GT ISZERO PUSH2 0xB46 JUMPI PUSH1 0x40 MLOAD PUSH3 0x461BCD PUSH1 0xE5 SHL DUP2 MSTORE PUSH1 0x4 ADD PUSH2 0x236 SWAP1 PUSH2 0x1215 JUMP JUMPDEST DUP5 DUP2 DUP4 DUP10 SWAP1 SHR AND LT ISZERO PUSH2 0xB06 JUMPI PUSH1 0x40 MLOAD PUSH3 0x461BCD PUSH1 0xE5 SHL DUP2 MSTORE PUSH1 0x4 ADD PUSH2 0x236 SWAP1 PUSH2 0x1215 JUMP JUMPDEST PUSH1 0x40 MLOAD PUSH3 0x461BCD PUSH1 0xE5 SHL DUP2 MSTORE PUSH1 0x4 ADD PUSH2 0x236 SWAP1 PUSH2 0x151C JUMP JUMPDEST POP POP SWAP5 SWAP4 POP POP POP POP JUMP JUMPDEST PUSH1 0x0 DUP2 EXTCODEHASH DUP1 ISZERO DUP1 ISZERO SWAP1 PUSH2 0xBC0 JUMPI POP PUSH32 0xC5D2460186F7233C927E7DB2DCC703C0E500B653CA82273B7BFAD8045D85A470 DUP2 EQ ISZERO JUMPDEST SWAP4 SWAP3 POP POP POP JUMP JUMPDEST PUSH1 0x0 DUP1 PUSH2 0xBD3 DUP6 PUSH2 0x4ED JUMP JUMPDEST PUSH1 0x1 PUSH1 0x1 PUSH1 0xA0 SHL SUB DUP9 AND PUSH1 0x0 SWAP1 DUP2 MSTORE PUSH1 0x20 DUP2 DUP2 MSTORE PUSH1 0x40 DUP1 DUP4 KECCAK256 DUP6 DUP5 MSTORE SWAP1 SWAP2 MSTORE SWAP1 KECCAK256 SLOAD SWAP2 SWAP4 POP SWAP2 POP PUSH2 0xC06 SWAP1 DUP3 DUP7 DUP7 PUSH2 0xA97 JUMP JUMPDEST PUSH1 0x1 PUSH1 0x1 PUSH1 0xA0 SHL SUB SWAP1 SWAP7 AND PUSH1 0x0 SWAP1 DUP2 MSTORE PUSH1 0x20 DUP2 DUP2 MSTORE PUSH1 0x40 DUP1 DUP4 KECCAK256 SWAP5 DUP4 MSTORE SWAP4 SWAP1 MSTORE SWAP2 SWAP1 SWAP2 KECCAK256 SWAP5 SWAP1 SWAP5 SSTORE POP POP POP POP JUMP JUMPDEST DUP1 CALLDATALOAD PUSH1 0x1 PUSH1 0x1 PUSH1 0xA0 SHL SUB DUP2 AND DUP2 EQ PUSH2 0x1F9 JUMPI PUSH1 0x0 DUP1 REVERT JUMPDEST PUSH1 0x0 DUP3 PUSH1 0x1F DUP4 ADD SLT PUSH2 0xC5B JUMPI DUP1 DUP2 REVERT JUMPDEST DUP2 CALLDATALOAD PUSH2 0xC6E PUSH2 0xC69 DUP3 PUSH2 0x1614 JUMP JUMPDEST PUSH2 0x15F0 JUMP JUMPDEST DUP2 DUP2 MSTORE SWAP2 POP PUSH1 0x20 DUP1 DUP4 ADD SWAP1 DUP5 DUP2 ADD DUP2 DUP5 MUL DUP7 ADD DUP3 ADD DUP8 LT ISZERO PUSH2 0xC8F JUMPI PUSH1 0x0 DUP1 REVERT JUMPDEST PUSH1 0x0 JUMPDEST DUP5 DUP2 LT ISZERO PUSH2 0xCAE JUMPI DUP2 CALLDATALOAD DUP5 MSTORE SWAP3 DUP3 ADD SWAP3 SWAP1 DUP3 ADD SWAP1 PUSH1 0x1 ADD PUSH2 0xC92 JUMP JUMPDEST POP POP POP POP POP SWAP3 SWAP2 POP POP JUMP JUMPDEST PUSH1 0x0 DUP3 PUSH1 0x1F DUP4 ADD SLT PUSH2 0xCC9 JUMPI DUP1 DUP2 REVERT JUMPDEST DUP2 CALLDATALOAD PUSH8 0xFFFFFFFFFFFFFFFF DUP2 GT ISZERO PUSH2 0xCDD JUMPI INVALID JUMPDEST PUSH2 0xCF0 PUSH1 0x1F DUP3 ADD PUSH1 0x1F NOT AND PUSH1 0x20 ADD PUSH2 0x15F0 JUMP JUMPDEST SWAP2 POP DUP1 DUP3 MSTORE DUP4 PUSH1 0x20 DUP3 DUP6 ADD ADD GT ISZERO PUSH2 0xD07 JUMPI PUSH1 0x0 DUP1 REVERT JUMPDEST DUP1 PUSH1 0x20 DUP5 ADD PUSH1 0x20 DUP5 ADD CALLDATACOPY PUSH1 0x0 SWAP1 DUP3 ADD PUSH1 0x20 ADD MSTORE SWAP3 SWAP2 POP POP JUMP JUMPDEST PUSH1 0x0 DUP1 PUSH1 0x40 DUP4 DUP6 SUB SLT ISZERO PUSH2 0xD32 JUMPI DUP2 DUP3 REVERT JUMPDEST PUSH2 0xD3B DUP4 PUSH2 0xC34 JUMP JUMPDEST SWAP2 POP PUSH2 0xD49 PUSH1 0x20 DUP5 ADD PUSH2 0xC34 JUMP JUMPDEST SWAP1 POP SWAP3 POP SWAP3 SWAP1 POP JUMP JUMPDEST PUSH1 0x0 DUP1 PUSH1 0x0 DUP1 PUSH1 0x0 PUSH1 0xA0 DUP7 DUP9 SUB SLT ISZERO PUSH2 0xD69 JUMPI DUP1 DUP2 REVERT JUMPDEST PUSH2 0xD72 DUP7 PUSH2 0xC34 JUMP JUMPDEST SWAP5 POP PUSH2 0xD80 PUSH1 0x20 DUP8 ADD PUSH2 0xC34 JUMP JUMPDEST SWAP4 POP PUSH1 0x40 DUP7 ADD CALLDATALOAD PUSH8 0xFFFFFFFFFFFFFFFF DUP1 DUP3 GT ISZERO PUSH2 0xD9C JUMPI DUP3 DUP4 REVERT JUMPDEST PUSH2 0xDA8 DUP10 DUP4 DUP11 ADD PUSH2 0xC4B JUMP JUMPDEST SWAP5 POP PUSH1 0x60 DUP9 ADD CALLDATALOAD SWAP2 POP DUP1 DUP3 GT ISZERO PUSH2 0xDBD JUMPI DUP3 DUP4 REVERT JUMPDEST PUSH2 0xDC9 DUP10 DUP4 DUP11 ADD PUSH2 0xC4B JUMP JUMPDEST SWAP4 POP PUSH1 0x80 DUP9 ADD CALLDATALOAD SWAP2 POP DUP1 DUP3 GT ISZERO PUSH2 0xDDE JUMPI DUP3 DUP4 REVERT JUMPDEST POP PUSH2 0xDEB DUP9 DUP3 DUP10 ADD PUSH2 0xCB9 JUMP JUMPDEST SWAP2 POP POP SWAP3 SWAP6 POP SWAP3 SWAP6 SWAP1 SWAP4 POP JUMP JUMPDEST PUSH1 0x0 DUP1 PUSH1 0x0 DUP1 PUSH1 0x0 PUSH1 0xA0 DUP7 DUP9 SUB SLT ISZERO PUSH2 0xE0F JUMPI DUP1 DUP2 REVERT JUMPDEST PUSH2 0xE18 DUP7 PUSH2 0xC34 JUMP JUMPDEST SWAP5 POP PUSH2 0xE26 PUSH1 0x20 DUP8 ADD PUSH2 0xC34 JUMP JUMPDEST SWAP4 POP PUSH1 0x40 DUP7 ADD CALLDATALOAD SWAP3 POP PUSH1 0x60 DUP7 ADD CALLDATALOAD SWAP2 POP PUSH1 0x80 DUP7 ADD CALLDATALOAD PUSH8 0xFFFFFFFFFFFFFFFF DUP2 GT ISZERO PUSH2 0xE4F JUMPI DUP2 DUP3 REVERT JUMPDEST PUSH2 0xDEB DUP9 DUP3 DUP10 ADD PUSH2 0xCB9 JUMP JUMPDEST PUSH1 0x0 DUP1 PUSH1 0x40 DUP4 DUP6 SUB SLT ISZERO PUSH2 0xE6D JUMPI DUP2 DUP3 REVERT JUMPDEST PUSH2 0xE76 DUP4 PUSH2 0xC34 JUMP JUMPDEST SWAP2 POP PUSH1 0x20 DUP4 ADD CALLDATALOAD DUP1 ISZERO ISZERO DUP2 EQ PUSH2 0xE8A JUMPI DUP2 DUP3 REVERT JUMPDEST DUP1 SWAP2 POP POP SWAP3 POP SWAP3 SWAP1 POP JUMP JUMPDEST PUSH1 0x0 DUP1 PUSH1 0x40 DUP4 DUP6 SUB SLT ISZERO PUSH2 0xEA7 JUMPI DUP2 DUP3 REVERT JUMPDEST PUSH2 0xEB0 DUP4 PUSH2 0xC34 JUMP JUMPDEST SWAP5 PUSH1 0x20 SWAP4 SWAP1 SWAP4 ADD CALLDATALOAD SWAP4 POP POP POP JUMP JUMPDEST PUSH1 0x0 DUP1 PUSH1 0x40 DUP4 DUP6 SUB SLT ISZERO PUSH2 0xED0 JUMPI DUP2 DUP3 REVERT JUMPDEST DUP3 CALLDATALOAD PUSH8 0xFFFFFFFFFFFFFFFF DUP1 DUP3 GT ISZERO PUSH2 0xEE7 JUMPI DUP4 DUP5 REVERT JUMPDEST DUP2 DUP6 ADD SWAP2 POP DUP6 PUSH1 0x1F DUP4 ADD SLT PUSH2 0xEFA JUMPI DUP4 DUP5 REVERT JUMPDEST DUP2 CALLDATALOAD PUSH2 0xF08 PUSH2 0xC69 DUP3 PUSH2 0x1614 JUMP JUMPDEST DUP1 DUP3 DUP3 MSTORE PUSH1 0x20 DUP1 DUP4 ADD SWAP3 POP DUP1 DUP7 ADD DUP11 DUP3 DUP4 DUP8 MUL DUP10 ADD ADD GT ISZERO PUSH2 0xF28 JUMPI DUP9 DUP10 REVERT JUMPDEST DUP9 SWAP7 POP JUMPDEST DUP5 DUP8 LT ISZERO PUSH2 0xF51 JUMPI PUSH2 0xF3D DUP2 PUSH2 0xC34 JUMP JUMPDEST DUP5 MSTORE PUSH1 0x1 SWAP7 SWAP1 SWAP7 ADD SWAP6 SWAP3 DUP2 ADD SWAP3 DUP2 ADD PUSH2 0xF2C JUMP JUMPDEST POP SWAP1 SWAP7 POP DUP8 ADD CALLDATALOAD SWAP4 POP POP POP DUP1 DUP3 GT ISZERO PUSH2 0xF68 JUMPI DUP3 DUP4 REVERT JUMPDEST POP PUSH2 0xF75 DUP6 DUP3 DUP7 ADD PUSH2 0xC4B JUMP JUMPDEST SWAP2 POP POP SWAP3 POP SWAP3 SWAP1 POP JUMP JUMPDEST PUSH1 0x0 PUSH1 0x20 DUP3 DUP5 SUB SLT ISZERO PUSH2 0xF90 JUMPI DUP1 DUP2 REVERT JUMPDEST DUP2 CALLDATALOAD PUSH2 0xBC0 DUP2 PUSH2 0x1632 JUMP JUMPDEST PUSH1 0x0 PUSH1 0x20 DUP3 DUP5 SUB SLT ISZERO PUSH2 0xFAC JUMPI DUP1 DUP2 REVERT JUMPDEST DUP2 MLOAD PUSH2 0xBC0 DUP2 PUSH2 0x1632 JUMP JUMPDEST PUSH1 0x0 PUSH1 0x20 DUP3 DUP5 SUB SLT ISZERO PUSH2 0xFC8 JUMPI DUP1 DUP2 REVERT JUMPDEST POP CALLDATALOAD SWAP2 SWAP1 POP JUMP JUMPDEST PUSH1 0x0 DUP1 PUSH1 0x40 DUP4 DUP6 SUB SLT ISZERO PUSH2 0xFE1 JUMPI DUP2 DUP3 REVERT JUMPDEST POP POP DUP1 CALLDATALOAD SWAP3 PUSH1 0x20 SWAP1 SWAP2 ADD CALLDATALOAD SWAP2 POP JUMP JUMPDEST PUSH1 0x0 DUP2 MLOAD DUP1 DUP5 MSTORE PUSH1 0x20 DUP1 DUP6 ADD SWAP5 POP DUP1 DUP5 ADD DUP4 JUMPDEST DUP4 DUP2 LT ISZERO PUSH2 0x101F JUMPI DUP2 MLOAD DUP8 MSTORE SWAP6 DUP3 ADD SWAP6 SWAP1 DUP3 ADD SWAP1 PUSH1 0x1 ADD PUSH2 0x1003 JUMP JUMPDEST POP SWAP5 SWAP6 SWAP5 POP POP POP POP POP JUMP JUMPDEST PUSH1 0x0 DUP2 MLOAD DUP1 DUP5 MSTORE DUP2 JUMPDEST DUP2 DUP2 LT ISZERO PUSH2 0x104F JUMPI PUSH1 0x20 DUP2 DUP6 ADD DUP2 ADD MLOAD DUP7 DUP4 ADD DUP3 ADD MSTORE ADD PUSH2 0x1033 JUMP JUMPDEST DUP2 DUP2 GT ISZERO PUSH2 0x1060 JUMPI DUP3 PUSH1 0x20 DUP4 DUP8 ADD ADD MSTORE JUMPDEST POP PUSH1 0x1F ADD PUSH1 0x1F NOT AND SWAP3 SWAP1 SWAP3 ADD PUSH1 0x20 ADD SWAP3 SWAP2 POP POP JUMP JUMPDEST PUSH1 0x1 PUSH1 0x1 PUSH1 0xA0 SHL SUB DUP7 DUP2 AND DUP3 MSTORE DUP6 AND PUSH1 0x20 DUP3 ADD MSTORE PUSH1 0xA0 PUSH1 0x40 DUP3 ADD DUP2 SWAP1 MSTORE PUSH1 0x0 SWAP1 PUSH2 0x10A1 SWAP1 DUP4 ADD DUP7 PUSH2 0xFF0 JUMP JUMPDEST DUP3 DUP2 SUB PUSH1 0x60 DUP5 ADD MSTORE PUSH2 0x10B3 DUP2 DUP7 PUSH2 0xFF0 JUMP JUMPDEST SWAP1 POP DUP3 DUP2 SUB PUSH1 0x80 DUP5 ADD MSTORE PUSH2 0x10C7 DUP2 DUP6 PUSH2 0x102A JUMP JUMPDEST SWAP9 SWAP8 POP POP POP POP POP POP POP POP JUMP JUMPDEST PUSH1 0x1 PUSH1 0x1 PUSH1 0xA0 SHL SUB DUP7 DUP2 AND DUP3 MSTORE DUP6 AND PUSH1 0x20 DUP3 ADD MSTORE PUSH1 0x40 DUP2 ADD DUP5 SWAP1 MSTORE PUSH1 0x60 DUP2 ADD DUP4 SWAP1 MSTORE PUSH1 0xA0 PUSH1 0x80 DUP3 ADD DUP2 SWAP1 MSTORE PUSH1 0x0 SWAP1 PUSH2 0x110D SWAP1 DUP4 ADD DUP5 PUSH2 0x102A JUMP JUMPDEST SWAP8 SWAP7 POP POP POP POP POP POP POP JUMP JUMPDEST PUSH1 0x0 PUSH1 0x20 DUP3 MSTORE PUSH2 0xBC0 PUSH1 0x20 DUP4 ADD DUP5 PUSH2 0xFF0 JUMP JUMPDEST PUSH1 0x0 PUSH1 0x40 DUP3 MSTORE PUSH2 0x113E PUSH1 0x40 DUP4 ADD DUP6 PUSH2 0xFF0 JUMP JUMPDEST DUP3 DUP2 SUB PUSH1 0x20 DUP5 ADD MSTORE PUSH2 0x1C1 DUP2 DUP6 PUSH2 0xFF0 JUMP JUMPDEST SWAP1 ISZERO ISZERO DUP2 MSTORE PUSH1 0x20 ADD SWAP1 JUMP JUMPDEST PUSH1 0x20 DUP1 DUP3 MSTORE PUSH1 0x39 SWAP1 DUP3 ADD MSTORE PUSH32 0x455243313135355061636B656442616C616E63652362616C616E63654F664261 PUSH1 0x40 DUP3 ADD MSTORE PUSH32 0x7463683A20494E56414C49445F41525241595F4C454E47544800000000000000 PUSH1 0x60 DUP3 ADD MSTORE PUSH1 0x80 ADD SWAP1 JUMP JUMPDEST PUSH1 0x20 DUP1 DUP3 MSTORE PUSH1 0x3D SWAP1 DUP3 ADD MSTORE PUSH32 0x455243313135355061636B656442616C616E6365237361666542617463685472 PUSH1 0x40 DUP3 ADD MSTORE PUSH32 0x616E7366657246726F6D3A20494E56414C49445F524543495049454E54000000 PUSH1 0x60 DUP3 ADD MSTORE PUSH1 0x80 ADD SWAP1 JUMP JUMPDEST PUSH1 0x20 DUP1 DUP3 MSTORE PUSH1 0x33 SWAP1 DUP3 ADD MSTORE PUSH32 0x455243313135355061636B656442616C616E6365235F76696577557064617465 PUSH1 0x40 DUP3 ADD MSTORE PUSH19 0x42696E56616C75653A20554E444552464C4F57 PUSH1 0x68 SHL PUSH1 0x60 DUP3 ADD MSTORE PUSH1 0x80 ADD SWAP1 JUMP JUMPDEST PUSH1 0x20 DUP1 DUP3 MSTORE PUSH1 0x37 SWAP1 DUP3 ADD MSTORE PUSH32 0x455243313135355061636B656442616C616E636523736166655472616E736665 PUSH1 0x40 DUP3 ADD MSTORE PUSH32 0x7246726F6D3A20494E56414C49445F4F50455241544F52000000000000000000 PUSH1 0x60 DUP3 ADD MSTORE PUSH1 0x80 ADD SWAP1 JUMP JUMPDEST PUSH1 0x20 DUP1 DUP3 MSTORE PUSH1 0x42 SWAP1 DUP3 ADD MSTORE PUSH32 0x455243313135355061636B656442616C616E6365235F73616665426174636854 PUSH1 0x40 DUP3 ADD MSTORE PUSH32 0x72616E7366657246726F6D3A20494E56414C49445F4152524159535F4C454E47 PUSH1 0x60 DUP3 ADD MSTORE PUSH2 0xA89 PUSH1 0xF3 SHL PUSH1 0x80 DUP3 ADD MSTORE PUSH1 0xA0 ADD SWAP1 JUMP JUMPDEST PUSH1 0x20 DUP1 DUP3 MSTORE PUSH1 0x4C SWAP1 DUP3 ADD MSTORE PUSH32 0x455243313135355061636B656442616C616E6365235F63616C6C6F6E45524331 PUSH1 0x40 DUP3 ADD MSTORE PUSH32 0x313535426174636852656365697665643A20494E56414C49445F4F4E5F524543 PUSH1 0x60 DUP3 ADD MSTORE PUSH12 0x454956455F4D455353414745 PUSH1 0xA0 SHL PUSH1 0x80 DUP3 ADD MSTORE PUSH1 0xA0 ADD SWAP1 JUMP JUMPDEST PUSH1 0x20 DUP1 DUP3 MSTORE PUSH1 0x3C SWAP1 DUP3 ADD MSTORE PUSH32 0x455243313135355061636B656442616C616E6365237361666542617463685472 PUSH1 0x40 DUP3 ADD MSTORE PUSH32 0x616E7366657246726F6D3A20494E56414C49445F4F50455241544F5200000000 PUSH1 0x60 DUP3 ADD MSTORE PUSH1 0x80 ADD SWAP1 JUMP JUMPDEST PUSH1 0x20 DUP1 DUP3 MSTORE PUSH1 0x36 SWAP1 DUP3 ADD MSTORE PUSH32 0x455243313135355061636B656442616C616E6365235F73616665426174636854 PUSH1 0x40 DUP3 ADD MSTORE PUSH22 0x72616E7366657246726F6D3A20554E444552464C4F57 PUSH1 0x50 SHL PUSH1 0x60 DUP3 ADD MSTORE PUSH1 0x80 ADD SWAP1 JUMP JUMPDEST PUSH1 0x20 DUP1 DUP3 MSTORE PUSH1 0x47 SWAP1 DUP3 ADD MSTORE PUSH32 0x455243313135355061636B656442616C616E6365235F63616C6C6F6E45524331 PUSH1 0x40 DUP3 ADD MSTORE PUSH32 0x31353552656365697665643A20494E56414C49445F4F4E5F524543454956455F PUSH1 0x60 DUP3 ADD MSTORE PUSH7 0x4D455353414745 PUSH1 0xC8 SHL PUSH1 0x80 DUP3 ADD MSTORE PUSH1 0xA0 ADD SWAP1 JUMP JUMPDEST PUSH1 0x20 DUP1 DUP3 MSTORE PUSH1 0x38 SWAP1 DUP3 ADD MSTORE PUSH32 0x455243313135355061636B656442616C616E636523736166655472616E736665 PUSH1 0x40 DUP3 ADD MSTORE PUSH32 0x7246726F6D3A20494E56414C49445F524543495049454E540000000000000000 PUSH1 0x60 DUP3 ADD MSTORE PUSH1 0x80 ADD SWAP1 JUMP JUMPDEST PUSH1 0x20 DUP1 DUP3 MSTORE PUSH1 0x45 SWAP1 DUP3 ADD MSTORE PUSH32 0x455243313135355061636B656442616C616E6365235F76696577557064617465 PUSH1 0x40 DUP3 ADD MSTORE PUSH32 0x42696E56616C75653A20494E56414C49445F42494E5F57524954455F4F504552 PUSH1 0x60 DUP3 ADD MSTORE PUSH5 0x20AA24A7A7 PUSH1 0xD9 SHL PUSH1 0x80 DUP3 ADD MSTORE PUSH1 0xA0 ADD SWAP1 JUMP JUMPDEST PUSH1 0x20 DUP1 DUP3 MSTORE PUSH1 0x32 SWAP1 DUP3 ADD MSTORE PUSH32 0x455243313135355061636B656442616C616E6365235F76696577557064617465 PUSH1 0x40 DUP3 ADD MSTORE PUSH18 0x42696E56616C75653A204F564552464C4F57 PUSH1 0x70 SHL PUSH1 0x60 DUP3 ADD MSTORE PUSH1 0x80 ADD SWAP1 JUMP JUMPDEST SWAP1 DUP2 MSTORE PUSH1 0x20 ADD SWAP1 JUMP JUMPDEST SWAP2 DUP3 MSTORE PUSH1 0x20 DUP3 ADD MSTORE PUSH1 0x40 ADD SWAP1 JUMP JUMPDEST PUSH1 0x40 MLOAD DUP2 DUP2 ADD PUSH8 0xFFFFFFFFFFFFFFFF DUP2 GT DUP3 DUP3 LT OR ISZERO PUSH2 0x160C JUMPI INVALID JUMPDEST PUSH1 0x40 MSTORE SWAP2 SWAP1 POP JUMP JUMPDEST PUSH1 0x0 PUSH8 0xFFFFFFFFFFFFFFFF DUP3 GT ISZERO PUSH2 0x1628 JUMPI INVALID JUMPDEST POP PUSH1 0x20 SWAP1 DUP2 MUL ADD SWAP1 JUMP JUMPDEST PUSH1 0x1 PUSH1 0x1 PUSH1 0xE0 SHL SUB NOT DUP2 AND DUP2 EQ PUSH2 0x1648 JUMPI PUSH1 0x0 DUP1 REVERT JUMPDEST POP JUMP INVALID LOG2 PUSH5 0x6970667358 0x22 SLT KECCAK256 0xEF 0xE8 0xE8 0x4F ADD PUSH10 0x858D19925D7A911D98B6 0x23 MSTORE8 0x4E PUSH24 0x245ACA1487236E2D5FCA495364736F6C6343000704003300 "
		},
		"gasEstimates": {
			"creation": {
				"codeDepositCost": "1152200",
				"executionCost": "1200",
				"totalCost": "1153400"
			},
			"external": {
				"balanceOf(address,uint256)": "1521",
				"balanceOfBatch(address[],uint256[])": "infinite",
				"getIDBinIndex(uint256)": "368",
				"getValueInBin(uint256,uint256)": "424",
				"isApprovedForAll(address,address)": "infinite",
				"safeBatchTransferFrom(address,address,uint256[],uint256[],bytes)": "infinite",
				"safeTransferFrom(address,address,uint256,uint256,bytes)": "infinite",
				"setApprovalForAll(address,bool)": "23218",
				"supportsInterface(bytes4)": "547"
			},
			"internal": {
				"_callonERC1155BatchReceived(address,address,uint256[] memory,uint256[] memory,uint256,bytes memory)": "infinite",
				"_callonERC1155Received(address,address,uint256,uint256,uint256,bytes memory)": "infinite",
				"_safeBatchTransferFrom(address,address,uint256[] memory,uint256[] memory)": "infinite",
				"_safeTransferFrom(address,address,uint256,uint256)": "infinite",
				"_updateIDBalance(address,uint256,uint256,enum ERC1155PackedBalance.Operations)": "infinite",
				"_viewUpdateBinValue(uint256,uint256,uint256,enum ERC1155PackedBalance.Operations)": "infinite"
			}
		},
		"methodIdentifiers": {
			"balanceOf(address,uint256)": "00fdd58e",
			"balanceOfBatch(address[],uint256[])": "4e1273f4",
			"getIDBinIndex(uint256)": "db90e83c",
			"getValueInBin(uint256,uint256)": "eaec5f81",
			"isApprovedForAll(address,address)": "e985e9c5",
			"safeBatchTransferFrom(address,address,uint256[],uint256[],bytes)": "2eb2c2d6",
			"safeTransferFrom(address,address,uint256,uint256,bytes)": "f242432a",
			"setApprovalForAll(address,bool)": "a22cb465",
			"supportsInterface(bytes4)": "01ffc9a7"
		}
	},
	"abi": [
		{
			"anonymous": false,
			"inputs": [
				{
					"indexed": true,
					"internalType": "address",
					"name": "_owner",
					"type": "address"
				},
				{
					"indexed": true,
					"internalType": "address",
					"name": "_operator",
					"type": "address"
				},
				{
					"indexed": false,
					"internalType": "bool",
					"name": "_approved",
					"type": "bool"
				}
			],
			"name": "ApprovalForAll",
			"type": "event"
		},
		{
			"anonymous": false,
			"inputs": [
				{
					"indexed": true,
					"internalType": "address",
					"name": "_operator",
					"type": "address"
				},
				{
					"indexed": true,
					"internalType": "address",
					"name": "_from",
					"type": "address"
				},
				{
					"indexed": true,
					"internalType": "address",
					"name": "_to",
					"type": "address"
				},
				{
					"indexed": false,
					"internalType": "uint256[]",
					"name": "_ids",
					"type": "uint256[]"
				},
				{
					"indexed": false,
					"internalType": "uint256[]",
					"name": "_amounts",
					"type": "uint256[]"
				}
			],
			"name": "TransferBatch",
			"type": "event"
		},
		{
			"anonymous": false,
			"inputs": [
				{
					"indexed": true,
					"internalType": "address",
					"name": "_operator",
					"type": "address"
				},
				{
					"indexed": true,
					"internalType": "address",
					"name": "_from",
					"type": "address"
				},
				{
					"indexed": true,
					"internalType": "address",
					"name": "_to",
					"type": "address"
				},
				{
					"indexed": false,
					"internalType": "uint256",
					"name": "_id",
					"type": "uint256"
				},
				{
					"indexed": false,
					"internalType": "uint256",
					"name": "_amount",
					"type": "uint256"
				}
			],
			"name": "TransferSingle",
			"type": "event"
		},
		{
			"inputs": [
				{
					"internalType": "address",
					"name": "_owner",
					"type": "address"
				},
				{
					"internalType": "uint256",
					"name": "_id",
					"type": "uint256"
				}
			],
			"name": "balanceOf",
			"outputs": [
				{
					"internalType": "uint256",
					"name": "",
					"type": "uint256"
				}
			],
			"stateMutability": "view",
			"type": "function"
		},
		{
			"inputs": [
				{
					"internalType": "address[]",
					"name": "_owners",
					"type": "address[]"
				},
				{
					"internalType": "uint256[]",
					"name": "_ids",
					"type": "uint256[]"
				}
			],
			"name": "balanceOfBatch",
			"outputs": [
				{
					"internalType": "uint256[]",
					"name": "",
					"type": "uint256[]"
				}
			],
			"stateMutability": "view",
			"type": "function"
		},
		{
			"inputs": [
				{
					"internalType": "uint256",
					"name": "_id",
					"type": "uint256"
				}
			],
			"name": "getIDBinIndex",
			"outputs": [
				{
					"internalType": "uint256",
					"name": "bin",
					"type": "uint256"
				},
				{
					"internalType": "uint256",
					"name": "index",
					"type": "uint256"
				}
			],
			"stateMutability": "pure",
			"type": "function"
		},
		{
			"inputs": [
				{
					"internalType": "uint256",
					"name": "_binValues",
					"type": "uint256"
				},
				{
					"internalType": "uint256",
					"name": "_index",
					"type": "uint256"
				}
			],
			"name": "getValueInBin",
			"outputs": [
				{
					"internalType": "uint256",
					"name": "",
					"type": "uint256"
				}
			],
			"stateMutability": "pure",
			"type": "function"
		},
		{
			"inputs": [
				{
					"internalType": "address",
					"name": "_owner",
					"type": "address"
				},
				{
					"internalType": "address",
					"name": "_operator",
					"type": "address"
				}
			],
			"name": "isApprovedForAll",
			"outputs": [
				{
					"internalType": "bool",
					"name": "isOperator",
					"type": "bool"
				}
			],
			"stateMutability": "view",
			"type": "function"
		},
		{
			"inputs": [
				{
					"internalType": "address",
					"name": "_from",
					"type": "address"
				},
				{
					"internalType": "address",
					"name": "_to",
					"type": "address"
				},
				{
					"internalType": "uint256[]",
					"name": "_ids",
					"type": "uint256[]"
				},
				{
					"internalType": "uint256[]",
					"name": "_amounts",
					"type": "uint256[]"
				},
				{
					"internalType": "bytes",
					"name": "_data",
					"type": "bytes"
				}
			],
			"name": "safeBatchTransferFrom",
			"outputs": [],
			"stateMutability": "nonpayable",
			"type": "function"
		},
		{
			"inputs": [
				{
					"internalType": "address",
					"name": "_from",
					"type": "address"
				},
				{
					"internalType": "address",
					"name": "_to",
					"type": "address"
				},
				{
					"internalType": "uint256",
					"name": "_id",
					"type": "uint256"
				},
				{
					"internalType": "uint256",
					"name": "_amount",
					"type": "uint256"
				},
				{
					"internalType": "bytes",
					"name": "_data",
					"type": "bytes"
				}
			],
			"name": "safeTransferFrom",
			"outputs": [],
			"stateMutability": "nonpayable",
			"type": "function"
		},
		{
			"inputs": [
				{
					"internalType": "address",
					"name": "_operator",
					"type": "address"
				},
				{
					"internalType": "bool",
					"name": "_approved",
					"type": "bool"
				}
			],
			"name": "setApprovalForAll",
			"outputs": [],
			"stateMutability": "nonpayable",
			"type": "function"
		},
		{
			"inputs": [
				{
					"internalType": "bytes4",
					"name": "_interfaceID",
					"type": "bytes4"
				}
			],
			"name": "supportsInterface",
			"outputs": [
				{
					"internalType": "bool",
					"name": "",
					"type": "bool"
				}
			],
			"stateMutability": "pure",
			"type": "function"
		}
	]
}