{
	"data": {
		"bytecode": {
			"linkReferences": {},
			"object": "608060405234801561001057600080fd5b50612daa806100206000396000f3fe608060405234801561001057600080fd5b50600436106100e95760003560e01c8063ce0b514b1161008c578063eaec5f8111610066578063eaec5f81146101ec578063f242432a146101ff578063f5d4c82014610212578063fa4e12d714610225576100e9565b8063ce0b514b146101a5578063db90e83c146101b8578063e985e9c5146101d9576100e9565b80632eb2c2d6116100c85780632eb2c2d61461014a5780634e1273f41461015f578063a22cb4651461017f578063a3d4926e14610192576100e9565b8062fdd58e146100ee57806301ffc9a7146101175780632d0335ab14610137575b600080fd5b6101016100fc366004611e0f565b610238565b60405161010e9190612c70565b60405180910390f35b61012a610125366004611f18565b610280565b60405161010e91906122a7565b610101610145366004611a1b565b6102b4565b61015d610158366004611b74565b6102cf565b005b61017261016d366004611e3a565b610357565b60405161010e919061226f565b61015d61018d366004611d66565b61054e565b61015d6101a0366004611ab8565b6105bd565b61015d6101b3366004611c95565b61070a565b6101cb6101c636600461200c565b6107c2565b60405161010e929190612c79565b61012a6101e7366004611a80565b6107cf565b6101016101fa366004612024565b6107fd565b61015d61020d366004611d0c565b610810565b61015d610220366004611c1d565b610888565b61012a610233366004611d93565b61098d565b6000806000610246846107c2565b6001600160a01b038716600090815260208181526040808320858452909152902054919350915061027790826107fd565b95945050505050565b60006001600160e01b03198216636cdb3d1360e11b14156102a3575060016102af565b6102ac82610d5b565b90505b919050565b6001600160a01b031660009081526002602052604090205490565b336001600160a01b03861614806102eb57506102eb85336107cf565b6103105760405162461bcd60e51b81526004016103079061281b565b60405180910390fd5b6001600160a01b0384166103365760405162461bcd60e51b8152600401610307906123e5565b61034285858585610d74565b610350858585855a86611018565b5050505050565b8151815160609190811461037d5760405162461bcd60e51b815260040161030790612388565b60008061039d8560008151811061039057fe5b60200260200101516107c2565b915091506000806000886000815181106103b357fe5b60200260200101516001600160a01b03166001600160a01b03168152602001908152602001600020600084815260200190815260200160002054905060008390506060856001600160401b038111801561040c57600080fd5b50604051908082528060200260200182016040528015610436578160200160208202803683370190505b50905061044383856107fd565b8160008151811061045057fe5b602090810291909101015260015b868110156105415761047589828151811061039057fe5b909650945082861415806104c4575089818151811061049057fe5b60200260200101516001600160a01b03168a60018303815181106104b057fe5b60200260200101516001600160a01b031614155b15610518576000808b83815181106104d857fe5b60200260200101516001600160a01b03166001600160a01b0316815260200190815260200160002060008781526020019081526020016000205493508592505b61052284866107fd565b82828151811061052e57fe5b602090810291909101015260010161045e565b5098975050505050505050565b3360008181526001602090815260408083206001600160a01b038716808552925291829020805460ff191685151517905590519091907f17307eab39ab6107e8899845ad3d59bd9653f200f220920489ca2b5937696c31906105b19085906122a7565b60405180910390a35050565b6001600160a01b0385166105e35760405162461bcd60e51b815260040161030790612a31565b60606105ed61185a565b60606106a089857fa3d4926e8cf8fe8e020cd29f514c256bc2eec62aa2337e415f1a33a4828af5a060001b8c8c8c60405160200161062b91906120ab565b604051602081830303815290604052805190602001208c60405160200161065291906120ab565b604051602081830303815290604052805190602001208c610674576000610677565b60015b60405160200161068c969594939291906122c9565b6040516020818303038152906040526110eb565b90506106ae89898989610d74565b84156106f157808060200190518101906106c89190611fd8565b80945081935050506106e289898989866020015188611018565b6106ec898361124e565b6106ff565b6106ff898989895a86611018565b505050505050505050565b6001600160a01b0385166107305760405162461bcd60e51b81526004016103079061290f565b606061073a61185a565b606061077289857fce0b514b3931bdbe4d5d44e4f035afe7113767b7db71949271f6a62d9c60f558828c8c8c8c610674576000610677565b90506107808989898961145d565b84156107b4578080602001905181019061079a9190611fd8565b80945081935050506106e2898989898660200151886114d4565b6106ff898989895a866114d4565b6008810491600790911690565b6001600160a01b03918216600090815260016020908152604080832093909416825291909152205460ff1690565b6020810282901c63ffffffff1692915050565b336001600160a01b038616148061082c575061082c85336107cf565b6108485760405162461bcd60e51b815260040161030790612655565b6001600160a01b03841661086e5760405162461bcd60e51b815260040161030790612a9c565b61087a8585858561145d565b610350858585855a866114d4565b60606108e486837ff5d4c820494c8595de274c7ff619bead38aac4fbc3d143b5bf956aa4b84fa5248289896108be5760006108c1565b60015b896108cd5760006108d0565b60015b60405160200161068c9594939291906122fd565b6001600160a01b038781166000818152600160209081526040808320948b168084529490915290819020805460ff19168915151790555192935090917f17307eab39ab6107e8899845ad3d59bd9653f200f220920489ca2b5937696c319061094d9088906122a7565b60405180910390a382156109855761096361185a565b818060200190518101906109779190611fa6565b9050610983878261124e565b505b505050505050565b6000808251116109af5760405162461bcd60e51b8152600401610307906129da565b6001600160a01b0385166109d55760405162461bcd60e51b8152600401610307906128ce565b60006109e0836115a7565b60f81c905060058110610a055760405162461bcd60e51b8152600401610307906125ac565b60008160ff166005811115610a1657fe5b9050600080808080856005811115610a2a57fe5b1415610a485760405162461bcd60e51b8152600401610307906126b2565b6001856005811115610a5657fe5b1415610b20578751606114610a7d5760405162461bcd60e51b8152600401610307906127d0565b610a888860006115f5565b9250610a958860206115f5565b915087604081518110610aa457fe5b602001015160f81c60f81b60f81c935060018a85858560405160008152602001604052604051610ad79493929190612345565b6020604051602081039080840390855afa158015610af9573d6000803e3d6000fd5b5050604051601f1901516001600160a01b038d81169116149750610d539650505050505050565b6002856005811115610b2e57fe5b1415610bd5578751606114610b555760405162461bcd60e51b8152600401610307906127d0565b610b608860006115f5565b9250610b6d8860206115f5565b915087604081518110610b7c57fe5b602001015160f81c60f81b60f81c935060018a604051602001610b9f919061213f565b6040516020818303038152906040528051906020012085858560405160008152602001604052604051610ad79493929190612345565b6003856005811115610be357fe5b1415610c88576040516320c13b0b60e01b81526001600160a01b038c16906320c13b0b90610c17908c908c90600401612363565b60206040518083038186803b158015610c2f57600080fd5b505afa158015610c43573d6000803e3d6000fd5b505050506040513d601f19601f82011682018060405250810190610c679190611f34565b6001600160e01b0319166320c13b0b60e01b149650610d5395505050505050565b6004856005811115610c9657fe5b1415610d3b57604051630b135d3f60e11b81526001600160a01b038c1690631626ba7e90610cca908d908c9060040161232c565b60206040518083038186803b158015610ce257600080fd5b505afa158015610cf6573d6000803e3d6000fd5b505050506040513d601f19601f82011682018060405250810190610d1a9190611f34565b6001600160e01b031916630b135d3f60e11b149650610d5395505050505050565b60405162461bcd60e51b8152600401610307906125ac565b949350505050565b6001600160e01b031981166301ffc9a760e01b14919050565b815181518114610d965760405162461bcd60e51b8152600401610307906126f6565b836001600160a01b0316856001600160a01b031614158015610db85750600081115b15610f5657600080610dd08560008151811061039057fe5b6001600160a01b038916600090815260208181526040808320858452909152812054875193955091935091610e1b9190849088908590610e0c57fe5b60200260200101516001611624565b6001600160a01b03881660009081526020818152604080832087845290915281205487519293509091610e649190859089908590610e5557fe5b60200260200101516000611624565b90508360015b86811015610f1157610e8189828151811061039057fe5b9096509450818614610ee3576001600160a01b038b811660009081526020818152604080832086845280835281842098909855928d16825281815282822094825284815282822095909555878152948452808520549290935291909220549084905b610ef484868a8481518110610e0c57fe5b9350610f0783868a8481518110610e5557fe5b9250600101610e6a565b50506001600160a01b03808a16600090815260208181526040808320888452825280832095909555918a16815280825283812095815294905292209190915550610fba565b60005b81811015610fb857828181518110610f6d57fe5b6020026020010151610f9287868481518110610f8557fe5b6020026020010151610238565b1015610fb05760405162461bcd60e51b815260040161030790612878565b600101610f59565b505b836001600160a01b0316856001600160a01b0316336001600160a01b03167f4a39dc06d4c0dbc64b70af90fd698a233a518aa5d07e595d983b8c0526c8f7fb8686604051611009929190612282565b60405180910390a45050505050565b61102a856001600160a01b031661171a565b15610985576000856001600160a01b031663bc197c8184338a8989886040518763ffffffff1660e01b8152600401611066959493929190612170565b602060405180830381600088803b15801561108057600080fd5b5087f1158015611094573d6000803e3d6000fd5b50505050506040513d601f19601f820116820180604052508101906110b99190611f34565b90506001600160e01b0319811663bc197c8160e01b146109835760405162461bcd60e51b81526004016103079061275e565b606080838060200190518101906111029190611f50565b6001600160a01b0387166000908152600260205260408120549194509192509061112d8360416115f5565b905081811080159061114157508160640181105b61115d5760405162461bcd60e51b8152600401610307906124fc565b60006111998683878051906020012060405160200161117e939291906120e1565b60405160208183030381529060405280519060200120611754565b905060608683876040516020016111b293929190612108565b60408051601f198184030181528282526001600160a01b038c166000818152600260205292909220600187019081905590935090917fb861b7bdbe611a846ab271b8d2810391bc8b5a968f390c322438ecab66bccf599161121291612c70565b60405180910390a26112268983838861098d565b6112425760405162461bcd60e51b8152600401610307906125f7565b50505050509392505050565b600061125d82606001516115a7565b60f81c9050600281106112825760405162461bcd60e51b815260040161030790612af9565b60008160ff16600281111561129357fe5b83516040850151919250600091829182916001600160a01b0316156112bc5786604001516112be565b335b925060008560028111156112ce57fe5b141561139a5786606001518060200190518101906112ec9190611a53565b90945091506001600160a01b0384163014156113305761130e8884848461145d565b61132b8884845a85604051806020016040528060008152506114d4565b611395565b604051637921219560e11b81526001600160a01b0385169063f242432a90611362908b90879087908790600401612237565b600060405180830381600087803b15801561137c57600080fd5b505af1158015611390573d6000803e3d6000fd5b505050505b611453565b86606001518060200190518101906113b29190611a37565b6040516323b872dd60e01b81529094506001600160a01b038516906323b872dd906113e5908b9087908690600401612213565b602060405180830381600087803b1580156113ff57600080fd5b505af1158015611413573d6000803e3d6000fd5b505050506040513d601f19601f820116820180604052508101906114379190611efc565b6114535760405162461bcd60e51b815260040161030790612442565b5050505050505050565b61146a84838360016117ed565b61147783838360006117ed565b826001600160a01b0316846001600160a01b0316336001600160a01b03167fc3d58168c5ae7397731d063d5bbf3d657854427343f4c083240f7aacaa2d0f6285856040516114c6929190612c79565b60405180910390a450505050565b6114e6856001600160a01b031661171a565b15610985576000856001600160a01b031663f23a6e6184338a8989886040518763ffffffff1660e01b81526004016115229594939291906121ce565b602060405180830381600088803b15801561153c57600080fd5b5087f1158015611550573d6000803e3d6000fd5b50505050506040513d601f19601f820116820180604052508101906115759190611f34565b90506001600160e01b0319811663f23a6e6160e01b146109835760405162461bcd60e51b81526004016103079061296d565b6000808251116115c95760405162461bcd60e51b81526004016103079061249f565b816001835103815181106115d957fe5b0160200151825160001901909252506001600160f81b03191690565b6000816020018351101561161b5760405162461bcd60e51b815260040161030790612b56565b50016020015190565b60006020840263ffffffff8284600181111561163c57fe5b14156116985784821b87019250868310156116695760405162461bcd60e51b815260040161030790612c1e565b64010000000087831c82168601106116935760405162461bcd60e51b815260040161030790612c1e565b611710565b60018460018111156116a657fe5b14156116f85784821b87039250868311156116d35760405162461bcd60e51b815260040161030790612559565b84818389901c1610156116935760405162461bcd60e51b815260040161030790612559565b60405162461bcd60e51b815260040161030790612bb3565b5050949350505050565b6000813f801580159061174d57507fc5d2460186f7233c927e7db2dcc703c0e500b653ca82273b7bfad8045d85a4708114155b9392505050565b600060405180604001604052806002815260200161190160f01b8152507f035aff83d86937d35b32e04f0ddc6ff469290eef2f1b692d8a815c89404d474960001b306040516020016117a79291906122b2565b60405160208183030381529060405280519060200120836040516020016117d0939291906120e1565b604051602081830303815290604052805190602001209050919050565b6000806117f9856107c2565b6001600160a01b038816600090815260208181526040808320858452909152902054919350915061182c90828686611624565b6001600160a01b03909616600090815260208181526040808320948352939052919091209490945550505050565b6040518060800160405280600081526020016000815260200160006001600160a01b03168152602001606081525090565b600082601f83011261189b578081fd5b81356118ae6118a982612caa565b612c87565b8181529150602080830190848101818402860182018710156118cf57600080fd5b60005b848110156118ee578135845292820192908201906001016118d2565b505050505092915050565b600082601f830112611909578081fd5b81356119176118a982612cc7565b915080825283602082850101111561192e57600080fd5b8060208401602084013760009082016020015292915050565b600082601f830112611957578081fd5b81516119656118a982612cc7565b915080825283602082850101111561197c57600080fd5b61198d816020840160208601612ce8565b5092915050565b6000608082840312156119a5578081fd5b604051608081016001600160401b0382821081831117156119c257fe5b816040528293508451835260208501516020840152604085015191506119e782612d18565b8160408401526060850151915080821115611a0157600080fd5b50611a0e85828601611947565b6060830152505092915050565b600060208284031215611a2c578081fd5b813561174d81612d18565b600060208284031215611a48578081fd5b815161174d81612d18565b60008060408385031215611a65578081fd5b8251611a7081612d18565b6020939093015192949293505050565b60008060408385031215611a92578182fd5b8235611a9d81612d18565b91506020830135611aad81612d18565b809150509250929050565b60008060008060008060c08789031215611ad0578182fd5b8635611adb81612d18565b95506020870135611aeb81612d18565b945060408701356001600160401b0380821115611b06578384fd5b611b128a838b0161188b565b95506060890135915080821115611b27578384fd5b611b338a838b0161188b565b945060808901359150611b4582612d30565b90925060a08801359080821115611b5a578283fd5b50611b6789828a016118f9565b9150509295509295509295565b600080600080600060a08688031215611b8b578081fd5b8535611b9681612d18565b94506020860135611ba681612d18565b935060408601356001600160401b0380821115611bc1578283fd5b611bcd89838a0161188b565b94506060880135915080821115611be2578283fd5b611bee89838a0161188b565b93506080880135915080821115611c03578283fd5b50611c10888289016118f9565b9150509295509295909350565b600080600080600060a08688031215611c34578081fd5b8535611c3f81612d18565b94506020860135611c4f81612d18565b93506040860135611c5f81612d30565b92506060860135611c6f81612d30565b915060808601356001600160401b03811115611c89578182fd5b611c10888289016118f9565b60008060008060008060c08789031215611cad578384fd5b8635611cb881612d18565b95506020870135611cc881612d18565b945060408701359350606087013592506080870135611ce681612d30565b915060a08701356001600160401b03811115611d00578182fd5b611b6789828a016118f9565b600080600080600060a08688031215611d23578283fd5b8535611d2e81612d18565b94506020860135611d3e81612d18565b9350604086013592506060860135915060808601356001600160401b03811115611c89578182fd5b60008060408385031215611d78578182fd5b8235611d8381612d18565b91506020830135611aad81612d30565b60008060008060808587031215611da8578182fd5b8435611db381612d18565b93506020850135925060408501356001600160401b0380821115611dd5578384fd5b611de1888389016118f9565b93506060870135915080821115611df6578283fd5b50611e03878288016118f9565b91505092959194509250565b60008060408385031215611e21578182fd5b8235611e2c81612d18565b946020939093013593505050565b60008060408385031215611e4c578182fd5b82356001600160401b0380821115611e62578384fd5b818501915085601f830112611e75578384fd5b8135611e836118a982612caa565b80828252602080830192508086018a828387028901011115611ea3578889fd5b8896505b84871015611ece578035611eba81612d18565b845260019690960195928101928101611ea7565b509096508701359350505080821115611ee5578283fd5b50611ef28582860161188b565b9150509250929050565b600060208284031215611f0d578081fd5b815161174d81612d30565b600060208284031215611f29578081fd5b813561174d81612d3e565b600060208284031215611f45578081fd5b815161174d81612d3e565b60008060408385031215611f62578182fd5b82516001600160401b0380821115611f78578384fd5b611f8486838701611947565b93506020850151915080821115611f99578283fd5b50611ef285828601611947565b600060208284031215611fb7578081fd5b81516001600160401b03811115611fcc578182fd5b610d5384828501611994565b60008060408385031215611fea578182fd5b82516001600160401b0380821115612000578384fd5b611f8486838701611994565b60006020828403121561201d578081fd5b5035919050565b60008060408385031215612036578182fd5b50508035926020909101359150565b6000815180845260208085019450808401835b8381101561207457815187529582019590820190600101612058565b509495945050505050565b60008151808452612097816020860160208601612ce8565b601f01601f19169290920160200192915050565b815160009082906020808601845b838110156120d5578151855293820193908201906001016120b9565b50929695505050505050565b600084516120f3818460208901612ce8565b91909101928352506020820152604001919050565b6000845161211a818460208901612ce8565b82018481528351612132816020808501908801612ce8565b0160200195945050505050565b7f19457468657265756d205369676e6564204d6573736167653a0a3332000000008152601c810191909152603c0190565b6001600160a01b0386811682528516602082015260a06040820181905260009061219c90830186612045565b82810360608401526121ae8186612045565b905082810360808401526121c2818561207f565b98975050505050505050565b6001600160a01b03868116825285166020820152604081018490526060810183905260a0608082018190526000906122089083018461207f565b979650505050505050565b6001600160a01b039384168152919092166020820152604081019190915260600190565b6001600160a01b0394851681529290931660208301526040820152606081019190915260a06080820181905260009082015260c00190565b60006020825261174d6020830184612045565b6000604082526122956040830185612045565b82810360208401526102778185612045565b901515815260200190565b9182526001600160a01b0316602082015260400190565b9586526001600160a01b0394851660208701529290931660408501526060840152608083019190915260a082015260c00190565b9485526001600160a01b0393841660208601529190921660408401526060830191909152608082015260a00190565b600083825260406020830152610d53604083018461207f565b93845260ff9290921660208401526040830152606082015260800190565b600060408252612376604083018561207f565b8281036020840152610277818561207f565b60208082526039908201527f455243313135355061636b656442616c616e63652362616c616e63654f66426160408201527f7463683a20494e56414c49445f41525241595f4c454e47544800000000000000606082015260800190565b6020808252603d908201527f455243313135355061636b656442616c616e636523736166654261746368547260408201527f616e7366657246726f6d3a20494e56414c49445f524543495049454e54000000606082015260800190565b6020808252603f908201527f455243313135354d6574615061636b656442616c616e6365235f7472616e736660408201527f65724761734665653a2045524332305f5452414e534645525f4641494c454400606082015260800190565b60208082526037908201527f4c6962427974657323706f704c617374427974653a20475245415445525f544860408201527f414e5f5a45524f5f4c454e4754485f5245515549524544000000000000000000606082015260800190565b6020808252603c908201527f455243313135354d6574615061636b656442616c616e6365235f7369676e617460408201527f75726556616c69646174696f6e3a20494e56414c49445f4e4f4e434500000000606082015260800190565b60208082526033908201527f455243313135355061636b656442616c616e6365235f7669657755706461746560408201527242696e56616c75653a20554e444552464c4f5760681b606082015260800190565b6020808252603a90820152600080516020612d5583398151915260408201527f7572653a20554e535550504f525445445f5349474e4154555245000000000000606082015260800190565b602080825260409082018190527f455243313135354d6574615061636b656442616c616e6365235f7369676e6174908201527f75726556616c69646174696f6e3a20494e56414c49445f5349474e4154555245606082015260800190565b60208082526037908201527f455243313135355061636b656442616c616e636523736166655472616e73666560408201527f7246726f6d3a20494e56414c49445f4f50455241544f52000000000000000000606082015260800190565b6020808252603690820152600080516020612d558339815191526040820152757572653a20494c4c4547414c5f5349474e415455524560501b606082015260800190565b60208082526042908201527f455243313135355061636b656442616c616e6365235f7361666542617463685460408201527f72616e7366657246726f6d3a20494e56414c49445f4152524159535f4c454e476060820152610a8960f31b608082015260a00190565b6020808252604c908201527f455243313135355061636b656442616c616e6365235f63616c6c6f6e4552433160408201527f313535426174636852656365697665643a20494e56414c49445f4f4e5f52454360608201526b454956455f4d45535341474560a01b608082015260a00190565b6020808252603790820152600080516020612d5583398151915260408201527f7572653a204c454e4754485f39375f5245515549524544000000000000000000606082015260800190565b6020808252603c908201527f455243313135355061636b656442616c616e636523736166654261746368547260408201527f616e7366657246726f6d3a20494e56414c49445f4f50455241544f5200000000606082015260800190565b60208082526036908201527f455243313135355061636b656442616c616e6365235f7361666542617463685460408201527572616e7366657246726f6d3a20554e444552464c4f5760501b606082015260800190565b6020808252603390820152600080516020612d558339815191526040820152723ab9329d1024a72b20a624a22fa9a4a3a722a960691b606082015260800190565b602080825260409082018190527f455243313135354d6574615061636b656442616c616e6365236d657461536166908201527f655472616e7366657246726f6d3a20494e56414c49445f524543495049454e54606082015260800190565b60208082526047908201527f455243313135355061636b656442616c616e6365235f63616c6c6f6e4552433160408201527f31353552656365697665643a20494e56414c49445f4f4e5f524543454956455f6060820152664d45535341474560c81b608082015260a00190565b6020808252604390820152600080516020612d5583398151915260408201527f7572653a204c454e4754485f475245415445525f5448414e5f305f524551554960608201526214915160ea1b608082015260a00190565b60208082526045908201527f455243313135354d6574615061636b656442616c616e6365236d65746153616660408201527f6542617463685472616e7366657246726f6d3a20494e56414c49445f52454349606082015264141251539560da1b608082015260a00190565b60208082526038908201527f455243313135355061636b656442616c616e636523736166655472616e73666560408201527f7246726f6d3a20494e56414c49445f524543495049454e540000000000000000606082015260800190565b6020808252603b908201527f455243313135354d6574615061636b656442616c616e6365235f7472616e736660408201527f65724761734665653a20554e535550504f525445445f544f4b454e0000000000606082015260800190565b6020808252603c908201527f4c696242797465732372656164427974657333323a20475245415445525f4f5260408201527f5f455155414c5f544f5f33325f4c454e4754485f524551554952454400000000606082015260800190565b60208082526045908201527f455243313135355061636b656442616c616e6365235f7669657755706461746560408201527f42696e56616c75653a20494e56414c49445f42494e5f57524954455f4f50455260608201526420aa24a7a760d91b608082015260a00190565b60208082526032908201527f455243313135355061636b656442616c616e6365235f7669657755706461746560408201527142696e56616c75653a204f564552464c4f5760701b606082015260800190565b90815260200190565b918252602082015260400190565b6040518181016001600160401b0381118282101715612ca257fe5b604052919050565b60006001600160401b03821115612cbd57fe5b5060209081020190565b60006001600160401b03821115612cda57fe5b50601f01601f191660200190565b60005b83811015612d03578181015183820152602001612ceb565b83811115612d12576000848401525b50505050565b6001600160a01b0381168114612d2d57600080fd5b50565b8015158114612d2d57600080fd5b6001600160e01b031981168114612d2d57600080fdfe5369676e617475726556616c696461746f7223697356616c69645369676e6174a2646970667358221220ff03ff744df52e689ab709f728ad5466543dc2246cb8802ba21142d1a03b06e164736f6c63430007040033",
			"opcodes": "PUSH1 0x80 PUSH1 0x40 MSTORE CALLVALUE DUP1 ISZERO PUSH2 0x10 JUMPI PUSH1 0x0 DUP1 REVERT JUMPDEST POP PUSH2 0x2DAA DUP1 PUSH2 0x20 PUSH1 0x0 CODECOPY PUSH1 0x0 RETURN INVALID PUSH1 0x80 PUSH1 0x40 MSTORE CALLVALUE DUP1 ISZERO PUSH2 0x10 JUMPI PUSH1 0x0 DUP1 REVERT JUMPDEST POP PUSH1 0x4 CALLDATASIZE LT PUSH2 0xE9 JUMPI PUSH1 0x0 CALLDATALOAD PUSH1 0xE0 SHR DUP1 PUSH4 0xCE0B514B GT PUSH2 0x8C JUMPI DUP1 PUSH4 0xEAEC5F81 GT PUSH2 0x66 JUMPI DUP1 PUSH4 0xEAEC5F81 EQ PUSH2 0x1EC JUMPI DUP1 PUSH4 0xF242432A EQ PUSH2 0x1FF JUMPI DUP1 PUSH4 0xF5D4C820 EQ PUSH2 0x212 JUMPI DUP1 PUSH4 0xFA4E12D7 EQ PUSH2 0x225 JUMPI PUSH2 0xE9 JUMP JUMPDEST DUP1 PUSH4 0xCE0B514B EQ PUSH2 0x1A5 JUMPI DUP1 PUSH4 0xDB90E83C EQ PUSH2 0x1B8 JUMPI DUP1 PUSH4 0xE985E9C5 EQ PUSH2 0x1D9 JUMPI PUSH2 0xE9 JUMP JUMPDEST DUP1 PUSH4 0x2EB2C2D6 GT PUSH2 0xC8 JUMPI DUP1 PUSH4 0x2EB2C2D6 EQ PUSH2 0x14A JUMPI DUP1 PUSH4 0x4E1273F4 EQ PUSH2 0x15F JUMPI DUP1 PUSH4 0xA22CB465 EQ PUSH2 0x17F JUMPI DUP1 PUSH4 0xA3D4926E EQ PUSH2 0x192 JUMPI PUSH2 0xE9 JUMP JUMPDEST DUP1 PUSH3 0xFDD58E EQ PUSH2 0xEE JUMPI DUP1 PUSH4 0x1FFC9A7 EQ PUSH2 0x117 JUMPI DUP1 PUSH4 0x2D0335AB EQ PUSH2 0x137 JUMPI JUMPDEST PUSH1 0x0 DUP1 REVERT JUMPDEST PUSH2 0x101 PUSH2 0xFC CALLDATASIZE PUSH1 0x4 PUSH2 0x1E0F JUMP JUMPDEST PUSH2 0x238 JUMP JUMPDEST PUSH1 0x40 MLOAD PUSH2 0x10E SWAP2 SWAP1 PUSH2 0x2C70 JUMP JUMPDEST PUSH1 0x40 MLOAD DUP1 SWAP2 SUB SWAP1 RETURN JUMPDEST PUSH2 0x12A PUSH2 0x125 CALLDATASIZE PUSH1 0x4 PUSH2 0x1F18 JUMP JUMPDEST PUSH2 0x280 JUMP JUMPDEST PUSH1 0x40 MLOAD PUSH2 0x10E SWAP2 SWAP1 PUSH2 0x22A7 JUMP JUMPDEST PUSH2 0x101 PUSH2 0x145 CALLDATASIZE PUSH1 0x4 PUSH2 0x1A1B JUMP JUMPDEST PUSH2 0x2B4 JUMP JUMPDEST PUSH2 0x15D PUSH2 0x158 CALLDATASIZE PUSH1 0x4 PUSH2 0x1B74 JUMP JUMPDEST PUSH2 0x2CF JUMP JUMPDEST STOP JUMPDEST PUSH2 0x172 PUSH2 0x16D CALLDATASIZE PUSH1 0x4 PUSH2 0x1E3A JUMP JUMPDEST PUSH2 0x357 JUMP JUMPDEST PUSH1 0x40 MLOAD PUSH2 0x10E SWAP2 SWAP1 PUSH2 0x226F JUMP JUMPDEST PUSH2 0x15D PUSH2 0x18D CALLDATASIZE PUSH1 0x4 PUSH2 0x1D66 JUMP JUMPDEST PUSH2 0x54E JUMP JUMPDEST PUSH2 0x15D PUSH2 0x1A0 CALLDATASIZE PUSH1 0x4 PUSH2 0x1AB8 JUMP JUMPDEST PUSH2 0x5BD JUMP JUMPDEST PUSH2 0x15D PUSH2 0x1B3 CALLDATASIZE PUSH1 0x4 PUSH2 0x1C95 JUMP JUMPDEST PUSH2 0x70A JUMP JUMPDEST PUSH2 0x1CB PUSH2 0x1C6 CALLDATASIZE PUSH1 0x4 PUSH2 0x200C JUMP JUMPDEST PUSH2 0x7C2 JUMP JUMPDEST PUSH1 0x40 MLOAD PUSH2 0x10E SWAP3 SWAP2 SWAP1 PUSH2 0x2C79 JUMP JUMPDEST PUSH2 0x12A PUSH2 0x1E7 CALLDATASIZE PUSH1 0x4 PUSH2 0x1A80 JUMP JUMPDEST PUSH2 0x7CF JUMP JUMPDEST PUSH2 0x101 PUSH2 0x1FA CALLDATASIZE PUSH1 0x4 PUSH2 0x2024 JUMP JUMPDEST PUSH2 0x7FD JUMP JUMPDEST PUSH2 0x15D PUSH2 0x20D CALLDATASIZE PUSH1 0x4 PUSH2 0x1D0C JUMP JUMPDEST PUSH2 0x810 JUMP JUMPDEST PUSH2 0x15D PUSH2 0x220 CALLDATASIZE PUSH1 0x4 PUSH2 0x1C1D JUMP JUMPDEST PUSH2 0x888 JUMP JUMPDEST PUSH2 0x12A PUSH2 0x233 CALLDATASIZE PUSH1 0x4 PUSH2 0x1D93 JUMP JUMPDEST PUSH2 0x98D JUMP JUMPDEST PUSH1 0x0 DUP1 PUSH1 0x0 PUSH2 0x246 DUP5 PUSH2 0x7C2 JUMP JUMPDEST PUSH1 0x1 PUSH1 0x1 PUSH1 0xA0 SHL SUB DUP8 AND PUSH1 0x0 SWAP1 DUP2 MSTORE PUSH1 0x20 DUP2 DUP2 MSTORE PUSH1 0x40 DUP1 DUP4 KECCAK256 DUP6 DUP5 MSTORE SWAP1 SWAP2 MSTORE SWAP1 KECCAK256 SLOAD SWAP2 SWAP4 POP SWAP2 POP PUSH2 0x277 SWAP1 DUP3 PUSH2 0x7FD JUMP JUMPDEST SWAP6 SWAP5 POP POP POP POP POP JUMP JUMPDEST PUSH1 0x0 PUSH1 0x1 PUSH1 0x1 PUSH1 0xE0 SHL SUB NOT DUP3 AND PUSH4 0x6CDB3D13 PUSH1 0xE1 SHL EQ ISZERO PUSH2 0x2A3 JUMPI POP PUSH1 0x1 PUSH2 0x2AF JUMP JUMPDEST PUSH2 0x2AC DUP3 PUSH2 0xD5B JUMP JUMPDEST SWAP1 POP JUMPDEST SWAP2 SWAP1 POP JUMP JUMPDEST PUSH1 0x1 PUSH1 0x1 PUSH1 0xA0 SHL SUB AND PUSH1 0x0 SWAP1 DUP2 MSTORE PUSH1 0x2 PUSH1 0x20 MSTORE PUSH1 0x40 SWAP1 KECCAK256 SLOAD SWAP1 JUMP JUMPDEST CALLER PUSH1 0x1 PUSH1 0x1 PUSH1 0xA0 SHL SUB DUP7 AND EQ DUP1 PUSH2 0x2EB JUMPI POP PUSH2 0x2EB DUP6 CALLER PUSH2 0x7CF JUMP JUMPDEST PUSH2 0x310 JUMPI PUSH1 0x40 MLOAD PUSH3 0x461BCD PUSH1 0xE5 SHL DUP2 MSTORE PUSH1 0x4 ADD PUSH2 0x307 SWAP1 PUSH2 0x281B JUMP JUMPDEST PUSH1 0x40 MLOAD DUP1 SWAP2 SUB SWAP1 REVERT JUMPDEST PUSH1 0x1 PUSH1 0x1 PUSH1 0xA0 SHL SUB DUP5 AND PUSH2 0x336 JUMPI PUSH1 0x40 MLOAD PUSH3 0x461BCD PUSH1 0xE5 SHL DUP2 MSTORE PUSH1 0x4 ADD PUSH2 0x307 SWAP1 PUSH2 0x23E5 JUMP JUMPDEST PUSH2 0x342 DUP6 DUP6 DUP6 DUP6 PUSH2 0xD74 JUMP JUMPDEST PUSH2 0x350 DUP6 DUP6 DUP6 DUP6 GAS DUP7 PUSH2 0x1018 JUMP JUMPDEST POP POP POP POP POP JUMP JUMPDEST DUP2 MLOAD DUP2 MLOAD PUSH1 0x60 SWAP2 SWAP1 DUP2 EQ PUSH2 0x37D JUMPI PUSH1 0x40 MLOAD PUSH3 0x461BCD PUSH1 0xE5 SHL DUP2 MSTORE PUSH1 0x4 ADD PUSH2 0x307 SWAP1 PUSH2 0x2388 JUMP JUMPDEST PUSH1 0x0 DUP1 PUSH2 0x39D DUP6 PUSH1 0x0 DUP2 MLOAD DUP2 LT PUSH2 0x390 JUMPI INVALID JUMPDEST PUSH1 0x20 MUL PUSH1 0x20 ADD ADD MLOAD PUSH2 0x7C2 JUMP JUMPDEST SWAP2 POP SWAP2 POP PUSH1 0x0 DUP1 PUSH1 0x0 DUP9 PUSH1 0x0 DUP2 MLOAD DUP2 LT PUSH2 0x3B3 JUMPI INVALID JUMPDEST PUSH1 0x20 MUL PUSH1 0x20 ADD ADD MLOAD PUSH1 0x1 PUSH1 0x1 PUSH1 0xA0 SHL SUB AND PUSH1 0x1 PUSH1 0x1 PUSH1 0xA0 SHL SUB AND DUP2 MSTORE PUSH1 0x20 ADD SWAP1 DUP2 MSTORE PUSH1 0x20 ADD PUSH1 0x0 KECCAK256 PUSH1 0x0 DUP5 DUP2 MSTORE PUSH1 0x20 ADD SWAP1 DUP2 MSTORE PUSH1 0x20 ADD PUSH1 0x0 KECCAK256 SLOAD SWAP1 POP PUSH1 0x0 DUP4 SWAP1 POP PUSH1 0x60 DUP6 PUSH1 0x1 PUSH1 0x1 PUSH1 0x40 SHL SUB DUP2 GT DUP1 ISZERO PUSH2 0x40C JUMPI PUSH1 0x0 DUP1 REVERT JUMPDEST POP PUSH1 0x40 MLOAD SWAP1 DUP1 DUP3 MSTORE DUP1 PUSH1 0x20 MUL PUSH1 0x20 ADD DUP3 ADD PUSH1 0x40 MSTORE DUP1 ISZERO PUSH2 0x436 JUMPI DUP2 PUSH1 0x20 ADD PUSH1 0x20 DUP3 MUL DUP1 CALLDATASIZE DUP4 CALLDATACOPY ADD SWAP1 POP JUMPDEST POP SWAP1 POP PUSH2 0x443 DUP4 DUP6 PUSH2 0x7FD JUMP JUMPDEST DUP2 PUSH1 0x0 DUP2 MLOAD DUP2 LT PUSH2 0x450 JUMPI INVALID JUMPDEST PUSH1 0x20 SWAP1 DUP2 MUL SWAP2 SWAP1 SWAP2 ADD ADD MSTORE PUSH1 0x1 JUMPDEST DUP7 DUP2 LT ISZERO PUSH2 0x541 JUMPI PUSH2 0x475 DUP10 DUP3 DUP2 MLOAD DUP2 LT PUSH2 0x390 JUMPI INVALID JUMPDEST SWAP1 SWAP7 POP SWAP5 POP DUP3 DUP7 EQ ISZERO DUP1 PUSH2 0x4C4 JUMPI POP DUP10 DUP2 DUP2 MLOAD DUP2 LT PUSH2 0x490 JUMPI INVALID JUMPDEST PUSH1 0x20 MUL PUSH1 0x20 ADD ADD MLOAD PUSH1 0x1 PUSH1 0x1 PUSH1 0xA0 SHL SUB AND DUP11 PUSH1 0x1 DUP4 SUB DUP2 MLOAD DUP2 LT PUSH2 0x4B0 JUMPI INVALID JUMPDEST PUSH1 0x20 MUL PUSH1 0x20 ADD ADD MLOAD PUSH1 0x1 PUSH1 0x1 PUSH1 0xA0 SHL SUB AND EQ ISZERO JUMPDEST ISZERO PUSH2 0x518 JUMPI PUSH1 0x0 DUP1 DUP12 DUP4 DUP2 MLOAD DUP2 LT PUSH2 0x4D8 JUMPI INVALID JUMPDEST PUSH1 0x20 MUL PUSH1 0x20 ADD ADD MLOAD PUSH1 0x1 PUSH1 0x1 PUSH1 0xA0 SHL SUB AND PUSH1 0x1 PUSH1 0x1 PUSH1 0xA0 SHL SUB AND DUP2 MSTORE PUSH1 0x20 ADD SWAP1 DUP2 MSTORE PUSH1 0x20 ADD PUSH1 0x0 KECCAK256 PUSH1 0x0 DUP8 DUP2 MSTORE PUSH1 0x20 ADD SWAP1 DUP2 MSTORE PUSH1 0x20 ADD PUSH1 0x0 KECCAK256 SLOAD SWAP4 POP DUP6 SWAP3 POP JUMPDEST PUSH2 0x522 DUP5 DUP7 PUSH2 0x7FD JUMP JUMPDEST DUP3 DUP3 DUP2 MLOAD DUP2 LT PUSH2 0x52E JUMPI INVALID JUMPDEST PUSH1 0x20 SWAP1 DUP2 MUL SWAP2 SWAP1 SWAP2 ADD ADD MSTORE PUSH1 0x1 ADD PUSH2 0x45E JUMP JUMPDEST POP SWAP9 SWAP8 POP POP POP POP POP POP POP POP JUMP JUMPDEST CALLER PUSH1 0x0 DUP2 DUP2 MSTORE PUSH1 0x1 PUSH1 0x20 SWAP1 DUP2 MSTORE PUSH1 0x40 DUP1 DUP4 KECCAK256 PUSH1 0x1 PUSH1 0x1 PUSH1 0xA0 SHL SUB DUP8 AND DUP1 DUP6 MSTORE SWAP3 MSTORE SWAP2 DUP3 SWAP1 KECCAK256 DUP1 SLOAD PUSH1 0xFF NOT AND DUP6 ISZERO ISZERO OR SWAP1 SSTORE SWAP1 MLOAD SWAP1 SWAP2 SWAP1 PUSH32 0x17307EAB39AB6107E8899845AD3D59BD9653F200F220920489CA2B5937696C31 SWAP1 PUSH2 0x5B1 SWAP1 DUP6 SWAP1 PUSH2 0x22A7 JUMP JUMPDEST PUSH1 0x40 MLOAD DUP1 SWAP2 SUB SWAP1 LOG3 POP POP JUMP JUMPDEST PUSH1 0x1 PUSH1 0x1 PUSH1 0xA0 SHL SUB DUP6 AND PUSH2 0x5E3 JUMPI PUSH1 0x40 MLOAD PUSH3 0x461BCD PUSH1 0xE5 SHL DUP2 MSTORE PUSH1 0x4 ADD PUSH2 0x307 SWAP1 PUSH2 0x2A31 JUMP JUMPDEST PUSH1 0x60 PUSH2 0x5ED PUSH2 0x185A JUMP JUMPDEST PUSH1 0x60 PUSH2 0x6A0 DUP10 DUP6 PUSH32 0xA3D4926E8CF8FE8E020CD29F514C256BC2EEC62AA2337E415F1A33A4828AF5A0 PUSH1 0x0 SHL DUP13 DUP13 DUP13 PUSH1 0x40 MLOAD PUSH1 0x20 ADD PUSH2 0x62B SWAP2 SWAP1 PUSH2 0x20AB JUMP JUMPDEST PUSH1 0x40 MLOAD PUSH1 0x20 DUP2 DUP4 SUB SUB DUP2 MSTORE SWAP1 PUSH1 0x40 MSTORE DUP1 MLOAD SWAP1 PUSH1 0x20 ADD KECCAK256 DUP13 PUSH1 0x40 MLOAD PUSH1 0x20 ADD PUSH2 0x652 SWAP2 SWAP1 PUSH2 0x20AB JUMP JUMPDEST PUSH1 0x40 MLOAD PUSH1 0x20 DUP2 DUP4 SUB SUB DUP2 MSTORE SWAP1 PUSH1 0x40 MSTORE DUP1 MLOAD SWAP1 PUSH1 0x20 ADD KECCAK256 DUP13 PUSH2 0x674 JUMPI PUSH1 0x0 PUSH2 0x677 JUMP JUMPDEST PUSH1 0x1 JUMPDEST PUSH1 0x40 MLOAD PUSH1 0x20 ADD PUSH2 0x68C SWAP7 SWAP6 SWAP5 SWAP4 SWAP3 SWAP2 SWAP1 PUSH2 0x22C9 JUMP JUMPDEST PUSH1 0x40 MLOAD PUSH1 0x20 DUP2 DUP4 SUB SUB DUP2 MSTORE SWAP1 PUSH1 0x40 MSTORE PUSH2 0x10EB JUMP JUMPDEST SWAP1 POP PUSH2 0x6AE DUP10 DUP10 DUP10 DUP10 PUSH2 0xD74 JUMP JUMPDEST DUP5 ISZERO PUSH2 0x6F1 JUMPI DUP1 DUP1 PUSH1 0x20 ADD SWAP1 MLOAD DUP2 ADD SWAP1 PUSH2 0x6C8 SWAP2 SWAP1 PUSH2 0x1FD8 JUMP JUMPDEST DUP1 SWAP5 POP DUP2 SWAP4 POP POP POP PUSH2 0x6E2 DUP10 DUP10 DUP10 DUP10 DUP7 PUSH1 0x20 ADD MLOAD DUP9 PUSH2 0x1018 JUMP JUMPDEST PUSH2 0x6EC DUP10 DUP4 PUSH2 0x124E JUMP JUMPDEST PUSH2 0x6FF JUMP JUMPDEST PUSH2 0x6FF DUP10 DUP10 DUP10 DUP10 GAS DUP7 PUSH2 0x1018 JUMP JUMPDEST POP POP POP POP POP POP POP POP POP JUMP JUMPDEST PUSH1 0x1 PUSH1 0x1 PUSH1 0xA0 SHL SUB DUP6 AND PUSH2 0x730 JUMPI PUSH1 0x40 MLOAD PUSH3 0x461BCD PUSH1 0xE5 SHL DUP2 MSTORE PUSH1 0x4 ADD PUSH2 0x307 SWAP1 PUSH2 0x290F JUMP JUMPDEST PUSH1 0x60 PUSH2 0x73A PUSH2 0x185A JUMP JUMPDEST PUSH1 0x60 PUSH2 0x772 DUP10 DUP6 PUSH32 0xCE0B514B3931BDBE4D5D44E4F035AFE7113767B7DB71949271F6A62D9C60F558 DUP3 DUP13 DUP13 DUP13 DUP13 PUSH2 0x674 JUMPI PUSH1 0x0 PUSH2 0x677 JUMP JUMPDEST SWAP1 POP PUSH2 0x780 DUP10 DUP10 DUP10 DUP10 PUSH2 0x145D JUMP JUMPDEST DUP5 ISZERO PUSH2 0x7B4 JUMPI DUP1 DUP1 PUSH1 0x20 ADD SWAP1 MLOAD DUP2 ADD SWAP1 PUSH2 0x79A SWAP2 SWAP1 PUSH2 0x1FD8 JUMP JUMPDEST DUP1 SWAP5 POP DUP2 SWAP4 POP POP POP PUSH2 0x6E2 DUP10 DUP10 DUP10 DUP10 DUP7 PUSH1 0x20 ADD MLOAD DUP9 PUSH2 0x14D4 JUMP JUMPDEST PUSH2 0x6FF DUP10 DUP10 DUP10 DUP10 GAS DUP7 PUSH2 0x14D4 JUMP JUMPDEST PUSH1 0x8 DUP2 DIV SWAP2 PUSH1 0x7 SWAP1 SWAP2 AND SWAP1 JUMP JUMPDEST PUSH1 0x1 PUSH1 0x1 PUSH1 0xA0 SHL SUB SWAP2 DUP3 AND PUSH1 0x0 SWAP1 DUP2 MSTORE PUSH1 0x1 PUSH1 0x20 SWAP1 DUP2 MSTORE PUSH1 0x40 DUP1 DUP4 KECCAK256 SWAP4 SWAP1 SWAP5 AND DUP3 MSTORE SWAP2 SWAP1 SWAP2 MSTORE KECCAK256 SLOAD PUSH1 0xFF AND SWAP1 JUMP JUMPDEST PUSH1 0x20 DUP2 MUL DUP3 SWAP1 SHR PUSH4 0xFFFFFFFF AND SWAP3 SWAP2 POP POP JUMP JUMPDEST CALLER PUSH1 0x1 PUSH1 0x1 PUSH1 0xA0 SHL SUB DUP7 AND EQ DUP1 PUSH2 0x82C JUMPI POP PUSH2 0x82C DUP6 CALLER PUSH2 0x7CF JUMP JUMPDEST PUSH2 0x848 JUMPI PUSH1 0x40 MLOAD PUSH3 0x461BCD PUSH1 0xE5 SHL DUP2 MSTORE PUSH1 0x4 ADD PUSH2 0x307 SWAP1 PUSH2 0x2655 JUMP JUMPDEST PUSH1 0x1 PUSH1 0x1 PUSH1 0xA0 SHL SUB DUP5 AND PUSH2 0x86E JUMPI PUSH1 0x40 MLOAD PUSH3 0x461BCD PUSH1 0xE5 SHL DUP2 MSTORE PUSH1 0x4 ADD PUSH2 0x307 SWAP1 PUSH2 0x2A9C JUMP JUMPDEST PUSH2 0x87A DUP6 DUP6 DUP6 DUP6 PUSH2 0x145D JUMP JUMPDEST PUSH2 0x350 DUP6 DUP6 DUP6 DUP6 GAS DUP7 PUSH2 0x14D4 JUMP JUMPDEST PUSH1 0x60 PUSH2 0x8E4 DUP7 DUP4 PUSH32 0xF5D4C820494C8595DE274C7FF619BEAD38AAC4FBC3D143B5BF956AA4B84FA524 DUP3 DUP10 DUP10 PUSH2 0x8BE JUMPI PUSH1 0x0 PUSH2 0x8C1 JUMP JUMPDEST PUSH1 0x1 JUMPDEST DUP10 PUSH2 0x8CD JUMPI PUSH1 0x0 PUSH2 0x8D0 JUMP JUMPDEST PUSH1 0x1 JUMPDEST PUSH1 0x40 MLOAD PUSH1 0x20 ADD PUSH2 0x68C SWAP6 SWAP5 SWAP4 SWAP3 SWAP2 SWAP1 PUSH2 0x22FD JUMP JUMPDEST PUSH1 0x1 PUSH1 0x1 PUSH1 0xA0 SHL SUB DUP8 DUP2 AND PUSH1 0x0 DUP2 DUP2 MSTORE PUSH1 0x1 PUSH1 0x20 SWAP1 DUP2 MSTORE PUSH1 0x40 DUP1 DUP4 KECCAK256 SWAP5 DUP12 AND DUP1 DUP5 MSTORE SWAP5 SWAP1 SWAP2 MSTORE SWAP1 DUP2 SWAP1 KECCAK256 DUP1 SLOAD PUSH1 0xFF NOT AND DUP10 ISZERO ISZERO OR SWAP1 SSTORE MLOAD SWAP3 SWAP4 POP SWAP1 SWAP2 PUSH32 0x17307EAB39AB6107E8899845AD3D59BD9653F200F220920489CA2B5937696C31 SWAP1 PUSH2 0x94D SWAP1 DUP9 SWAP1 PUSH2 0x22A7 JUMP JUMPDEST PUSH1 0x40 MLOAD DUP1 SWAP2 SUB SWAP1 LOG3 DUP3 ISZERO PUSH2 0x985 JUMPI PUSH2 0x963 PUSH2 0x185A JUMP JUMPDEST DUP2 DUP1 PUSH1 0x20 ADD SWAP1 MLOAD DUP2 ADD SWAP1 PUSH2 0x977 SWAP2 SWAP1 PUSH2 0x1FA6 JUMP JUMPDEST SWAP1 POP PUSH2 0x983 DUP8 DUP3 PUSH2 0x124E JUMP JUMPDEST POP JUMPDEST POP POP POP POP POP POP JUMP JUMPDEST PUSH1 0x0 DUP1 DUP3 MLOAD GT PUSH2 0x9AF JUMPI PUSH1 0x40 MLOAD PUSH3 0x461BCD PUSH1 0xE5 SHL DUP2 MSTORE PUSH1 0x4 ADD PUSH2 0x307 SWAP1 PUSH2 0x29DA JUMP JUMPDEST PUSH1 0x1 PUSH1 0x1 PUSH1 0xA0 SHL SUB DUP6 AND PUSH2 0x9D5 JUMPI PUSH1 0x40 MLOAD PUSH3 0x461BCD PUSH1 0xE5 SHL DUP2 MSTORE PUSH1 0x4 ADD PUSH2 0x307 SWAP1 PUSH2 0x28CE JUMP JUMPDEST PUSH1 0x0 PUSH2 0x9E0 DUP4 PUSH2 0x15A7 JUMP JUMPDEST PUSH1 0xF8 SHR SWAP1 POP PUSH1 0x5 DUP2 LT PUSH2 0xA05 JUMPI PUSH1 0x40 MLOAD PUSH3 0x461BCD PUSH1 0xE5 SHL DUP2 MSTORE PUSH1 0x4 ADD PUSH2 0x307 SWAP1 PUSH2 0x25AC JUMP JUMPDEST PUSH1 0x0 DUP2 PUSH1 0xFF AND PUSH1 0x5 DUP2 GT ISZERO PUSH2 0xA16 JUMPI INVALID JUMPDEST SWAP1 POP PUSH1 0x0 DUP1 DUP1 DUP1 DUP1 DUP6 PUSH1 0x5 DUP2 GT ISZERO PUSH2 0xA2A JUMPI INVALID JUMPDEST EQ ISZERO PUSH2 0xA48 JUMPI PUSH1 0x40 MLOAD PUSH3 0x461BCD PUSH1 0xE5 SHL DUP2 MSTORE PUSH1 0x4 ADD PUSH2 0x307 SWAP1 PUSH2 0x26B2 JUMP JUMPDEST PUSH1 0x1 DUP6 PUSH1 0x5 DUP2 GT ISZERO PUSH2 0xA56 JUMPI INVALID JUMPDEST EQ ISZERO PUSH2 0xB20 JUMPI DUP8 MLOAD PUSH1 0x61 EQ PUSH2 0xA7D JUMPI PUSH1 0x40 MLOAD PUSH3 0x461BCD PUSH1 0xE5 SHL DUP2 MSTORE PUSH1 0x4 ADD PUSH2 0x307 SWAP1 PUSH2 0x27D0 JUMP JUMPDEST PUSH2 0xA88 DUP9 PUSH1 0x0 PUSH2 0x15F5 JUMP JUMPDEST SWAP3 POP PUSH2 0xA95 DUP9 PUSH1 0x20 PUSH2 0x15F5 JUMP JUMPDEST SWAP2 POP DUP8 PUSH1 0x40 DUP2 MLOAD DUP2 LT PUSH2 0xAA4 JUMPI INVALID JUMPDEST PUSH1 0x20 ADD ADD MLOAD PUSH1 0xF8 SHR PUSH1 0xF8 SHL PUSH1 0xF8 SHR SWAP4 POP PUSH1 0x1 DUP11 DUP6 DUP6 DUP6 PUSH1 0x40 MLOAD PUSH1 0x0 DUP2 MSTORE PUSH1 0x20 ADD PUSH1 0x40 MSTORE PUSH1 0x40 MLOAD PUSH2 0xAD7 SWAP5 SWAP4 SWAP3 SWAP2 SWAP1 PUSH2 0x2345 JUMP JUMPDEST PUSH1 0x20 PUSH1 0x40 MLOAD PUSH1 0x20 DUP2 SUB SWAP1 DUP1 DUP5 SUB SWAP1 DUP6 GAS STATICCALL ISZERO DUP1 ISZERO PUSH2 0xAF9 JUMPI RETURNDATASIZE PUSH1 0x0 DUP1 RETURNDATACOPY RETURNDATASIZE PUSH1 0x0 REVERT JUMPDEST POP POP PUSH1 0x40 MLOAD PUSH1 0x1F NOT ADD MLOAD PUSH1 0x1 PUSH1 0x1 PUSH1 0xA0 SHL SUB DUP14 DUP2 AND SWAP2 AND EQ SWAP8 POP PUSH2 0xD53 SWAP7 POP POP POP POP POP POP POP JUMP JUMPDEST PUSH1 0x2 DUP6 PUSH1 0x5 DUP2 GT ISZERO PUSH2 0xB2E JUMPI INVALID JUMPDEST EQ ISZERO PUSH2 0xBD5 JUMPI DUP8 MLOAD PUSH1 0x61 EQ PUSH2 0xB55 JUMPI PUSH1 0x40 MLOAD PUSH3 0x461BCD PUSH1 0xE5 SHL DUP2 MSTORE PUSH1 0x4 ADD PUSH2 0x307 SWAP1 PUSH2 0x27D0 JUMP JUMPDEST PUSH2 0xB60 DUP9 PUSH1 0x0 PUSH2 0x15F5 JUMP JUMPDEST SWAP3 POP PUSH2 0xB6D DUP9 PUSH1 0x20 PUSH2 0x15F5 JUMP JUMPDEST SWAP2 POP DUP8 PUSH1 0x40 DUP2 MLOAD DUP2 LT PUSH2 0xB7C JUMPI INVALID JUMPDEST PUSH1 0x20 ADD ADD MLOAD PUSH1 0xF8 SHR PUSH1 0xF8 SHL PUSH1 0xF8 SHR SWAP4 POP PUSH1 0x1 DUP11 PUSH1 0x40 MLOAD PUSH1 0x20 ADD PUSH2 0xB9F SWAP2 SWAP1 PUSH2 0x213F JUMP JUMPDEST PUSH1 0x40 MLOAD PUSH1 0x20 DUP2 DUP4 SUB SUB DUP2 MSTORE SWAP1 PUSH1 0x40 MSTORE DUP1 MLOAD SWAP1 PUSH1 0x20 ADD KECCAK256 DUP6 DUP6 DUP6 PUSH1 0x40 MLOAD PUSH1 0x0 DUP2 MSTORE PUSH1 0x20 ADD PUSH1 0x40 MSTORE PUSH1 0x40 MLOAD PUSH2 0xAD7 SWAP5 SWAP4 SWAP3 SWAP2 SWAP1 PUSH2 0x2345 JUMP JUMPDEST PUSH1 0x3 DUP6 PUSH1 0x5 DUP2 GT ISZERO PUSH2 0xBE3 JUMPI INVALID JUMPDEST EQ ISZERO PUSH2 0xC88 JUMPI PUSH1 0x40 MLOAD PUSH4 0x20C13B0B PUSH1 0xE0 SHL DUP2 MSTORE PUSH1 0x1 PUSH1 0x1 PUSH1 0xA0 SHL SUB DUP13 AND SWAP1 PUSH4 0x20C13B0B SWAP1 PUSH2 0xC17 SWAP1 DUP13 SWAP1 DUP13 SWAP1 PUSH1 0x4 ADD PUSH2 0x2363 JUMP JUMPDEST PUSH1 0x20 PUSH1 0x40 MLOAD DUP1 DUP4 SUB DUP2 DUP7 DUP1 EXTCODESIZE ISZERO DUP1 ISZERO PUSH2 0xC2F JUMPI PUSH1 0x0 DUP1 REVERT JUMPDEST POP GAS STATICCALL ISZERO DUP1 ISZERO PUSH2 0xC43 JUMPI RETURNDATASIZE PUSH1 0x0 DUP1 RETURNDATACOPY RETURNDATASIZE PUSH1 0x0 REVERT JUMPDEST POP POP POP POP PUSH1 0x40 MLOAD RETURNDATASIZE PUSH1 0x1F NOT PUSH1 0x1F DUP3 ADD AND DUP3 ADD DUP1 PUSH1 0x40 MSTORE POP DUP2 ADD SWAP1 PUSH2 0xC67 SWAP2 SWAP1 PUSH2 0x1F34 JUMP JUMPDEST PUSH1 0x1 PUSH1 0x1 PUSH1 0xE0 SHL SUB NOT AND PUSH4 0x20C13B0B PUSH1 0xE0 SHL EQ SWAP7 POP PUSH2 0xD53 SWAP6 POP POP POP POP POP POP JUMP JUMPDEST PUSH1 0x4 DUP6 PUSH1 0x5 DUP2 GT ISZERO PUSH2 0xC96 JUMPI INVALID JUMPDEST EQ ISZERO PUSH2 0xD3B JUMPI PUSH1 0x40 MLOAD PUSH4 0xB135D3F PUSH1 0xE1 SHL DUP2 MSTORE PUSH1 0x1 PUSH1 0x1 PUSH1 0xA0 SHL SUB DUP13 AND SWAP1 PUSH4 0x1626BA7E SWAP1 PUSH2 0xCCA SWAP1 DUP14 SWAP1 DUP13 SWAP1 PUSH1 0x4 ADD PUSH2 0x232C JUMP JUMPDEST PUSH1 0x20 PUSH1 0x40 MLOAD DUP1 DUP4 SUB DUP2 DUP7 DUP1 EXTCODESIZE ISZERO DUP1 ISZERO PUSH2 0xCE2 JUMPI PUSH1 0x0 DUP1 REVERT JUMPDEST POP GAS STATICCALL ISZERO DUP1 ISZERO PUSH2 0xCF6 JUMPI RETURNDATASIZE PUSH1 0x0 DUP1 RETURNDATACOPY RETURNDATASIZE PUSH1 0x0 REVERT JUMPDEST POP POP POP POP PUSH1 0x40 MLOAD RETURNDATASIZE PUSH1 0x1F NOT PUSH1 0x1F DUP3 ADD AND DUP3 ADD DUP1 PUSH1 0x40 MSTORE POP DUP2 ADD SWAP1 PUSH2 0xD1A SWAP2 SWAP1 PUSH2 0x1F34 JUMP JUMPDEST PUSH1 0x1 PUSH1 0x1 PUSH1 0xE0 SHL SUB NOT AND PUSH4 0xB135D3F PUSH1 0xE1 SHL EQ SWAP7 POP PUSH2 0xD53 SWAP6 POP POP POP POP POP POP JUMP JUMPDEST PUSH1 0x40 MLOAD PUSH3 0x461BCD PUSH1 0xE5 SHL DUP2 MSTORE PUSH1 0x4 ADD PUSH2 0x307 SWAP1 PUSH2 0x25AC JUMP JUMPDEST SWAP5 SWAP4 POP POP POP POP JUMP JUMPDEST PUSH1 0x1 PUSH1 0x1 PUSH1 0xE0 SHL SUB NOT DUP2 AND PUSH4 0x1FFC9A7 PUSH1 0xE0 SHL EQ SWAP2 SWAP1 POP JUMP JUMPDEST DUP2 MLOAD DUP2 MLOAD DUP2 EQ PUSH2 0xD96 JUMPI PUSH1 0x40 MLOAD PUSH3 0x461BCD PUSH1 0xE5 SHL DUP2 MSTORE PUSH1 0x4 ADD PUSH2 0x307 SWAP1 PUSH2 0x26F6 JUMP JUMPDEST DUP4 PUSH1 0x1 PUSH1 0x1 PUSH1 0xA0 SHL SUB AND DUP6 PUSH1 0x1 PUSH1 0x1 PUSH1 0xA0 SHL SUB AND EQ ISZERO DUP1 ISZERO PUSH2 0xDB8 JUMPI POP PUSH1 0x0 DUP2 GT JUMPDEST ISZERO PUSH2 0xF56 JUMPI PUSH1 0x0 DUP1 PUSH2 0xDD0 DUP6 PUSH1 0x0 DUP2 MLOAD DUP2 LT PUSH2 0x390 JUMPI INVALID JUMPDEST PUSH1 0x1 PUSH1 0x1 PUSH1 0xA0 SHL SUB DUP10 AND PUSH1 0x0 SWAP1 DUP2 MSTORE PUSH1 0x20 DUP2 DUP2 MSTORE PUSH1 0x40 DUP1 DUP4 KECCAK256 DUP6 DUP5 MSTORE SWAP1 SWAP2 MSTORE DUP2 KECCAK256 SLOAD DUP8 MLOAD SWAP4 SWAP6 POP SWAP2 SWAP4 POP SWAP2 PUSH2 0xE1B SWAP2 SWAP1 DUP5 SWAP1 DUP9 SWAP1 DUP6 SWAP1 PUSH2 0xE0C JUMPI INVALID JUMPDEST PUSH1 0x20 MUL PUSH1 0x20 ADD ADD MLOAD PUSH1 0x1 PUSH2 0x1624 JUMP JUMPDEST PUSH1 0x1 PUSH1 0x1 PUSH1 0xA0 SHL SUB DUP9 AND PUSH1 0x0 SWAP1 DUP2 MSTORE PUSH1 0x20 DUP2 DUP2 MSTORE PUSH1 0x40 DUP1 DUP4 KECCAK256 DUP8 DUP5 MSTORE SWAP1 SWAP2 MSTORE DUP2 KECCAK256 SLOAD DUP8 MLOAD SWAP3 SWAP4 POP SWAP1 SWAP2 PUSH2 0xE64 SWAP2 SWAP1 DUP6 SWAP1 DUP10 SWAP1 DUP6 SWAP1 PUSH2 0xE55 JUMPI INVALID JUMPDEST PUSH1 0x20 MUL PUSH1 0x20 ADD ADD MLOAD PUSH1 0x0 PUSH2 0x1624 JUMP JUMPDEST SWAP1 POP DUP4 PUSH1 0x1 JUMPDEST DUP7 DUP2 LT ISZERO PUSH2 0xF11 JUMPI PUSH2 0xE81 DUP10 DUP3 DUP2 MLOAD DUP2 LT PUSH2 0x390 JUMPI INVALID JUMPDEST SWAP1 SWAP7 POP SWAP5 POP DUP2 DUP7 EQ PUSH2 0xEE3 JUMPI PUSH1 0x1 PUSH1 0x1 PUSH1 0xA0 SHL SUB DUP12 DUP2 AND PUSH1 0x0 SWAP1 DUP2 MSTORE PUSH1 0x20 DUP2 DUP2 MSTORE PUSH1 0x40 DUP1 DUP4 KECCAK256 DUP7 DUP5 MSTORE DUP1 DUP4 MSTORE DUP2 DUP5 KECCAK256 SWAP9 SWAP1 SWAP9 SSTORE SWAP3 DUP14 AND DUP3 MSTORE DUP2 DUP2 MSTORE DUP3 DUP3 KECCAK256 SWAP5 DUP3 MSTORE DUP5 DUP2 MSTORE DUP3 DUP3 KECCAK256 SWAP6 SWAP1 SWAP6 SSTORE DUP8 DUP2 MSTORE SWAP5 DUP5 MSTORE DUP1 DUP6 KECCAK256 SLOAD SWAP3 SWAP1 SWAP4 MSTORE SWAP2 SWAP1 SWAP3 KECCAK256 SLOAD SWAP1 DUP5 SWAP1 JUMPDEST PUSH2 0xEF4 DUP5 DUP7 DUP11 DUP5 DUP2 MLOAD DUP2 LT PUSH2 0xE0C JUMPI INVALID JUMPDEST SWAP4 POP PUSH2 0xF07 DUP4 DUP7 DUP11 DUP5 DUP2 MLOAD DUP2 LT PUSH2 0xE55 JUMPI INVALID JUMPDEST SWAP3 POP PUSH1 0x1 ADD PUSH2 0xE6A JUMP JUMPDEST POP POP PUSH1 0x1 PUSH1 0x1 PUSH1 0xA0 SHL SUB DUP1 DUP11 AND PUSH1 0x0 SWAP1 DUP2 MSTORE PUSH1 0x20 DUP2 DUP2 MSTORE PUSH1 0x40 DUP1 DUP4 KECCAK256 DUP9 DUP5 MSTORE DUP3 MSTORE DUP1 DUP4 KECCAK256 SWAP6 SWAP1 SWAP6 SSTORE SWAP2 DUP11 AND DUP2 MSTORE DUP1 DUP3 MSTORE DUP4 DUP2 KECCAK256 SWAP6 DUP2 MSTORE SWAP5 SWAP1 MSTORE SWAP3 KECCAK256 SWAP2 SWAP1 SWAP2 SSTORE POP PUSH2 0xFBA JUMP JUMPDEST PUSH1 0x0 JUMPDEST DUP2 DUP2 LT ISZERO PUSH2 0xFB8 JUMPI DUP3 DUP2 DUP2 MLOAD DUP2 LT PUSH2 0xF6D JUMPI INVALID JUMPDEST PUSH1 0x20 MUL PUSH1 0x20 ADD ADD MLOAD PUSH2 0xF92 DUP8 DUP7 DUP5 DUP2 MLOAD DUP2 LT PUSH2 0xF85 JUMPI INVALID JUMPDEST PUSH1 0x20 MUL PUSH1 0x20 ADD ADD MLOAD PUSH2 0x238 JUMP JUMPDEST LT ISZERO PUSH2 0xFB0 JUMPI PUSH1 0x40 MLOAD PUSH3 0x461BCD PUSH1 0xE5 SHL DUP2 MSTORE PUSH1 0x4 ADD PUSH2 0x307 SWAP1 PUSH2 0x2878 JUMP JUMPDEST PUSH1 0x1 ADD PUSH2 0xF59 JUMP JUMPDEST POP JUMPDEST DUP4 PUSH1 0x1 PUSH1 0x1 PUSH1 0xA0 SHL SUB AND DUP6 PUSH1 0x1 PUSH1 0x1 PUSH1 0xA0 SHL SUB AND CALLER PUSH1 0x1 PUSH1 0x1 PUSH1 0xA0 SHL SUB AND PUSH32 0x4A39DC06D4C0DBC64B70AF90FD698A233A518AA5D07E595D983B8C0526C8F7FB DUP7 DUP7 PUSH1 0x40 MLOAD PUSH2 0x1009 SWAP3 SWAP2 SWAP1 PUSH2 0x2282 JUMP JUMPDEST PUSH1 0x40 MLOAD DUP1 SWAP2 SUB SWAP1 LOG4 POP POP POP POP POP JUMP JUMPDEST PUSH2 0x102A DUP6 PUSH1 0x1 PUSH1 0x1 PUSH1 0xA0 SHL SUB AND PUSH2 0x171A JUMP JUMPDEST ISZERO PUSH2 0x985 JUMPI PUSH1 0x0 DUP6 PUSH1 0x1 PUSH1 0x1 PUSH1 0xA0 SHL SUB AND PUSH4 0xBC197C81 DUP5 CALLER DUP11 DUP10 DUP10 DUP9 PUSH1 0x40 MLOAD DUP8 PUSH4 0xFFFFFFFF AND PUSH1 0xE0 SHL DUP2 MSTORE PUSH1 0x4 ADD PUSH2 0x1066 SWAP6 SWAP5 SWAP4 SWAP3 SWAP2 SWAP1 PUSH2 0x2170 JUMP JUMPDEST PUSH1 0x20 PUSH1 0x40 MLOAD DUP1 DUP4 SUB DUP2 PUSH1 0x0 DUP9 DUP1 EXTCODESIZE ISZERO DUP1 ISZERO PUSH2 0x1080 JUMPI PUSH1 0x0 DUP1 REVERT JUMPDEST POP DUP8 CALL ISZERO DUP1 ISZERO PUSH2 0x1094 JUMPI RETURNDATASIZE PUSH1 0x0 DUP1 RETURNDATACOPY RETURNDATASIZE PUSH1 0x0 REVERT JUMPDEST POP POP POP POP POP PUSH1 0x40 MLOAD RETURNDATASIZE PUSH1 0x1F NOT PUSH1 0x1F DUP3 ADD AND DUP3 ADD DUP1 PUSH1 0x40 MSTORE POP DUP2 ADD SWAP1 PUSH2 0x10B9 SWAP2 SWAP1 PUSH2 0x1F34 JUMP JUMPDEST SWAP1 POP PUSH1 0x1 PUSH1 0x1 PUSH1 0xE0 SHL SUB NOT DUP2 AND PUSH4 0xBC197C81 PUSH1 0xE0 SHL EQ PUSH2 0x983 JUMPI PUSH1 0x40 MLOAD PUSH3 0x461BCD PUSH1 0xE5 SHL DUP2 MSTORE PUSH1 0x4 ADD PUSH2 0x307 SWAP1 PUSH2 0x275E JUMP JUMPDEST PUSH1 0x60 DUP1 DUP4 DUP1 PUSH1 0x20 ADD SWAP1 MLOAD DUP2 ADD SWAP1 PUSH2 0x1102 SWAP2 SWAP1 PUSH2 0x1F50 JUMP JUMPDEST PUSH1 0x1 PUSH1 0x1 PUSH1 0xA0 SHL SUB DUP8 AND PUSH1 0x0 SWAP1 DUP2 MSTORE PUSH1 0x2 PUSH1 0x20 MSTORE PUSH1 0x40 DUP2 KECCAK256 SLOAD SWAP2 SWAP5 POP SWAP2 SWAP3 POP SWAP1 PUSH2 0x112D DUP4 PUSH1 0x41 PUSH2 0x15F5 JUMP JUMPDEST SWAP1 POP DUP2 DUP2 LT DUP1 ISZERO SWAP1 PUSH2 0x1141 JUMPI POP DUP2 PUSH1 0x64 ADD DUP2 LT JUMPDEST PUSH2 0x115D JUMPI PUSH1 0x40 MLOAD PUSH3 0x461BCD PUSH1 0xE5 SHL DUP2 MSTORE PUSH1 0x4 ADD PUSH2 0x307 SWAP1 PUSH2 0x24FC JUMP JUMPDEST PUSH1 0x0 PUSH2 0x1199 DUP7 DUP4 DUP8 DUP1 MLOAD SWAP1 PUSH1 0x20 ADD KECCAK256 PUSH1 0x40 MLOAD PUSH1 0x20 ADD PUSH2 0x117E SWAP4 SWAP3 SWAP2 SWAP1 PUSH2 0x20E1 JUMP JUMPDEST PUSH1 0x40 MLOAD PUSH1 0x20 DUP2 DUP4 SUB SUB DUP2 MSTORE SWAP1 PUSH1 0x40 MSTORE DUP1 MLOAD SWAP1 PUSH1 0x20 ADD KECCAK256 PUSH2 0x1754 JUMP JUMPDEST SWAP1 POP PUSH1 0x60 DUP7 DUP4 DUP8 PUSH1 0x40 MLOAD PUSH1 0x20 ADD PUSH2 0x11B2 SWAP4 SWAP3 SWAP2 SWAP1 PUSH2 0x2108 JUMP JUMPDEST PUSH1 0x40 DUP1 MLOAD PUSH1 0x1F NOT DUP2 DUP5 SUB ADD DUP2 MSTORE DUP3 DUP3 MSTORE PUSH1 0x1 PUSH1 0x1 PUSH1 0xA0 SHL SUB DUP13 AND PUSH1 0x0 DUP2 DUP2 MSTORE PUSH1 0x2 PUSH1 0x20 MSTORE SWAP3 SWAP1 SWAP3 KECCAK256 PUSH1 0x1 DUP8 ADD SWAP1 DUP2 SWAP1 SSTORE SWAP1 SWAP4 POP SWAP1 SWAP2 PUSH32 0xB861B7BDBE611A846AB271B8D2810391BC8B5A968F390C322438ECAB66BCCF59 SWAP2 PUSH2 0x1212 SWAP2 PUSH2 0x2C70 JUMP JUMPDEST PUSH1 0x40 MLOAD DUP1 SWAP2 SUB SWAP1 LOG2 PUSH2 0x1226 DUP10 DUP4 DUP4 DUP9 PUSH2 0x98D JUMP JUMPDEST PUSH2 0x1242 JUMPI PUSH1 0x40 MLOAD PUSH3 0x461BCD PUSH1 0xE5 SHL DUP2 MSTORE PUSH1 0x4 ADD PUSH2 0x307 SWAP1 PUSH2 0x25F7 JUMP JUMPDEST POP POP POP POP POP SWAP4 SWAP3 POP POP POP JUMP JUMPDEST PUSH1 0x0 PUSH2 0x125D DUP3 PUSH1 0x60 ADD MLOAD PUSH2 0x15A7 JUMP JUMPDEST PUSH1 0xF8 SHR SWAP1 POP PUSH1 0x2 DUP2 LT PUSH2 0x1282 JUMPI PUSH1 0x40 MLOAD PUSH3 0x461BCD PUSH1 0xE5 SHL DUP2 MSTORE PUSH1 0x4 ADD PUSH2 0x307 SWAP1 PUSH2 0x2AF9 JUMP JUMPDEST PUSH1 0x0 DUP2 PUSH1 0xFF AND PUSH1 0x2 DUP2 GT ISZERO PUSH2 0x1293 JUMPI INVALID JUMPDEST DUP4 MLOAD PUSH1 0x40 DUP6 ADD MLOAD SWAP2 SWAP3 POP PUSH1 0x0 SWAP2 DUP3 SWAP2 DUP3 SWAP2 PUSH1 0x1 PUSH1 0x1 PUSH1 0xA0 SHL SUB AND ISZERO PUSH2 0x12BC JUMPI DUP7 PUSH1 0x40 ADD MLOAD PUSH2 0x12BE JUMP JUMPDEST CALLER JUMPDEST SWAP3 POP PUSH1 0x0 DUP6 PUSH1 0x2 DUP2 GT ISZERO PUSH2 0x12CE JUMPI INVALID JUMPDEST EQ ISZERO PUSH2 0x139A JUMPI DUP7 PUSH1 0x60 ADD MLOAD DUP1 PUSH1 0x20 ADD SWAP1 MLOAD DUP2 ADD SWAP1 PUSH2 0x12EC SWAP2 SWAP1 PUSH2 0x1A53 JUMP JUMPDEST SWAP1 SWAP5 POP SWAP2 POP PUSH1 0x1 PUSH1 0x1 PUSH1 0xA0 SHL SUB DUP5 AND ADDRESS EQ ISZERO PUSH2 0x1330 JUMPI PUSH2 0x130E DUP9 DUP5 DUP5 DUP5 PUSH2 0x145D JUMP JUMPDEST PUSH2 0x132B DUP9 DUP5 DUP5 GAS DUP6 PUSH1 0x40 MLOAD DUP1 PUSH1 0x20 ADD PUSH1 0x40 MSTORE DUP1 PUSH1 0x0 DUP2 MSTORE POP PUSH2 0x14D4 JUMP JUMPDEST PUSH2 0x1395 JUMP JUMPDEST PUSH1 0x40 MLOAD PUSH4 0x79212195 PUSH1 0xE1 SHL DUP2 MSTORE PUSH1 0x1 PUSH1 0x1 PUSH1 0xA0 SHL SUB DUP6 AND SWAP1 PUSH4 0xF242432A SWAP1 PUSH2 0x1362 SWAP1 DUP12 SWAP1 DUP8 SWAP1 DUP8 SWAP1 DUP8 SWAP1 PUSH1 0x4 ADD PUSH2 0x2237 JUMP JUMPDEST PUSH1 0x0 PUSH1 0x40 MLOAD DUP1 DUP4 SUB DUP2 PUSH1 0x0 DUP8 DUP1 EXTCODESIZE ISZERO DUP1 ISZERO PUSH2 0x137C JUMPI PUSH1 0x0 DUP1 REVERT JUMPDEST POP GAS CALL ISZERO DUP1 ISZERO PUSH2 0x1390 JUMPI RETURNDATASIZE PUSH1 0x0 DUP1 RETURNDATACOPY RETURNDATASIZE PUSH1 0x0 REVERT JUMPDEST POP POP POP POP JUMPDEST PUSH2 0x1453 JUMP JUMPDEST DUP7 PUSH1 0x60 ADD MLOAD DUP1 PUSH1 0x20 ADD SWAP1 MLOAD DUP2 ADD SWAP1 PUSH2 0x13B2 SWAP2 SWAP1 PUSH2 0x1A37 JUMP JUMPDEST PUSH1 0x40 MLOAD PUSH4 0x23B872DD PUSH1 0xE0 SHL DUP2 MSTORE SWAP1 SWAP5 POP PUSH1 0x1 PUSH1 0x1 PUSH1 0xA0 SHL SUB DUP6 AND SWAP1 PUSH4 0x23B872DD SWAP1 PUSH2 0x13E5 SWAP1 DUP12 SWAP1 DUP8 SWAP1 DUP7 SWAP1 PUSH1 0x4 ADD PUSH2 0x2213 JUMP JUMPDEST PUSH1 0x20 PUSH1 0x40 MLOAD DUP1 DUP4 SUB DUP2 PUSH1 0x0 DUP8 DUP1 EXTCODESIZE ISZERO DUP1 ISZERO PUSH2 0x13FF JUMPI PUSH1 0x0 DUP1 REVERT JUMPDEST POP GAS CALL ISZERO DUP1 ISZERO PUSH2 0x1413 JUMPI RETURNDATASIZE PUSH1 0x0 DUP1 RETURNDATACOPY RETURNDATASIZE PUSH1 0x0 REVERT JUMPDEST POP POP POP POP PUSH1 0x40 MLOAD RETURNDATASIZE PUSH1 0x1F NOT PUSH1 0x1F DUP3 ADD AND DUP3 ADD DUP1 PUSH1 0x40 MSTORE POP DUP2 ADD SWAP1 PUSH2 0x1437 SWAP2 SWAP1 PUSH2 0x1EFC JUMP JUMPDEST PUSH2 0x1453 JUMPI PUSH1 0x40 MLOAD PUSH3 0x461BCD PUSH1 0xE5 SHL DUP2 MSTORE PUSH1 0x4 ADD PUSH2 0x307 SWAP1 PUSH2 0x2442 JUMP JUMPDEST POP POP POP POP POP POP POP POP JUMP JUMPDEST PUSH2 0x146A DUP5 DUP4 DUP4 PUSH1 0x1 PUSH2 0x17ED JUMP JUMPDEST PUSH2 0x1477 DUP4 DUP4 DUP4 PUSH1 0x0 PUSH2 0x17ED JUMP JUMPDEST DUP3 PUSH1 0x1 PUSH1 0x1 PUSH1 0xA0 SHL SUB AND DUP5 PUSH1 0x1 PUSH1 0x1 PUSH1 0xA0 SHL SUB AND CALLER PUSH1 0x1 PUSH1 0x1 PUSH1 0xA0 SHL SUB AND PUSH32 0xC3D58168C5AE7397731D063D5BBF3D657854427343F4C083240F7AACAA2D0F62 DUP6 DUP6 PUSH1 0x40 MLOAD PUSH2 0x14C6 SWAP3 SWAP2 SWAP1 PUSH2 0x2C79 JUMP JUMPDEST PUSH1 0x40 MLOAD DUP1 SWAP2 SUB SWAP1 LOG4 POP POP POP POP JUMP JUMPDEST PUSH2 0x14E6 DUP6 PUSH1 0x1 PUSH1 0x1 PUSH1 0xA0 SHL SUB AND PUSH2 0x171A JUMP JUMPDEST ISZERO PUSH2 0x985 JUMPI PUSH1 0x0 DUP6 PUSH1 0x1 PUSH1 0x1 PUSH1 0xA0 SHL SUB AND PUSH4 0xF23A6E61 DUP5 CALLER DUP11 DUP10 DUP10 DUP9 PUSH1 0x40 MLOAD DUP8 PUSH4 0xFFFFFFFF AND PUSH1 0xE0 SHL DUP2 MSTORE PUSH1 0x4 ADD PUSH2 0x1522 SWAP6 SWAP5 SWAP4 SWAP3 SWAP2 SWAP1 PUSH2 0x21CE JUMP JUMPDEST PUSH1 0x20 PUSH1 0x40 MLOAD DUP1 DUP4 SUB DUP2 PUSH1 0x0 DUP9 DUP1 EXTCODESIZE ISZERO DUP1 ISZERO PUSH2 0x153C JUMPI PUSH1 0x0 DUP1 REVERT JUMPDEST POP DUP8 CALL ISZERO DUP1 ISZERO PUSH2 0x1550 JUMPI RETURNDATASIZE PUSH1 0x0 DUP1 RETURNDATACOPY RETURNDATASIZE PUSH1 0x0 REVERT JUMPDEST POP POP POP POP POP PUSH1 0x40 MLOAD RETURNDATASIZE PUSH1 0x1F NOT PUSH1 0x1F DUP3 ADD AND DUP3 ADD DUP1 PUSH1 0x40 MSTORE POP DUP2 ADD SWAP1 PUSH2 0x1575 SWAP2 SWAP1 PUSH2 0x1F34 JUMP JUMPDEST SWAP1 POP PUSH1 0x1 PUSH1 0x1 PUSH1 0xE0 SHL SUB NOT DUP2 AND PUSH4 0xF23A6E61 PUSH1 0xE0 SHL EQ PUSH2 0x983 JUMPI PUSH1 0x40 MLOAD PUSH3 0x461BCD PUSH1 0xE5 SHL DUP2 MSTORE PUSH1 0x4 ADD PUSH2 0x307 SWAP1 PUSH2 0x296D JUMP JUMPDEST PUSH1 0x0 DUP1 DUP3 MLOAD GT PUSH2 0x15C9 JUMPI PUSH1 0x40 MLOAD PUSH3 0x461BCD PUSH1 0xE5 SHL DUP2 MSTORE PUSH1 0x4 ADD PUSH2 0x307 SWAP1 PUSH2 0x249F JUMP JUMPDEST DUP2 PUSH1 0x1 DUP4 MLOAD SUB DUP2 MLOAD DUP2 LT PUSH2 0x15D9 JUMPI INVALID JUMPDEST ADD PUSH1 0x20 ADD MLOAD DUP3 MLOAD PUSH1 0x0 NOT ADD SWAP1 SWAP3 MSTORE POP PUSH1 0x1 PUSH1 0x1 PUSH1 0xF8 SHL SUB NOT AND SWAP1 JUMP JUMPDEST PUSH1 0x0 DUP2 PUSH1 0x20 ADD DUP4 MLOAD LT ISZERO PUSH2 0x161B JUMPI PUSH1 0x40 MLOAD PUSH3 0x461BCD PUSH1 0xE5 SHL DUP2 MSTORE PUSH1 0x4 ADD PUSH2 0x307 SWAP1 PUSH2 0x2B56 JUMP JUMPDEST POP ADD PUSH1 0x20 ADD MLOAD SWAP1 JUMP JUMPDEST PUSH1 0x0 PUSH1 0x20 DUP5 MUL PUSH4 0xFFFFFFFF DUP3 DUP5 PUSH1 0x1 DUP2 GT ISZERO PUSH2 0x163C JUMPI INVALID JUMPDEST EQ ISZERO PUSH2 0x1698 JUMPI DUP5 DUP3 SHL DUP8 ADD SWAP3 POP DUP7 DUP4 LT ISZERO PUSH2 0x1669 JUMPI PUSH1 0x40 MLOAD PUSH3 0x461BCD PUSH1 0xE5 SHL DUP2 MSTORE PUSH1 0x4 ADD PUSH2 0x307 SWAP1 PUSH2 0x2C1E JUMP JUMPDEST PUSH5 0x100000000 DUP8 DUP4 SHR DUP3 AND DUP7 ADD LT PUSH2 0x1693 JUMPI PUSH1 0x40 MLOAD PUSH3 0x461BCD PUSH1 0xE5 SHL DUP2 MSTORE PUSH1 0x4 ADD PUSH2 0x307 SWAP1 PUSH2 0x2C1E JUMP JUMPDEST PUSH2 0x1710 JUMP JUMPDEST PUSH1 0x1 DUP5 PUSH1 0x1 DUP2 GT ISZERO PUSH2 0x16A6 JUMPI INVALID JUMPDEST EQ ISZERO PUSH2 0x16F8 JUMPI DUP5 DUP3 SHL DUP8 SUB SWAP3 POP DUP7 DUP4 GT ISZERO PUSH2 0x16D3 JUMPI PUSH1 0x40 MLOAD PUSH3 0x461BCD PUSH1 0xE5 SHL DUP2 MSTORE PUSH1 0x4 ADD PUSH2 0x307 SWAP1 PUSH2 0x2559 JUMP JUMPDEST DUP5 DUP2 DUP4 DUP10 SWAP1 SHR AND LT ISZERO PUSH2 0x1693 JUMPI PUSH1 0x40 MLOAD PUSH3 0x461BCD PUSH1 0xE5 SHL DUP2 MSTORE PUSH1 0x4 ADD PUSH2 0x307 SWAP1 PUSH2 0x2559 JUMP JUMPDEST PUSH1 0x40 MLOAD PUSH3 0x461BCD PUSH1 0xE5 SHL DUP2 MSTORE PUSH1 0x4 ADD PUSH2 0x307 SWAP1 PUSH2 0x2BB3 JUMP JUMPDEST POP POP SWAP5 SWAP4 POP POP POP POP JUMP JUMPDEST PUSH1 0x0 DUP2 EXTCODEHASH DUP1 ISZERO DUP1 ISZERO SWAP1 PUSH2 0x174D JUMPI POP PUSH32 0xC5D2460186F7233C927E7DB2DCC703C0E500B653CA82273B7BFAD8045D85A470 DUP2 EQ ISZERO JUMPDEST SWAP4 SWAP3 POP POP POP JUMP JUMPDEST PUSH1 0x0 PUSH1 0x40 MLOAD DUP1 PUSH1 0x40 ADD PUSH1 0x40 MSTORE DUP1 PUSH1 0x2 DUP2 MSTORE PUSH1 0x20 ADD PUSH2 0x1901 PUSH1 0xF0 SHL DUP2 MSTORE POP PUSH32 0x35AFF83D86937D35B32E04F0DDC6FF469290EEF2F1B692D8A815C89404D4749 PUSH1 0x0 SHL ADDRESS PUSH1 0x40 MLOAD PUSH1 0x20 ADD PUSH2 0x17A7 SWAP3 SWAP2 SWAP1 PUSH2 0x22B2 JUMP JUMPDEST PUSH1 0x40 MLOAD PUSH1 0x20 DUP2 DUP4 SUB SUB DUP2 MSTORE SWAP1 PUSH1 0x40 MSTORE DUP1 MLOAD SWAP1 PUSH1 0x20 ADD KECCAK256 DUP4 PUSH1 0x40 MLOAD PUSH1 0x20 ADD PUSH2 0x17D0 SWAP4 SWAP3 SWAP2 SWAP1 PUSH2 0x20E1 JUMP JUMPDEST PUSH1 0x40 MLOAD PUSH1 0x20 DUP2 DUP4 SUB SUB DUP2 MSTORE SWAP1 PUSH1 0x40 MSTORE DUP1 MLOAD SWAP1 PUSH1 0x20 ADD KECCAK256 SWAP1 POP SWAP2 SWAP1 POP JUMP JUMPDEST PUSH1 0x0 DUP1 PUSH2 0x17F9 DUP6 PUSH2 0x7C2 JUMP JUMPDEST PUSH1 0x1 PUSH1 0x1 PUSH1 0xA0 SHL SUB DUP9 AND PUSH1 0x0 SWAP1 DUP2 MSTORE PUSH1 0x20 DUP2 DUP2 MSTORE PUSH1 0x40 DUP1 DUP4 KECCAK256 DUP6 DUP5 MSTORE SWAP1 SWAP2 MSTORE SWAP1 KECCAK256 SLOAD SWAP2 SWAP4 POP SWAP2 POP PUSH2 0x182C SWAP1 DUP3 DUP7 DUP7 PUSH2 0x1624 JUMP JUMPDEST PUSH1 0x1 PUSH1 0x1 PUSH1 0xA0 SHL SUB SWAP1 SWAP7 AND PUSH1 0x0 SWAP1 DUP2 MSTORE PUSH1 0x20 DUP2 DUP2 MSTORE PUSH1 0x40 DUP1 DUP4 KECCAK256 SWAP5 DUP4 MSTORE SWAP4 SWAP1 MSTORE SWAP2 SWAP1 SWAP2 KECCAK256 SWAP5 SWAP1 SWAP5 SSTORE POP POP POP POP JUMP JUMPDEST PUSH1 0x40 MLOAD DUP1 PUSH1 0x80 ADD PUSH1 0x40 MSTORE DUP1 PUSH1 0x0 DUP2 MSTORE PUSH1 0x20 ADD PUSH1 0x0 DUP2 MSTORE PUSH1 0x20 ADD PUSH1 0x0 PUSH1 0x1 PUSH1 0x1 PUSH1 0xA0 SHL SUB AND DUP2 MSTORE PUSH1 0x20 ADD PUSH1 0x60 DUP2 MSTORE POP SWAP1 JUMP JUMPDEST PUSH1 0x0 DUP3 PUSH1 0x1F DUP4 ADD SLT PUSH2 0x189B JUMPI DUP1 DUP2 REVERT JUMPDEST DUP2 CALLDATALOAD PUSH2 0x18AE PUSH2 0x18A9 DUP3 PUSH2 0x2CAA JUMP JUMPDEST PUSH2 0x2C87 JUMP JUMPDEST DUP2 DUP2 MSTORE SWAP2 POP PUSH1 0x20 DUP1 DUP4 ADD SWAP1 DUP5 DUP2 ADD DUP2 DUP5 MUL DUP7 ADD DUP3 ADD DUP8 LT ISZERO PUSH2 0x18CF JUMPI PUSH1 0x0 DUP1 REVERT JUMPDEST PUSH1 0x0 JUMPDEST DUP5 DUP2 LT ISZERO PUSH2 0x18EE JUMPI DUP2 CALLDATALOAD DUP5 MSTORE SWAP3 DUP3 ADD SWAP3 SWAP1 DUP3 ADD SWAP1 PUSH1 0x1 ADD PUSH2 0x18D2 JUMP JUMPDEST POP POP POP POP POP SWAP3 SWAP2 POP POP JUMP JUMPDEST PUSH1 0x0 DUP3 PUSH1 0x1F DUP4 ADD SLT PUSH2 0x1909 JUMPI DUP1 DUP2 REVERT JUMPDEST DUP2 CALLDATALOAD PUSH2 0x1917 PUSH2 0x18A9 DUP3 PUSH2 0x2CC7 JUMP JUMPDEST SWAP2 POP DUP1 DUP3 MSTORE DUP4 PUSH1 0x20 DUP3 DUP6 ADD ADD GT ISZERO PUSH2 0x192E JUMPI PUSH1 0x0 DUP1 REVERT JUMPDEST DUP1 PUSH1 0x20 DUP5 ADD PUSH1 0x20 DUP5 ADD CALLDATACOPY PUSH1 0x0 SWAP1 DUP3 ADD PUSH1 0x20 ADD MSTORE SWAP3 SWAP2 POP POP JUMP JUMPDEST PUSH1 0x0 DUP3 PUSH1 0x1F DUP4 ADD SLT PUSH2 0x1957 JUMPI DUP1 DUP2 REVERT JUMPDEST DUP2 MLOAD PUSH2 0x1965 PUSH2 0x18A9 DUP3 PUSH2 0x2CC7 JUMP JUMPDEST SWAP2 POP DUP1 DUP3 MSTORE DUP4 PUSH1 0x20 DUP3 DUP6 ADD ADD GT ISZERO PUSH2 0x197C JUMPI PUSH1 0x0 DUP1 REVERT JUMPDEST PUSH2 0x198D DUP2 PUSH1 0x20 DUP5 ADD PUSH1 0x20 DUP7 ADD PUSH2 0x2CE8 JUMP JUMPDEST POP SWAP3 SWAP2 POP POP JUMP JUMPDEST PUSH1 0x0 PUSH1 0x80 DUP3 DUP5 SUB SLT ISZERO PUSH2 0x19A5 JUMPI DUP1 DUP2 REVERT JUMPDEST PUSH1 0x40 MLOAD PUSH1 0x80 DUP2 ADD PUSH1 0x1 PUSH1 0x1 PUSH1 0x40 SHL SUB DUP3 DUP3 LT DUP2 DUP4 GT OR ISZERO PUSH2 0x19C2 JUMPI INVALID JUMPDEST DUP2 PUSH1 0x40 MSTORE DUP3 SWAP4 POP DUP5 MLOAD DUP4 MSTORE PUSH1 0x20 DUP6 ADD MLOAD PUSH1 0x20 DUP5 ADD MSTORE PUSH1 0x40 DUP6 ADD MLOAD SWAP2 POP PUSH2 0x19E7 DUP3 PUSH2 0x2D18 JUMP JUMPDEST DUP2 PUSH1 0x40 DUP5 ADD MSTORE PUSH1 0x60 DUP6 ADD MLOAD SWAP2 POP DUP1 DUP3 GT ISZERO PUSH2 0x1A01 JUMPI PUSH1 0x0 DUP1 REVERT JUMPDEST POP PUSH2 0x1A0E DUP6 DUP3 DUP7 ADD PUSH2 0x1947 JUMP JUMPDEST PUSH1 0x60 DUP4 ADD MSTORE POP POP SWAP3 SWAP2 POP POP JUMP JUMPDEST PUSH1 0x0 PUSH1 0x20 DUP3 DUP5 SUB SLT ISZERO PUSH2 0x1A2C JUMPI DUP1 DUP2 REVERT JUMPDEST DUP2 CALLDATALOAD PUSH2 0x174D DUP2 PUSH2 0x2D18 JUMP JUMPDEST PUSH1 0x0 PUSH1 0x20 DUP3 DUP5 SUB SLT ISZERO PUSH2 0x1A48 JUMPI DUP1 DUP2 REVERT JUMPDEST DUP2 MLOAD PUSH2 0x174D DUP2 PUSH2 0x2D18 JUMP JUMPDEST PUSH1 0x0 DUP1 PUSH1 0x40 DUP4 DUP6 SUB SLT ISZERO PUSH2 0x1A65 JUMPI DUP1 DUP2 REVERT JUMPDEST DUP3 MLOAD PUSH2 0x1A70 DUP2 PUSH2 0x2D18 JUMP JUMPDEST PUSH1 0x20 SWAP4 SWAP1 SWAP4 ADD MLOAD SWAP3 SWAP5 SWAP3 SWAP4 POP POP POP JUMP JUMPDEST PUSH1 0x0 DUP1 PUSH1 0x40 DUP4 DUP6 SUB SLT ISZERO PUSH2 0x1A92 JUMPI DUP2 DUP3 REVERT JUMPDEST DUP3 CALLDATALOAD PUSH2 0x1A9D DUP2 PUSH2 0x2D18 JUMP JUMPDEST SWAP2 POP PUSH1 0x20 DUP4 ADD CALLDATALOAD PUSH2 0x1AAD DUP2 PUSH2 0x2D18 JUMP JUMPDEST DUP1 SWAP2 POP POP SWAP3 POP SWAP3 SWAP1 POP JUMP JUMPDEST PUSH1 0x0 DUP1 PUSH1 0x0 DUP1 PUSH1 0x0 DUP1 PUSH1 0xC0 DUP8 DUP10 SUB SLT ISZERO PUSH2 0x1AD0 JUMPI DUP2 DUP3 REVERT JUMPDEST DUP7 CALLDATALOAD PUSH2 0x1ADB DUP2 PUSH2 0x2D18 JUMP JUMPDEST SWAP6 POP PUSH1 0x20 DUP8 ADD CALLDATALOAD PUSH2 0x1AEB DUP2 PUSH2 0x2D18 JUMP JUMPDEST SWAP5 POP PUSH1 0x40 DUP8 ADD CALLDATALOAD PUSH1 0x1 PUSH1 0x1 PUSH1 0x40 SHL SUB DUP1 DUP3 GT ISZERO PUSH2 0x1B06 JUMPI DUP4 DUP5 REVERT JUMPDEST PUSH2 0x1B12 DUP11 DUP4 DUP12 ADD PUSH2 0x188B JUMP JUMPDEST SWAP6 POP PUSH1 0x60 DUP10 ADD CALLDATALOAD SWAP2 POP DUP1 DUP3 GT ISZERO PUSH2 0x1B27 JUMPI DUP4 DUP5 REVERT JUMPDEST PUSH2 0x1B33 DUP11 DUP4 DUP12 ADD PUSH2 0x188B JUMP JUMPDEST SWAP5 POP PUSH1 0x80 DUP10 ADD CALLDATALOAD SWAP2 POP PUSH2 0x1B45 DUP3 PUSH2 0x2D30 JUMP JUMPDEST SWAP1 SWAP3 POP PUSH1 0xA0 DUP9 ADD CALLDATALOAD SWAP1 DUP1 DUP3 GT ISZERO PUSH2 0x1B5A JUMPI DUP3 DUP4 REVERT JUMPDEST POP PUSH2 0x1B67 DUP10 DUP3 DUP11 ADD PUSH2 0x18F9 JUMP JUMPDEST SWAP2 POP POP SWAP3 SWAP6 POP SWAP3 SWAP6 POP SWAP3 SWAP6 JUMP JUMPDEST PUSH1 0x0 DUP1 PUSH1 0x0 DUP1 PUSH1 0x0 PUSH1 0xA0 DUP7 DUP9 SUB SLT ISZERO PUSH2 0x1B8B JUMPI DUP1 DUP2 REVERT JUMPDEST DUP6 CALLDATALOAD PUSH2 0x1B96 DUP2 PUSH2 0x2D18 JUMP JUMPDEST SWAP5 POP PUSH1 0x20 DUP7 ADD CALLDATALOAD PUSH2 0x1BA6 DUP2 PUSH2 0x2D18 JUMP JUMPDEST SWAP4 POP PUSH1 0x40 DUP7 ADD CALLDATALOAD PUSH1 0x1 PUSH1 0x1 PUSH1 0x40 SHL SUB DUP1 DUP3 GT ISZERO PUSH2 0x1BC1 JUMPI DUP3 DUP4 REVERT JUMPDEST PUSH2 0x1BCD DUP10 DUP4 DUP11 ADD PUSH2 0x188B JUMP JUMPDEST SWAP5 POP PUSH1 0x60 DUP9 ADD CALLDATALOAD SWAP2 POP DUP1 DUP3 GT ISZERO PUSH2 0x1BE2 JUMPI DUP3 DUP4 REVERT JUMPDEST PUSH2 0x1BEE DUP10 DUP4 DUP11 ADD PUSH2 0x188B JUMP JUMPDEST SWAP4 POP PUSH1 0x80 DUP9 ADD CALLDATALOAD SWAP2 POP DUP1 DUP3 GT ISZERO PUSH2 0x1C03 JUMPI DUP3 DUP4 REVERT JUMPDEST POP PUSH2 0x1C10 DUP9 DUP3 DUP10 ADD PUSH2 0x18F9 JUMP JUMPDEST SWAP2 POP POP SWAP3 SWAP6 POP SWAP3 SWAP6 SWAP1 SWAP4 POP JUMP JUMPDEST PUSH1 0x0 DUP1 PUSH1 0x0 DUP1 PUSH1 0x0 PUSH1 0xA0 DUP7 DUP9 SUB SLT ISZERO PUSH2 0x1C34 JUMPI DUP1 DUP2 REVERT JUMPDEST DUP6 CALLDATALOAD PUSH2 0x1C3F DUP2 PUSH2 0x2D18 JUMP JUMPDEST SWAP5 POP PUSH1 0x20 DUP7 ADD CALLDATALOAD PUSH2 0x1C4F DUP2 PUSH2 0x2D18 JUMP JUMPDEST SWAP4 POP PUSH1 0x40 DUP7 ADD CALLDATALOAD PUSH2 0x1C5F DUP2 PUSH2 0x2D30 JUMP JUMPDEST SWAP3 POP PUSH1 0x60 DUP7 ADD CALLDATALOAD PUSH2 0x1C6F DUP2 PUSH2 0x2D30 JUMP JUMPDEST SWAP2 POP PUSH1 0x80 DUP7 ADD CALLDATALOAD PUSH1 0x1 PUSH1 0x1 PUSH1 0x40 SHL SUB DUP2 GT ISZERO PUSH2 0x1C89 JUMPI DUP2 DUP3 REVERT JUMPDEST PUSH2 0x1C10 DUP9 DUP3 DUP10 ADD PUSH2 0x18F9 JUMP JUMPDEST PUSH1 0x0 DUP1 PUSH1 0x0 DUP1 PUSH1 0x0 DUP1 PUSH1 0xC0 DUP8 DUP10 SUB SLT ISZERO PUSH2 0x1CAD JUMPI DUP4 DUP5 REVERT JUMPDEST DUP7 CALLDATALOAD PUSH2 0x1CB8 DUP2 PUSH2 0x2D18 JUMP JUMPDEST SWAP6 POP PUSH1 0x20 DUP8 ADD CALLDATALOAD PUSH2 0x1CC8 DUP2 PUSH2 0x2D18 JUMP JUMPDEST SWAP5 POP PUSH1 0x40 DUP8 ADD CALLDATALOAD SWAP4 POP PUSH1 0x60 DUP8 ADD CALLDATALOAD SWAP3 POP PUSH1 0x80 DUP8 ADD CALLDATALOAD PUSH2 0x1CE6 DUP2 PUSH2 0x2D30 JUMP JUMPDEST SWAP2 POP PUSH1 0xA0 DUP8 ADD CALLDATALOAD PUSH1 0x1 PUSH1 0x1 PUSH1 0x40 SHL SUB DUP2 GT ISZERO PUSH2 0x1D00 JUMPI DUP2 DUP3 REVERT JUMPDEST PUSH2 0x1B67 DUP10 DUP3 DUP11 ADD PUSH2 0x18F9 JUMP JUMPDEST PUSH1 0x0 DUP1 PUSH1 0x0 DUP1 PUSH1 0x0 PUSH1 0xA0 DUP7 DUP9 SUB SLT ISZERO PUSH2 0x1D23 JUMPI DUP3 DUP4 REVERT JUMPDEST DUP6 CALLDATALOAD PUSH2 0x1D2E DUP2 PUSH2 0x2D18 JUMP JUMPDEST SWAP5 POP PUSH1 0x20 DUP7 ADD CALLDATALOAD PUSH2 0x1D3E DUP2 PUSH2 0x2D18 JUMP JUMPDEST SWAP4 POP PUSH1 0x40 DUP7 ADD CALLDATALOAD SWAP3 POP PUSH1 0x60 DUP7 ADD CALLDATALOAD SWAP2 POP PUSH1 0x80 DUP7 ADD CALLDATALOAD PUSH1 0x1 PUSH1 0x1 PUSH1 0x40 SHL SUB DUP2 GT ISZERO PUSH2 0x1C89 JUMPI DUP2 DUP3 REVERT JUMPDEST PUSH1 0x0 DUP1 PUSH1 0x40 DUP4 DUP6 SUB SLT ISZERO PUSH2 0x1D78 JUMPI DUP2 DUP3 REVERT JUMPDEST DUP3 CALLDATALOAD PUSH2 0x1D83 DUP2 PUSH2 0x2D18 JUMP JUMPDEST SWAP2 POP PUSH1 0x20 DUP4 ADD CALLDATALOAD PUSH2 0x1AAD DUP2 PUSH2 0x2D30 JUMP JUMPDEST PUSH1 0x0 DUP1 PUSH1 0x0 DUP1 PUSH1 0x80 DUP6 DUP8 SUB SLT ISZERO PUSH2 0x1DA8 JUMPI DUP2 DUP3 REVERT JUMPDEST DUP5 CALLDATALOAD PUSH2 0x1DB3 DUP2 PUSH2 0x2D18 JUMP JUMPDEST SWAP4 POP PUSH1 0x20 DUP6 ADD CALLDATALOAD SWAP3 POP PUSH1 0x40 DUP6 ADD CALLDATALOAD PUSH1 0x1 PUSH1 0x1 PUSH1 0x40 SHL SUB DUP1 DUP3 GT ISZERO PUSH2 0x1DD5 JUMPI DUP4 DUP5 REVERT JUMPDEST PUSH2 0x1DE1 DUP9 DUP4 DUP10 ADD PUSH2 0x18F9 JUMP JUMPDEST SWAP4 POP PUSH1 0x60 DUP8 ADD CALLDATALOAD SWAP2 POP DUP1 DUP3 GT ISZERO PUSH2 0x1DF6 JUMPI DUP3 DUP4 REVERT JUMPDEST POP PUSH2 0x1E03 DUP8 DUP3 DUP9 ADD PUSH2 0x18F9 JUMP JUMPDEST SWAP2 POP POP SWAP3 SWAP6 SWAP2 SWAP5 POP SWAP3 POP JUMP JUMPDEST PUSH1 0x0 DUP1 PUSH1 0x40 DUP4 DUP6 SUB SLT ISZERO PUSH2 0x1E21 JUMPI DUP2 DUP3 REVERT JUMPDEST DUP3 CALLDATALOAD PUSH2 0x1E2C DUP2 PUSH2 0x2D18 JUMP JUMPDEST SWAP5 PUSH1 0x20 SWAP4 SWAP1 SWAP4 ADD CALLDATALOAD SWAP4 POP POP POP JUMP JUMPDEST PUSH1 0x0 DUP1 PUSH1 0x40 DUP4 DUP6 SUB SLT ISZERO PUSH2 0x1E4C JUMPI DUP2 DUP3 REVERT JUMPDEST DUP3 CALLDATALOAD PUSH1 0x1 PUSH1 0x1 PUSH1 0x40 SHL SUB DUP1 DUP3 GT ISZERO PUSH2 0x1E62 JUMPI DUP4 DUP5 REVERT JUMPDEST DUP2 DUP6 ADD SWAP2 POP DUP6 PUSH1 0x1F DUP4 ADD SLT PUSH2 0x1E75 JUMPI DUP4 DUP5 REVERT JUMPDEST DUP2 CALLDATALOAD PUSH2 0x1E83 PUSH2 0x18A9 DUP3 PUSH2 0x2CAA JUMP JUMPDEST DUP1 DUP3 DUP3 MSTORE PUSH1 0x20 DUP1 DUP4 ADD SWAP3 POP DUP1 DUP7 ADD DUP11 DUP3 DUP4 DUP8 MUL DUP10 ADD ADD GT ISZERO PUSH2 0x1EA3 JUMPI DUP9 DUP10 REVERT JUMPDEST DUP9 SWAP7 POP JUMPDEST DUP5 DUP8 LT ISZERO PUSH2 0x1ECE JUMPI DUP1 CALLDATALOAD PUSH2 0x1EBA DUP2 PUSH2 0x2D18 JUMP JUMPDEST DUP5 MSTORE PUSH1 0x1 SWAP7 SWAP1 SWAP7 ADD SWAP6 SWAP3 DUP2 ADD SWAP3 DUP2 ADD PUSH2 0x1EA7 JUMP JUMPDEST POP SWAP1 SWAP7 POP DUP8 ADD CALLDATALOAD SWAP4 POP POP POP DUP1 DUP3 GT ISZERO PUSH2 0x1EE5 JUMPI DUP3 DUP4 REVERT JUMPDEST POP PUSH2 0x1EF2 DUP6 DUP3 DUP7 ADD PUSH2 0x188B JUMP JUMPDEST SWAP2 POP POP SWAP3 POP SWAP3 SWAP1 POP JUMP JUMPDEST PUSH1 0x0 PUSH1 0x20 DUP3 DUP5 SUB SLT ISZERO PUSH2 0x1F0D JUMPI DUP1 DUP2 REVERT JUMPDEST DUP2 MLOAD PUSH2 0x174D DUP2 PUSH2 0x2D30 JUMP JUMPDEST PUSH1 0x0 PUSH1 0x20 DUP3 DUP5 SUB SLT ISZERO PUSH2 0x1F29 JUMPI DUP1 DUP2 REVERT JUMPDEST DUP2 CALLDATALOAD PUSH2 0x174D DUP2 PUSH2 0x2D3E JUMP JUMPDEST PUSH1 0x0 PUSH1 0x20 DUP3 DUP5 SUB SLT ISZERO PUSH2 0x1F45 JUMPI DUP1 DUP2 REVERT JUMPDEST DUP2 MLOAD PUSH2 0x174D DUP2 PUSH2 0x2D3E JUMP JUMPDEST PUSH1 0x0 DUP1 PUSH1 0x40 DUP4 DUP6 SUB SLT ISZERO PUSH2 0x1F62 JUMPI DUP2 DUP3 REVERT JUMPDEST DUP3 MLOAD PUSH1 0x1 PUSH1 0x1 PUSH1 0x40 SHL SUB DUP1 DUP3 GT ISZERO PUSH2 0x1F78 JUMPI DUP4 DUP5 REVERT JUMPDEST PUSH2 0x1F84 DUP7 DUP4 DUP8 ADD PUSH2 0x1947 JUMP JUMPDEST SWAP4 POP PUSH1 0x20 DUP6 ADD MLOAD SWAP2 POP DUP1 DUP3 GT ISZERO PUSH2 0x1F99 JUMPI DUP3 DUP4 REVERT JUMPDEST POP PUSH2 0x1EF2 DUP6 DUP3 DUP7 ADD PUSH2 0x1947 JUMP JUMPDEST PUSH1 0x0 PUSH1 0x20 DUP3 DUP5 SUB SLT ISZERO PUSH2 0x1FB7 JUMPI DUP1 DUP2 REVERT JUMPDEST DUP2 MLOAD PUSH1 0x1 PUSH1 0x1 PUSH1 0x40 SHL SUB DUP2 GT ISZERO PUSH2 0x1FCC JUMPI DUP2 DUP3 REVERT JUMPDEST PUSH2 0xD53 DUP5 DUP3 DUP6 ADD PUSH2 0x1994 JUMP JUMPDEST PUSH1 0x0 DUP1 PUSH1 0x40 DUP4 DUP6 SUB SLT ISZERO PUSH2 0x1FEA JUMPI DUP2 DUP3 REVERT JUMPDEST DUP3 MLOAD PUSH1 0x1 PUSH1 0x1 PUSH1 0x40 SHL SUB DUP1 DUP3 GT ISZERO PUSH2 0x2000 JUMPI DUP4 DUP5 REVERT JUMPDEST PUSH2 0x1F84 DUP7 DUP4 DUP8 ADD PUSH2 0x1994 JUMP JUMPDEST PUSH1 0x0 PUSH1 0x20 DUP3 DUP5 SUB SLT ISZERO PUSH2 0x201D JUMPI DUP1 DUP2 REVERT JUMPDEST POP CALLDATALOAD SWAP2 SWAP1 POP JUMP JUMPDEST PUSH1 0x0 DUP1 PUSH1 0x40 DUP4 DUP6 SUB SLT ISZERO PUSH2 0x2036 JUMPI DUP2 DUP3 REVERT JUMPDEST POP POP DUP1 CALLDATALOAD SWAP3 PUSH1 0x20 SWAP1 SWAP2 ADD CALLDATALOAD SWAP2 POP JUMP JUMPDEST PUSH1 0x0 DUP2 MLOAD DUP1 DUP5 MSTORE PUSH1 0x20 DUP1 DUP6 ADD SWAP5 POP DUP1 DUP5 ADD DUP4 JUMPDEST DUP4 DUP2 LT ISZERO PUSH2 0x2074 JUMPI DUP2 MLOAD DUP8 MSTORE SWAP6 DUP3 ADD SWAP6 SWAP1 DUP3 ADD SWAP1 PUSH1 0x1 ADD PUSH2 0x2058 JUMP JUMPDEST POP SWAP5 SWAP6 SWAP5 POP POP POP POP POP JUMP JUMPDEST PUSH1 0x0 DUP2 MLOAD DUP1 DUP5 MSTORE PUSH2 0x2097 DUP2 PUSH1 0x20 DUP7 ADD PUSH1 0x20 DUP7 ADD PUSH2 0x2CE8 JUMP JUMPDEST PUSH1 0x1F ADD PUSH1 0x1F NOT AND SWAP3 SWAP1 SWAP3 ADD PUSH1 0x20 ADD SWAP3 SWAP2 POP POP JUMP JUMPDEST DUP2 MLOAD PUSH1 0x0 SWAP1 DUP3 SWAP1 PUSH1 0x20 DUP1 DUP7 ADD DUP5 JUMPDEST DUP4 DUP2 LT ISZERO PUSH2 0x20D5 JUMPI DUP2 MLOAD DUP6 MSTORE SWAP4 DUP3 ADD SWAP4 SWAP1 DUP3 ADD SWAP1 PUSH1 0x1 ADD PUSH2 0x20B9 JUMP JUMPDEST POP SWAP3 SWAP7 SWAP6 POP POP POP POP POP POP JUMP JUMPDEST PUSH1 0x0 DUP5 MLOAD PUSH2 0x20F3 DUP2 DUP5 PUSH1 0x20 DUP10 ADD PUSH2 0x2CE8 JUMP JUMPDEST SWAP2 SWAP1 SWAP2 ADD SWAP3 DUP4 MSTORE POP PUSH1 0x20 DUP3 ADD MSTORE PUSH1 0x40 ADD SWAP2 SWAP1 POP JUMP JUMPDEST PUSH1 0x0 DUP5 MLOAD PUSH2 0x211A DUP2 DUP5 PUSH1 0x20 DUP10 ADD PUSH2 0x2CE8 JUMP JUMPDEST DUP3 ADD DUP5 DUP2 MSTORE DUP4 MLOAD PUSH2 0x2132 DUP2 PUSH1 0x20 DUP1 DUP6 ADD SWAP1 DUP9 ADD PUSH2 0x2CE8 JUMP JUMPDEST ADD PUSH1 0x20 ADD SWAP6 SWAP5 POP POP POP POP POP JUMP JUMPDEST PUSH32 0x19457468657265756D205369676E6564204D6573736167653A0A333200000000 DUP2 MSTORE PUSH1 0x1C DUP2 ADD SWAP2 SWAP1 SWAP2 MSTORE PUSH1 0x3C ADD SWAP1 JUMP JUMPDEST PUSH1 0x1 PUSH1 0x1 PUSH1 0xA0 SHL SUB DUP7 DUP2 AND DUP3 MSTORE DUP6 AND PUSH1 0x20 DUP3 ADD MSTORE PUSH1 0xA0 PUSH1 0x40 DUP3 ADD DUP2 SWAP1 MSTORE PUSH1 0x0 SWAP1 PUSH2 0x219C SWAP1 DUP4 ADD DUP7 PUSH2 0x2045 JUMP JUMPDEST DUP3 DUP2 SUB PUSH1 0x60 DUP5 ADD MSTORE PUSH2 0x21AE DUP2 DUP7 PUSH2 0x2045 JUMP JUMPDEST SWAP1 POP DUP3 DUP2 SUB PUSH1 0x80 DUP5 ADD MSTORE PUSH2 0x21C2 DUP2 DUP6 PUSH2 0x207F JUMP JUMPDEST SWAP9 SWAP8 POP POP POP POP POP POP POP POP JUMP JUMPDEST PUSH1 0x1 PUSH1 0x1 PUSH1 0xA0 SHL SUB DUP7 DUP2 AND DUP3 MSTORE DUP6 AND PUSH1 0x20 DUP3 ADD MSTORE PUSH1 0x40 DUP2 ADD DUP5 SWAP1 MSTORE PUSH1 0x60 DUP2 ADD DUP4 SWAP1 MSTORE PUSH1 0xA0 PUSH1 0x80 DUP3 ADD DUP2 SWAP1 MSTORE PUSH1 0x0 SWAP1 PUSH2 0x2208 SWAP1 DUP4 ADD DUP5 PUSH2 0x207F JUMP JUMPDEST SWAP8 SWAP7 POP POP POP POP POP POP POP JUMP JUMPDEST PUSH1 0x1 PUSH1 0x1 PUSH1 0xA0 SHL SUB SWAP4 DUP5 AND DUP2 MSTORE SWAP2 SWAP1 SWAP3 AND PUSH1 0x20 DUP3 ADD MSTORE PUSH1 0x40 DUP2 ADD SWAP2 SWAP1 SWAP2 MSTORE PUSH1 0x60 ADD SWAP1 JUMP JUMPDEST PUSH1 0x1 PUSH1 0x1 PUSH1 0xA0 SHL SUB SWAP5 DUP6 AND DUP2 MSTORE SWAP3 SWAP1 SWAP4 AND PUSH1 0x20 DUP4 ADD MSTORE PUSH1 0x40 DUP3 ADD MSTORE PUSH1 0x60 DUP2 ADD SWAP2 SWAP1 SWAP2 MSTORE PUSH1 0xA0 PUSH1 0x80 DUP3 ADD DUP2 SWAP1 MSTORE PUSH1 0x0 SWAP1 DUP3 ADD MSTORE PUSH1 0xC0 ADD SWAP1 JUMP JUMPDEST PUSH1 0x0 PUSH1 0x20 DUP3 MSTORE PUSH2 0x174D PUSH1 0x20 DUP4 ADD DUP5 PUSH2 0x2045 JUMP JUMPDEST PUSH1 0x0 PUSH1 0x40 DUP3 MSTORE PUSH2 0x2295 PUSH1 0x40 DUP4 ADD DUP6 PUSH2 0x2045 JUMP JUMPDEST DUP3 DUP2 SUB PUSH1 0x20 DUP5 ADD MSTORE PUSH2 0x277 DUP2 DUP6 PUSH2 0x2045 JUMP JUMPDEST SWAP1 ISZERO ISZERO DUP2 MSTORE PUSH1 0x20 ADD SWAP1 JUMP JUMPDEST SWAP2 DUP3 MSTORE PUSH1 0x1 PUSH1 0x1 PUSH1 0xA0 SHL SUB AND PUSH1 0x20 DUP3 ADD MSTORE PUSH1 0x40 ADD SWAP1 JUMP JUMPDEST SWAP6 DUP7 MSTORE PUSH1 0x1 PUSH1 0x1 PUSH1 0xA0 SHL SUB SWAP5 DUP6 AND PUSH1 0x20 DUP8 ADD MSTORE SWAP3 SWAP1 SWAP4 AND PUSH1 0x40 DUP6 ADD MSTORE PUSH1 0x60 DUP5 ADD MSTORE PUSH1 0x80 DUP4 ADD SWAP2 SWAP1 SWAP2 MSTORE PUSH1 0xA0 DUP3 ADD MSTORE PUSH1 0xC0 ADD SWAP1 JUMP JUMPDEST SWAP5 DUP6 MSTORE PUSH1 0x1 PUSH1 0x1 PUSH1 0xA0 SHL SUB SWAP4 DUP5 AND PUSH1 0x20 DUP7 ADD MSTORE SWAP2 SWAP1 SWAP3 AND PUSH1 0x40 DUP5 ADD MSTORE PUSH1 0x60 DUP4 ADD SWAP2 SWAP1 SWAP2 MSTORE PUSH1 0x80 DUP3 ADD MSTORE PUSH1 0xA0 ADD SWAP1 JUMP JUMPDEST PUSH1 0x0 DUP4 DUP3 MSTORE PUSH1 0x40 PUSH1 0x20 DUP4 ADD MSTORE PUSH2 0xD53 PUSH1 0x40 DUP4 ADD DUP5 PUSH2 0x207F JUMP JUMPDEST SWAP4 DUP5 MSTORE PUSH1 0xFF SWAP3 SWAP1 SWAP3 AND PUSH1 0x20 DUP5 ADD MSTORE PUSH1 0x40 DUP4 ADD MSTORE PUSH1 0x60 DUP3 ADD MSTORE PUSH1 0x80 ADD SWAP1 JUMP JUMPDEST PUSH1 0x0 PUSH1 0x40 DUP3 MSTORE PUSH2 0x2376 PUSH1 0x40 DUP4 ADD DUP6 PUSH2 0x207F JUMP JUMPDEST DUP3 DUP2 SUB PUSH1 0x20 DUP5 ADD MSTORE PUSH2 0x277 DUP2 DUP6 PUSH2 0x207F JUMP JUMPDEST PUSH1 0x20 DUP1 DUP3 MSTORE PUSH1 0x39 SWAP1 DUP3 ADD MSTORE PUSH32 0x455243313135355061636B656442616C616E63652362616C616E63654F664261 PUSH1 0x40 DUP3 ADD MSTORE PUSH32 0x7463683A20494E56414C49445F41525241595F4C454E47544800000000000000 PUSH1 0x60 DUP3 ADD MSTORE PUSH1 0x80 ADD SWAP1 JUMP JUMPDEST PUSH1 0x20 DUP1 DUP3 MSTORE PUSH1 0x3D SWAP1 DUP3 ADD MSTORE PUSH32 0x455243313135355061636B656442616C616E6365237361666542617463685472 PUSH1 0x40 DUP3 ADD MSTORE PUSH32 0x616E7366657246726F6D3A20494E56414C49445F524543495049454E54000000 PUSH1 0x60 DUP3 ADD MSTORE PUSH1 0x80 ADD SWAP1 JUMP JUMPDEST PUSH1 0x20 DUP1 DUP3 MSTORE PUSH1 0x3F SWAP1 DUP3 ADD MSTORE PUSH32 0x455243313135354D6574615061636B656442616C616E6365235F7472616E7366 PUSH1 0x40 DUP3 ADD MSTORE PUSH32 0x65724761734665653A2045524332305F5452414E534645525F4641494C454400 PUSH1 0x60 DUP3 ADD MSTORE PUSH1 0x80 ADD SWAP1 JUMP JUMPDEST PUSH1 0x20 DUP1 DUP3 MSTORE PUSH1 0x37 SWAP1 DUP3 ADD MSTORE PUSH32 0x4C6962427974657323706F704C617374427974653A20475245415445525F5448 PUSH1 0x40 DUP3 ADD MSTORE PUSH32 0x414E5F5A45524F5F4C454E4754485F5245515549524544000000000000000000 PUSH1 0x60 DUP3 ADD MSTORE PUSH1 0x80 ADD SWAP1 JUMP JUMPDEST PUSH1 0x20 DUP1 DUP3 MSTORE PUSH1 0x3C SWAP1 DUP3 ADD MSTORE PUSH32 0x455243313135354D6574615061636B656442616C616E6365235F7369676E6174 PUSH1 0x40 DUP3 ADD MSTORE PUSH32 0x75726556616C69646174696F6E3A20494E56414C49445F4E4F4E434500000000 PUSH1 0x60 DUP3 ADD MSTORE PUSH1 0x80 ADD SWAP1 JUMP JUMPDEST PUSH1 0x20 DUP1 DUP3 MSTORE PUSH1 0x33 SWAP1 DUP3 ADD MSTORE PUSH32 0x455243313135355061636B656442616C616E6365235F76696577557064617465 PUSH1 0x40 DUP3 ADD MSTORE PUSH19 0x42696E56616C75653A20554E444552464C4F57 PUSH1 0x68 SHL PUSH1 0x60 DUP3 ADD MSTORE PUSH1 0x80 ADD SWAP1 JUMP JUMPDEST PUSH1 0x20 DUP1 DUP3 MSTORE PUSH1 0x3A SWAP1 DUP3 ADD MSTORE PUSH1 0x0 DUP1 MLOAD PUSH1 0x20 PUSH2 0x2D55 DUP4 CODECOPY DUP2 MLOAD SWAP2 MSTORE PUSH1 0x40 DUP3 ADD MSTORE PUSH32 0x7572653A20554E535550504F525445445F5349474E4154555245000000000000 PUSH1 0x60 DUP3 ADD MSTORE PUSH1 0x80 ADD SWAP1 JUMP JUMPDEST PUSH1 0x20 DUP1 DUP3 MSTORE PUSH1 0x40 SWAP1 DUP3 ADD DUP2 SWAP1 MSTORE PUSH32 0x455243313135354D6574615061636B656442616C616E6365235F7369676E6174 SWAP1 DUP3 ADD MSTORE PUSH32 0x75726556616C69646174696F6E3A20494E56414C49445F5349474E4154555245 PUSH1 0x60 DUP3 ADD MSTORE PUSH1 0x80 ADD SWAP1 JUMP JUMPDEST PUSH1 0x20 DUP1 DUP3 MSTORE PUSH1 0x37 SWAP1 DUP3 ADD MSTORE PUSH32 0x455243313135355061636B656442616C616E636523736166655472616E736665 PUSH1 0x40 DUP3 ADD MSTORE PUSH32 0x7246726F6D3A20494E56414C49445F4F50455241544F52000000000000000000 PUSH1 0x60 DUP3 ADD MSTORE PUSH1 0x80 ADD SWAP1 JUMP JUMPDEST PUSH1 0x20 DUP1 DUP3 MSTORE PUSH1 0x36 SWAP1 DUP3 ADD MSTORE PUSH1 0x0 DUP1 MLOAD PUSH1 0x20 PUSH2 0x2D55 DUP4 CODECOPY DUP2 MLOAD SWAP2 MSTORE PUSH1 0x40 DUP3 ADD MSTORE PUSH22 0x7572653A20494C4C4547414C5F5349474E4154555245 PUSH1 0x50 SHL PUSH1 0x60 DUP3 ADD MSTORE PUSH1 0x80 ADD SWAP1 JUMP JUMPDEST PUSH1 0x20 DUP1 DUP3 MSTORE PUSH1 0x42 SWAP1 DUP3 ADD MSTORE PUSH32 0x455243313135355061636B656442616C616E6365235F73616665426174636854 PUSH1 0x40 DUP3 ADD MSTORE PUSH32 0x72616E7366657246726F6D3A20494E56414C49445F4152524159535F4C454E47 PUSH1 0x60 DUP3 ADD MSTORE PUSH2 0xA89 PUSH1 0xF3 SHL PUSH1 0x80 DUP3 ADD MSTORE PUSH1 0xA0 ADD SWAP1 JUMP JUMPDEST PUSH1 0x20 DUP1 DUP3 MSTORE PUSH1 0x4C SWAP1 DUP3 ADD MSTORE PUSH32 0x455243313135355061636B656442616C616E6365235F63616C6C6F6E45524331 PUSH1 0x40 DUP3 ADD MSTORE PUSH32 0x313535426174636852656365697665643A20494E56414C49445F4F4E5F524543 PUSH1 0x60 DUP3 ADD MSTORE PUSH12 0x454956455F4D455353414745 PUSH1 0xA0 SHL PUSH1 0x80 DUP3 ADD MSTORE PUSH1 0xA0 ADD SWAP1 JUMP JUMPDEST PUSH1 0x20 DUP1 DUP3 MSTORE PUSH1 0x37 SWAP1 DUP3 ADD MSTORE PUSH1 0x0 DUP1 MLOAD PUSH1 0x20 PUSH2 0x2D55 DUP4 CODECOPY DUP2 MLOAD SWAP2 MSTORE PUSH1 0x40 DUP3 ADD MSTORE PUSH32 0x7572653A204C454E4754485F39375F5245515549524544000000000000000000 PUSH1 0x60 DUP3 ADD MSTORE PUSH1 0x80 ADD SWAP1 JUMP JUMPDEST PUSH1 0x20 DUP1 DUP3 MSTORE PUSH1 0x3C SWAP1 DUP3 ADD MSTORE PUSH32 0x455243313135355061636B656442616C616E6365237361666542617463685472 PUSH1 0x40 DUP3 ADD MSTORE PUSH32 0x616E7366657246726F6D3A20494E56414C49445F4F50455241544F5200000000 PUSH1 0x60 DUP3 ADD MSTORE PUSH1 0x80 ADD SWAP1 JUMP JUMPDEST PUSH1 0x20 DUP1 DUP3 MSTORE PUSH1 0x36 SWAP1 DUP3 ADD MSTORE PUSH32 0x455243313135355061636B656442616C616E6365235F73616665426174636854 PUSH1 0x40 DUP3 ADD MSTORE PUSH22 0x72616E7366657246726F6D3A20554E444552464C4F57 PUSH1 0x50 SHL PUSH1 0x60 DUP3 ADD MSTORE PUSH1 0x80 ADD SWAP1 JUMP JUMPDEST PUSH1 0x20 DUP1 DUP3 MSTORE PUSH1 0x33 SWAP1 DUP3 ADD MSTORE PUSH1 0x0 DUP1 MLOAD PUSH1 0x20 PUSH2 0x2D55 DUP4 CODECOPY DUP2 MLOAD SWAP2 MSTORE PUSH1 0x40 DUP3 ADD MSTORE PUSH19 0x3AB9329D1024A72B20A624A22FA9A4A3A722A9 PUSH1 0x69 SHL PUSH1 0x60 DUP3 ADD MSTORE PUSH1 0x80 ADD SWAP1 JUMP JUMPDEST PUSH1 0x20 DUP1 DUP3 MSTORE PUSH1 0x40 SWAP1 DUP3 ADD DUP2 SWAP1 MSTORE PUSH32 0x455243313135354D6574615061636B656442616C616E6365236D657461536166 SWAP1 DUP3 ADD MSTORE PUSH32 0x655472616E7366657246726F6D3A20494E56414C49445F524543495049454E54 PUSH1 0x60 DUP3 ADD MSTORE PUSH1 0x80 ADD SWAP1 JUMP JUMPDEST PUSH1 0x20 DUP1 DUP3 MSTORE PUSH1 0x47 SWAP1 DUP3 ADD MSTORE PUSH32 0x455243313135355061636B656442616C616E6365235F63616C6C6F6E45524331 PUSH1 0x40 DUP3 ADD MSTORE PUSH32 0x31353552656365697665643A20494E56414C49445F4F4E5F524543454956455F PUSH1 0x60 DUP3 ADD MSTORE PUSH7 0x4D455353414745 PUSH1 0xC8 SHL PUSH1 0x80 DUP3 ADD MSTORE PUSH1 0xA0 ADD SWAP1 JUMP JUMPDEST PUSH1 0x20 DUP1 DUP3 MSTORE PUSH1 0x43 SWAP1 DUP3 ADD MSTORE PUSH1 0x0 DUP1 MLOAD PUSH1 0x20 PUSH2 0x2D55 DUP4 CODECOPY DUP2 MLOAD SWAP2 MSTORE PUSH1 0x40 DUP3 ADD MSTORE PUSH32 0x7572653A204C454E4754485F475245415445525F5448414E5F305F5245515549 PUSH1 0x60 DUP3 ADD MSTORE PUSH3 0x149151 PUSH1 0xEA SHL PUSH1 0x80 DUP3 ADD MSTORE PUSH1 0xA0 ADD SWAP1 JUMP JUMPDEST PUSH1 0x20 DUP1 DUP3 MSTORE PUSH1 0x45 SWAP1 DUP3 ADD MSTORE PUSH32 0x455243313135354D6574615061636B656442616C616E6365236D657461536166 PUSH1 0x40 DUP3 ADD MSTORE PUSH32 0x6542617463685472616E7366657246726F6D3A20494E56414C49445F52454349 PUSH1 0x60 DUP3 ADD MSTORE PUSH5 0x1412515395 PUSH1 0xDA SHL PUSH1 0x80 DUP3 ADD MSTORE PUSH1 0xA0 ADD SWAP1 JUMP JUMPDEST PUSH1 0x20 DUP1 DUP3 MSTORE PUSH1 0x38 SWAP1 DUP3 ADD MSTORE PUSH32 0x455243313135355061636B656442616C616E636523736166655472616E736665 PUSH1 0x40 DUP3 ADD MSTORE PUSH32 0x7246726F6D3A20494E56414C49445F524543495049454E540000000000000000 PUSH1 0x60 DUP3 ADD MSTORE PUSH1 0x80 ADD SWAP1 JUMP JUMPDEST PUSH1 0x20 DUP1 DUP3 MSTORE PUSH1 0x3B SWAP1 DUP3 ADD MSTORE PUSH32 0x455243313135354D6574615061636B656442616C616E6365235F7472616E7366 PUSH1 0x40 DUP3 ADD MSTORE PUSH32 0x65724761734665653A20554E535550504F525445445F544F4B454E0000000000 PUSH1 0x60 DUP3 ADD MSTORE PUSH1 0x80 ADD SWAP1 JUMP JUMPDEST PUSH1 0x20 DUP1 DUP3 MSTORE PUSH1 0x3C SWAP1 DUP3 ADD MSTORE PUSH32 0x4C696242797465732372656164427974657333323A20475245415445525F4F52 PUSH1 0x40 DUP3 ADD MSTORE PUSH32 0x5F455155414C5F544F5F33325F4C454E4754485F524551554952454400000000 PUSH1 0x60 DUP3 ADD MSTORE PUSH1 0x80 ADD SWAP1 JUMP JUMPDEST PUSH1 0x20 DUP1 DUP3 MSTORE PUSH1 0x45 SWAP1 DUP3 ADD MSTORE PUSH32 0x455243313135355061636B656442616C616E6365235F76696577557064617465 PUSH1 0x40 DUP3 ADD MSTORE PUSH32 0x42696E56616C75653A20494E56414C49445F42494E5F57524954455F4F504552 PUSH1 0x60 DUP3 ADD MSTORE PUSH5 0x20AA24A7A7 PUSH1 0xD9 SHL PUSH1 0x80 DUP3 ADD MSTORE PUSH1 0xA0 ADD SWAP1 JUMP JUMPDEST PUSH1 0x20 DUP1 DUP3 MSTORE PUSH1 0x32 SWAP1 DUP3 ADD MSTORE PUSH32 0x455243313135355061636B656442616C616E6365235F76696577557064617465 PUSH1 0x40 DUP3 ADD MSTORE PUSH18 0x42696E56616C75653A204F564552464C4F57 PUSH1 0x70 SHL PUSH1 0x60 DUP3 ADD MSTORE PUSH1 0x80 ADD SWAP1 JUMP JUMPDEST SWAP1 DUP2 MSTORE PUSH1 0x20 ADD SWAP1 JUMP JUMPDEST SWAP2 DUP3 MSTORE PUSH1 0x20 DUP3 ADD MSTORE PUSH1 0x40 ADD SWAP1 JUMP JUMPDEST PUSH1 0x40 MLOAD DUP2 DUP2 ADD PUSH1 0x1 PUSH1 0x1 PUSH1 0x40 SHL SUB DUP2 GT DUP3 DUP3 LT OR ISZERO PUSH2 0x2CA2 JUMPI INVALID JUMPDEST PUSH1 0x40 MSTORE SWAP2 SWAP1 POP JUMP JUMPDEST PUSH1 0x0 PUSH1 0x1 PUSH1 0x1 PUSH1 0x40 SHL SUB DUP3 GT ISZERO PUSH2 0x2CBD JUMPI INVALID JUMPDEST POP PUSH1 0x20 SWAP1 DUP2 MUL ADD SWAP1 JUMP JUMPDEST PUSH1 0x0 PUSH1 0x1 PUSH1 0x1 PUSH1 0x40 SHL SUB DUP3 GT ISZERO PUSH2 0x2CDA JUMPI INVALID JUMPDEST POP PUSH1 0x1F ADD PUSH1 0x1F NOT AND PUSH1 0x20 ADD SWAP1 JUMP JUMPDEST PUSH1 0x0 JUMPDEST DUP4 DUP2 LT ISZERO PUSH2 0x2D03 JUMPI DUP2 DUP2 ADD MLOAD DUP4 DUP3 ADD MSTORE PUSH1 0x20 ADD PUSH2 0x2CEB JUMP JUMPDEST DUP4 DUP2 GT ISZERO PUSH2 0x2D12 JUMPI PUSH1 0x0 DUP5 DUP5 ADD MSTORE JUMPDEST POP POP POP POP JUMP JUMPDEST PUSH1 0x1 PUSH1 0x1 PUSH1 0xA0 SHL SUB DUP2 AND DUP2 EQ PUSH2 0x2D2D JUMPI PUSH1 0x0 DUP1 REVERT JUMPDEST POP JUMP JUMPDEST DUP1 ISZERO ISZERO DUP2 EQ PUSH2 0x2D2D JUMPI PUSH1 0x0 DUP1 REVERT JUMPDEST PUSH1 0x1 PUSH1 0x1 PUSH1 0xE0 SHL SUB NOT DUP2 AND DUP2 EQ PUSH2 0x2D2D JUMPI PUSH1 0x0 DUP1 REVERT INVALID MSTORE8 PUSH10 0x676E617475726556616C PUSH10 0x6461746F722369735661 PUSH13 0x69645369676E6174A264697066 PUSH20 0x58221220FF03FF744DF52E689AB709F728AD5466 SLOAD RETURNDATASIZE 0xC2 0x24 PUSH13 0xB8802BA21142D1A03B06E16473 PUSH16 0x6C634300070400330000000000000000 "
		},
		"gasEstimates": {
			"creation": {
				"codeDepositCost": "2338000",
				"executionCost": "2508",
				"totalCost": "2340508"
			},
			"external": {
				"balanceOf(address,uint256)": "1538",
				"balanceOfBatch(address[],uint256[])": "infinite",
				"getIDBinIndex(uint256)": "391",
				"getNonce(address)": "1332",
				"getValueInBin(uint256,uint256)": "380",
				"isApprovedForAll(address,address)": "infinite",
				"isValidSignature(address,bytes32,bytes,bytes)": "infinite",
				"metaSafeBatchTransferFrom(address,address,uint256[],uint256[],bool,bytes)": "infinite",
				"metaSafeTransferFrom(address,address,uint256,uint256,bool,bytes)": "infinite",
				"metaSetApprovalForAll(address,address,bool,bool,bytes)": "infinite",
				"safeBatchTransferFrom(address,address,uint256[],uint256[],bytes)": "infinite",
				"safeTransferFrom(address,address,uint256,uint256,bytes)": "infinite",
				"setApprovalForAll(address,bool)": "infinite",
				"supportsInterface(bytes4)": "570"
			},
			"internal": {
				"_signatureValidation(address,bytes memory,bytes memory)": "infinite",
				"_transferGasFee(address,struct ERC1155MetaPackedBalance.GasReceipt memory)": "infinite"
			}
		},
		"methodIdentifiers": {
			"balanceOf(address,uint256)": "00fdd58e",
			"balanceOfBatch(address[],uint256[])": "4e1273f4",
			"getIDBinIndex(uint256)": "db90e83c",
			"getNonce(address)": "2d0335ab",
			"getValueInBin(uint256,uint256)": "eaec5f81",
			"isApprovedForAll(address,address)": "e985e9c5",
			"isValidSignature(address,bytes32,bytes,bytes)": "fa4e12d7",
			"metaSafeBatchTransferFrom(address,address,uint256[],uint256[],bool,bytes)": "a3d4926e",
			"metaSafeTransferFrom(address,address,uint256,uint256,bool,bytes)": "ce0b514b",
			"metaSetApprovalForAll(address,address,bool,bool,bytes)": "f5d4c820",
			"safeBatchTransferFrom(address,address,uint256[],uint256[],bytes)": "2eb2c2d6",
			"safeTransferFrom(address,address,uint256,uint256,bytes)": "f242432a",
			"setApprovalForAll(address,bool)": "a22cb465",
			"supportsInterface(bytes4)": "01ffc9a7"
		}
	},
	"abi": [
		{
			"anonymous": false,
			"inputs": [
				{
					"indexed": true,
					"internalType": "address",
					"name": "_owner",
					"type": "address"
				},
				{
					"indexed": true,
					"internalType": "address",
					"name": "_operator",
					"type": "address"
				},
				{
					"indexed": false,
					"internalType": "bool",
					"name": "_approved",
					"type": "bool"
				}
			],
			"name": "ApprovalForAll",
			"type": "event"
		},
		{
			"anonymous": false,
			"inputs": [
				{
					"indexed": true,
					"internalType": "address",
					"name": "signer",
					"type": "address"
				},
				{
					"indexed": false,
					"internalType": "uint256",
					"name": "newNonce",
					"type": "uint256"
				}
			],
			"name": "NonceChange",
			"type": "event"
		},
		{
			"anonymous": false,
			"inputs": [
				{
					"indexed": true,
					"internalType": "address",
					"name": "_operator",
					"type": "address"
				},
				{
					"indexed": true,
					"internalType": "address",
					"name": "_from",
					"type": "address"
				},
				{
					"indexed": true,
					"internalType": "address",
					"name": "_to",
					"type": "address"
				},
				{
					"indexed": false,
					"internalType": "uint256[]",
					"name": "_ids",
					"type": "uint256[]"
				},
				{
					"indexed": false,
					"internalType": "uint256[]",
					"name": "_amounts",
					"type": "uint256[]"
				}
			],
			"name": "TransferBatch",
			"type": "event"
		},
		{
			"anonymous": false,
			"inputs": [
				{
					"indexed": true,
					"internalType": "address",
					"name": "_operator",
					"type": "address"
				},
				{
					"indexed": true,
					"internalType": "address",
					"name": "_from",
					"type": "address"
				},
				{
					"indexed": true,
					"internalType": "address",
					"name": "_to",
					"type": "address"
				},
				{
					"indexed": false,
					"internalType": "uint256",
					"name": "_id",
					"type": "uint256"
				},
				{
					"indexed": false,
					"internalType": "uint256",
					"name": "_amount",
					"type": "uint256"
				}
			],
			"name": "TransferSingle",
			"type": "event"
		},
		{
			"inputs": [
				{
					"internalType": "address",
					"name": "_owner",
					"type": "address"
				},
				{
					"internalType": "uint256",
					"name": "_id",
					"type": "uint256"
				}
			],
			"name": "balanceOf",
			"outputs": [
				{
					"internalType": "uint256",
					"name": "",
					"type": "uint256"
				}
			],
			"stateMutability": "view",
			"type": "function"
		},
		{
			"inputs": [
				{
					"internalType": "address[]",
					"name": "_owners",
					"type": "address[]"
				},
				{
					"internalType": "uint256[]",
					"name": "_ids",
					"type": "uint256[]"
				}
			],
			"name": "balanceOfBatch",
			"outputs": [
				{
					"internalType": "uint256[]",
					"name": "",
					"type": "uint256[]"
				}
			],
			"stateMutability": "view",
			"type": "function"
		},
		{
			"inputs": [
				{
					"internalType": "uint256",
					"name": "_id",
					"type": "uint256"
				}
			],
			"name": "getIDBinIndex",
			"outputs": [
				{
					"internalType": "uint256",
					"name": "bin",
					"type": "uint256"
				},
				{
					"internalType": "uint256",
					"name": "index",
					"type": "uint256"
				}
			],
			"stateMutability": "pure",
			"type": "function"
		},
		{
			"inputs": [
				{
					"internalType": "address",
					"name": "_signer",
					"type": "address"
				}
			],
			"name": "getNonce",
			"outputs": [
				{
					"internalType": "uint256",
					"name": "nonce",
					"type": "uint256"
				}
			],
			"stateMutability": "view",
			"type": "function"
		},
		{
			"inputs": [
				{
					"internalType": "uint256",
					"name": "_binValues",
					"type": "uint256"
				},
				{
					"internalType": "uint256",
					"name": "_index",
					"type": "uint256"
				}
			],
			"name": "getValueInBin",
			"outputs": [
				{
					"internalType": "uint256",
					"name": "",
					"type": "uint256"
				}
			],
			"stateMutability": "pure",
			"type": "function"
		},
		{
			"inputs": [
				{
					"internalType": "address",
					"name": "_owner",
					"type": "address"
				},
				{
					"internalType": "address",
					"name": "_operator",
					"type": "address"
				}
			],
			"name": "isApprovedForAll",
			"outputs": [
				{
					"internalType": "bool",
					"name": "isOperator",
					"type": "bool"
				}
			],
			"stateMutability": "view",
			"type": "function"
		},
		{
			"inputs": [
				{
					"internalType": "address",
					"name": "_signerAddress",
					"type": "address"
				},
				{
					"internalType": "bytes32",
					"name": "_hash",
					"type": "bytes32"
				},
				{
					"internalType": "bytes",
					"name": "_data",
					"type": "bytes"
				},
				{
					"internalType": "bytes",
					"name": "_sig",
					"type": "bytes"
				}
			],
			"name": "isValidSignature",
			"outputs": [
				{
					"internalType": "bool",
					"name": "isValid",
					"type": "bool"
				}
			],
			"stateMutability": "view",
			"type": "function"
		},
		{
			"inputs": [
				{
					"internalType": "address",
					"name": "_from",
					"type": "address"
				},
				{
					"internalType": "address",
					"name": "_to",
					"type": "address"
				},
				{
					"internalType": "uint256[]",
					"name": "_ids",
					"type": "uint256[]"
				},
				{
					"internalType": "uint256[]",
					"name": "_amounts",
					"type": "uint256[]"
				},
				{
					"internalType": "bool",
					"name": "_isGasFee",
					"type": "bool"
				},
				{
					"internalType": "bytes",
					"name": "_data",
					"type": "bytes"
				}
			],
			"name": "metaSafeBatchTransferFrom",
			"outputs": [],
			"stateMutability": "nonpayable",
			"type": "function"
		},
		{
			"inputs": [
				{
					"internalType": "address",
					"name": "_from",
					"type": "address"
				},
				{
					"internalType": "address",
					"name": "_to",
					"type": "address"
				},
				{
					"internalType": "uint256",
					"name": "_id",
					"type": "uint256"
				},
				{
					"internalType": "uint256",
					"name": "_amount",
					"type": "uint256"
				},
				{
					"internalType": "bool",
					"name": "_isGasFee",
					"type": "bool"
				},
				{
					"internalType": "bytes",
					"name": "_data",
					"type": "bytes"
				}
			],
			"name": "metaSafeTransferFrom",
			"outputs": [],
			"stateMutability": "nonpayable",
			"type": "function"
		},
		{
			"inputs": [
				{
					"internalType": "address",
					"name": "_owner",
					"type": "address"
				},
				{
					"internalType": "address",
					"name": "_operator",
					"type": "address"
				},
				{
					"internalType": "bool",
					"name": "_approved",
					"type": "bool"
				},
				{
					"internalType": "bool",
					"name": "_isGasFee",
					"type": "bool"
				},
				{
					"internalType": "bytes",
					"name": "_data",
					"type": "bytes"
				}
			],
			"name": "metaSetApprovalForAll",
			"outputs": [],
			"stateMutability": "nonpayable",
			"type": "function"
		},
		{
			"inputs": [
				{
					"internalType": "address",
					"name": "_from",
					"type": "address"
				},
				{
					"internalType": "address",
					"name": "_to",
					"type": "address"
				},
				{
					"internalType": "uint256[]",
					"name": "_ids",
					"type": "uint256[]"
				},
				{
					"internalType": "uint256[]",
					"name": "_amounts",
					"type": "uint256[]"
				},
				{
					"internalType": "bytes",
					"name": "_data",
					"type": "bytes"
				}
			],
			"name": "safeBatchTransferFrom",
			"outputs": [],
			"stateMutability": "nonpayable",
			"type": "function"
		},
		{
			"inputs": [
				{
					"internalType": "address",
					"name": "_from",
					"type": "address"
				},
				{
					"internalType": "address",
					"name": "_to",
					"type": "address"
				},
				{
					"internalType": "uint256",
					"name": "_id",
					"type": "uint256"
				},
				{
					"internalType": "uint256",
					"name": "_amount",
					"type": "uint256"
				},
				{
					"internalType": "bytes",
					"name": "_data",
					"type": "bytes"
				}
			],
			"name": "safeTransferFrom",
			"outputs": [],
			"stateMutability": "nonpayable",
			"type": "function"
		},
		{
			"inputs": [
				{
					"internalType": "address",
					"name": "_operator",
					"type": "address"
				},
				{
					"internalType": "bool",
					"name": "_approved",
					"type": "bool"
				}
			],
			"name": "setApprovalForAll",
			"outputs": [],
			"stateMutability": "nonpayable",
			"type": "function"
		},
		{
			"inputs": [
				{
					"internalType": "bytes4",
					"name": "_interfaceID",
					"type": "bytes4"
				}
			],
			"name": "supportsInterface",
			"outputs": [
				{
					"internalType": "bool",
					"name": "",
					"type": "bool"
				}
			],
			"stateMutability": "pure",
			"type": "function"
		}
	]
}