{
	"data": {
		"bytecode": {
			"linkReferences": {},
			"object": "60806040523480156200001157600080fd5b50604051620035c0380380620035c0833981016040819052620000349162000217565b600080546001600160a01b03191633178082556040516001600160a01b039190911691907f8be0079c531659141344cd1fd0a4f28419497f9722a3daafe3b4186f6b6457e0908290a3825162000092906005906020860190620000c8565b508151620000a8906006906020850190620000c8565b508051620000be906004906020840190620000c8565b50505050620002a4565b828054600181600116156101000203166002900490600052602060002090601f0160209004810192826200010057600085556200014b565b82601f106200011b57805160ff19168380011785556200014b565b828001600101855582156200014b579182015b828111156200014b5782518255916020019190600101906200012e565b50620001599291506200015d565b5090565b5b808211156200015957600081556001016200015e565b600082601f83011262000185578081fd5b81516001600160401b03808211156200019a57fe5b6040516020601f8401601f1916820181018381118382101715620001ba57fe5b80604052508194508382528681858801011115620001d757600080fd5b600092505b83831015620001fb5785830181015182840182015291820191620001dc565b838311156200020d5760008185840101525b5050505092915050565b6000806000606084860312156200022c578283fd5b83516001600160401b038082111562000243578485fd5b620002518783880162000174565b9450602086015191508082111562000267578384fd5b620002758783880162000174565b935060408601519150808211156200028b578283fd5b506200029a8682870162000174565b9150509250925092565b61330c80620002b46000396000f3fe608060405234801561001057600080fd5b50600436106101205760003560e01c8063a22cb465116100ad578063eaec5f8111610071578063eaec5f8114610284578063f242432a14610297578063f2fde38b146102aa578063f5d4c820146102bd578063fa4e12d7146102d057610120565b8063a22cb46514610217578063a3d4926e1461022a578063ce0b514b1461023d578063db90e83c14610250578063e985e9c51461027157610120565b80632d0335ab116100f45780632d0335ab146101b25780632eb2c2d6146101c55780634e1273f4146101da5780638da5cb5b146101fa57806395d89b411461020f57610120565b8062fdd58e1461014157806301ffc9a71461016a57806306fdde031461018a5780630e89341c1461019f575b60405162461bcd60e51b8152600401610138906130c1565b60405180910390fd5b61015461014f3660046121d5565b6102e3565b60405161016191906131d2565b60405180910390f35b61017d6101783660046122de565b61032d565b6040516101619190612712565b610192610340565b60405161016191906127f3565b6101926101ad3660046123d2565b6103d6565b6101546101c0366004611de1565b61040a565b6101d86101d3366004611f3a565b610425565b005b6101ed6101e8366004612200565b6104a4565b60405161016191906126da565b61020261069d565b60405161016191906125c7565b6101926106ac565b6101d861022536600461212c565b61070d565b6101d8610238366004611e7e565b61077c565b6101d861024b36600461205b565b6108c9565b61026361025e3660046123d2565b610981565b6040516101619291906131db565b61017d61027f366004611e46565b61098e565b6101546102923660046123ea565b6109bc565b6101d86102a53660046120d2565b6109cf565b6101d86102b8366004611de1565b610a47565b6101d86102cb366004611fe3565b610af2565b61017d6102de366004612159565b610bf7565b60008060006102f184610981565b6001600160a01b0387166000908152600160209081526040808320858452909152902054919350915061032490826109bc565b95945050505050565b600061033882610fc5565b90505b919050565b60058054604080516020601f60026000196101006001881615020190951694909404938401819004810282018101909252828152606093909290918301828280156103cc5780601f106103a1576101008083540402835291602001916103cc565b820191906000526020600020905b8154815290600101906020018083116103af57829003601f168201915b5050505050905090565b606060046103e383610ff1565b6040516020016103f4929190612505565b6040516020818303038152906040529050919050565b6001600160a01b031660009081526003602052604090205490565b336001600160a01b03861614806104415750610441853361098e565b61045d5760405162461bcd60e51b815260040161013890612ce3565b6001600160a01b0384166104835760405162461bcd60e51b815260040161013890612863565b61048f858585856110ca565b61049d858585855a86611395565b5050505050565b815181516060919081146104ca5760405162461bcd60e51b815260040161013890612806565b6000806104ea856000815181106104dd57fe5b6020026020010151610981565b915091506000600160008860008151811061050157fe5b60200260200101516001600160a01b03166001600160a01b03168152602001908152602001600020600084815260200190815260200160002054905060008390506060856001600160401b038111801561055a57600080fd5b50604051908082528060200260200182016040528015610584578160200160208202803683370190505b50905061059183856109bc565b8160008151811061059e57fe5b602090810291909101015260015b86811015610690576105c38982815181106104dd57fe5b9096509450828614158061061257508981815181106105de57fe5b60200260200101516001600160a01b03168a60018303815181106105fe57fe5b60200260200101516001600160a01b031614155b1561066757600160008b838151811061062757fe5b60200260200101516001600160a01b03166001600160a01b0316815260200190815260200160002060008781526020019081526020016000205493508592505b61067184866109bc565b82828151811061067d57fe5b60209081029190910101526001016105ac565b5098975050505050505050565b6000546001600160a01b031690565b60068054604080516020601f60026000196101006001881615020190951694909404938401819004810282018101909252828152606093909290918301828280156103cc5780601f106103a1576101008083540402835291602001916103cc565b3360008181526002602090815260408083206001600160a01b038716808552925291829020805460ff191685151517905590519091907f17307eab39ab6107e8899845ad3d59bd9653f200f220920489ca2b5937696c3190610770908590612712565b60405180910390a35050565b6001600160a01b0385166107a25760405162461bcd60e51b815260040161013890612ef9565b60606107ac611c20565b606061085f89857fa3d4926e8cf8fe8e020cd29f514c256bc2eec62aa2337e415f1a33a4828af5a060001b8c8c8c6040516020016107ea9190612471565b604051602081830303815290604052805190602001208c6040516020016108119190612471565b604051602081830303815290604052805190602001208c610833576000610836565b60015b60405160200161084b96959493929190612734565b604051602081830303815290604052611468565b905061086d898989896110ca565b84156108b05780806020019051810190610887919061239e565b80945081935050506108a189898989866020015188611395565b6108ab89836115cb565b6108be565b6108be898989895a86611395565b505050505050505050565b6001600160a01b0385166108ef5760405162461bcd60e51b815260040161013890612dd7565b60606108f9611c20565b606061093189857fce0b514b3931bdbe4d5d44e4f035afe7113767b7db71949271f6a62d9c60f558828c8c8c8c610833576000610836565b905061093f898989896117da565b84156109735780806020019051810190610959919061239e565b80945081935050506108a189898989866020015188611851565b6108be898989895a86611851565b6008810491600790911690565b6001600160a01b03918216600090815260026020908152604080832093909416825291909152205460ff1690565b6020810282901c63ffffffff1692915050565b336001600160a01b03861614806109eb57506109eb853361098e565b610a075760405162461bcd60e51b815260040161013890612b1d565b6001600160a01b038416610a2d5760405162461bcd60e51b815260040161013890612f64565b610a39858585856117da565b61049d858585855a86611851565b6000546001600160a01b03163314610a715760405162461bcd60e51b815260040161013890612fc1565b6001600160a01b038116610a975760405162461bcd60e51b815260040161013890612a2a565b600080546040516001600160a01b03808516939216917f8be0079c531659141344cd1fd0a4f28419497f9722a3daafe3b4186f6b6457e091a3600080546001600160a01b0319166001600160a01b0392909216919091179055565b6060610b4e86837ff5d4c820494c8595de274c7ff619bead38aac4fbc3d143b5bf956aa4b84fa524828989610b28576000610b2b565b60015b89610b37576000610b3a565b60015b60405160200161084b959493929190612768565b6001600160a01b038781166000818152600260209081526040808320948b168084529490915290819020805460ff19168915151790555192935090917f17307eab39ab6107e8899845ad3d59bd9653f200f220920489ca2b5937696c3190610bb7908890612712565b60405180910390a38215610bef57610bcd611c20565b81806020019051810190610be1919061236c565b9050610bed87826115cb565b505b505050505050565b600080825111610c195760405162461bcd60e51b815260040161013890612ea2565b6001600160a01b038516610c3f5760405162461bcd60e51b815260040161013890612d96565b6000610c4a83611924565b60f81c905060058110610c6f5760405162461bcd60e51b815260040161013890612a74565b60008160ff166005811115610c8057fe5b9050600080808080856005811115610c9457fe5b1415610cb25760405162461bcd60e51b815260040161013890612b7a565b6001856005811115610cc057fe5b1415610d8a578751606114610ce75760405162461bcd60e51b815260040161013890612c98565b610cf2886000611972565b9250610cff886020611972565b915087604081518110610d0e57fe5b602001015160f81c60f81b60f81c935060018a85858560405160008152602001604052604051610d4194939291906127b0565b6020604051602081039080840390855afa158015610d63573d6000803e3d6000fd5b5050604051601f1901516001600160a01b038d81169116149750610fbd9650505050505050565b6002856005811115610d9857fe5b1415610e3f578751606114610dbf5760405162461bcd60e51b815260040161013890612c98565b610dca886000611972565b9250610dd7886020611972565b915087604081518110610de657fe5b602001015160f81c60f81b60f81c935060018a604051602001610e099190612596565b6040516020818303038152906040528051906020012085858560405160008152602001604052604051610d4194939291906127b0565b6003856005811115610e4d57fe5b1415610ef2576040516320c13b0b60e01b81526001600160a01b038c16906320c13b0b90610e81908c908c906004016127ce565b60206040518083038186803b158015610e9957600080fd5b505afa158015610ead573d6000803e3d6000fd5b505050506040513d601f19601f82011682018060405250810190610ed191906122fa565b6001600160e01b0319166320c13b0b60e01b149650610fbd95505050505050565b6004856005811115610f0057fe5b1415610fa557604051630b135d3f60e11b81526001600160a01b038c1690631626ba7e90610f34908d908c90600401612797565b60206040518083038186803b158015610f4c57600080fd5b505afa158015610f60573d6000803e3d6000fd5b505050506040513d601f19601f82011682018060405250810190610f8491906122fa565b6001600160e01b031916630b135d3f60e11b149650610fbd95505050505050565b60405162461bcd60e51b815260040161013890612a74565b949350505050565b60006001600160e01b031982166303a24d0760e21b1415610fe85750600161033b565b610338826119a1565b60608161101657506040805180820190915260018152600360fc1b602082015261033b565b818060005b821561102f57600101600a8304925061101b565b6060816001600160401b038111801561104757600080fd5b506040519080825280601f01601f191660200182016040528015611072576020820181803683370190505b50905060001982015b83156110c057600a840660300160f81b8282806001900393508151811061109e57fe5b60200101906001600160f81b031916908160001a905350600a8404935061107b565b5095945050505050565b8151815181146110ec5760405162461bcd60e51b815260040161013890612bbe565b836001600160a01b0316856001600160a01b03161415801561110e5750600081115b156112d357600080611126856000815181106104dd57fe5b915091506000611183600160008a6001600160a01b03166001600160a01b03168152602001908152602001600020600085815260200190815260200160002054838760008151811061117457fe5b602002602001015160016119cd565b905060006111de600160008a6001600160a01b03166001600160a01b0316815260200190815260200160002060008681526020019081526020016000205484886000815181106111cf57fe5b602002602001015160006119cd565b90508360015b8681101561128d576111fb8982815181106104dd57fe5b909650945081861461125f576001600160a01b038b8116600090815260016020818152604080842087855280835281852099909955938e16835290815282822094825284815282822095909555878152948452808520549290935291909220549084905b61127084868a848151811061117457fe5b935061128383868a84815181106111cf57fe5b92506001016111e4565b50506001600160a01b03808a166000908152600160208181526040808420898552825280842096909655928b168252825283812095815294905292209190915550611337565b60005b81811015611335578281815181106112ea57fe5b602002602001015161130f8786848151811061130257fe5b60200260200101516102e3565b101561132d5760405162461bcd60e51b815260040161013890612d40565b6001016112d6565b505b836001600160a01b0316856001600160a01b0316336001600160a01b03167f4a39dc06d4c0dbc64b70af90fd698a233a518aa5d07e595d983b8c0526c8f7fb86866040516113869291906126ed565b60405180910390a45050505050565b6113a7856001600160a01b0316611ac3565b15610bef576000856001600160a01b031663bc197c8184338a8989886040518763ffffffff1660e01b81526004016113e39594939291906125db565b602060405180830381600088803b1580156113fd57600080fd5b5087f1158015611411573d6000803e3d6000fd5b50505050506040513d601f19601f8201168201806040525081019061143691906122fa565b90506001600160e01b0319811663bc197c8160e01b14610bed5760405162461bcd60e51b815260040161013890612c26565b6060808380602001905181019061147f9190612316565b6001600160a01b038716600090815260036020526040812054919450919250906114aa836041611972565b90508181108015906114be57508160640181105b6114da5760405162461bcd60e51b81526004016101389061297a565b6000611516868387805190602001206040516020016114fb939291906124a7565b60405160208183030381529060405280519060200120611afd565b9050606086838760405160200161152f939291906124ce565b60408051601f198184030181528282526001600160a01b038c166000818152600360205292909220600187019081905590935090917fb861b7bdbe611a846ab271b8d2810391bc8b5a968f390c322438ecab66bccf599161158f916131d2565b60405180910390a26115a389838388610bf7565b6115bf5760405162461bcd60e51b815260040161013890612abf565b50505050509392505050565b60006115da8260600151611924565b60f81c9050600281106115ff5760405162461bcd60e51b815260040161013890613007565b60008160ff16600281111561161057fe5b83516040850151919250600091829182916001600160a01b03161561163957866040015161163b565b335b9250600085600281111561164b57fe5b14156117175786606001518060200190518101906116699190611e19565b90945091506001600160a01b0384163014156116ad5761168b888484846117da565b6116a88884845a8560405180602001604052806000815250611851565b611712565b604051637921219560e11b81526001600160a01b0385169063f242432a906116df908b908790879087906004016126a2565b600060405180830381600087803b1580156116f957600080fd5b505af115801561170d573d6000803e3d6000fd5b505050505b6117d0565b866060015180602001905181019061172f9190611dfd565b6040516323b872dd60e01b81529094506001600160a01b038516906323b872dd90611762908b908790869060040161267e565b602060405180830381600087803b15801561177c57600080fd5b505af1158015611790573d6000803e3d6000fd5b505050506040513d601f19601f820116820180604052508101906117b491906122c2565b6117d05760405162461bcd60e51b8152600401610138906128c0565b5050505050505050565b6117e78483836001611b96565b6117f48383836000611b96565b826001600160a01b0316846001600160a01b0316336001600160a01b03167fc3d58168c5ae7397731d063d5bbf3d657854427343f4c083240f7aacaa2d0f6285856040516118439291906131db565b60405180910390a450505050565b611863856001600160a01b0316611ac3565b15610bef576000856001600160a01b031663f23a6e6184338a8989886040518763ffffffff1660e01b815260040161189f959493929190612639565b602060405180830381600088803b1580156118b957600080fd5b5087f11580156118cd573d6000803e3d6000fd5b50505050506040513d601f19601f820116820180604052508101906118f291906122fa565b90506001600160e01b0319811663f23a6e6160e01b14610bed5760405162461bcd60e51b815260040161013890612e35565b6000808251116119465760405162461bcd60e51b81526004016101389061291d565b8160018351038151811061195657fe5b0160200151825160001901909252506001600160f81b03191690565b600081602001835110156119985760405162461bcd60e51b815260040161013890613064565b50016020015190565b60006001600160e01b03198216636cdb3d1360e11b14156119c45750600161033b565b61033882611c07565b60006020840263ffffffff828460018111156119e557fe5b1415611a415784821b8701925086831015611a125760405162461bcd60e51b815260040161013890613180565b64010000000087831c8216860110611a3c5760405162461bcd60e51b815260040161013890613180565b611ab9565b6001846001811115611a4f57fe5b1415611aa15784821b8703925086831115611a7c5760405162461bcd60e51b8152600401610138906129d7565b84818389901c161015611a3c5760405162461bcd60e51b8152600401610138906129d7565b60405162461bcd60e51b815260040161013890613115565b5050949350505050565b6000813f8015801590611af657507fc5d2460186f7233c927e7db2dcc703c0e500b653ca82273b7bfad8045d85a4708114155b9392505050565b600060405180604001604052806002815260200161190160f01b8152507f035aff83d86937d35b32e04f0ddc6ff469290eef2f1b692d8a815c89404d474960001b30604051602001611b5092919061271d565b6040516020818303038152906040528051906020012083604051602001611b79939291906124a7565b604051602081830303815290604052805190602001209050919050565b600080611ba285610981565b6001600160a01b03881660009081526001602090815260408083208584529091529020549193509150611bd7908286866119cd565b6001600160a01b039096166000908152600160209081526040808320948352939052919091209490945550505050565b6001600160e01b031981166301ffc9a760e01b14919050565b6040518060800160405280600081526020016000815260200160006001600160a01b03168152602001606081525090565b600082601f830112611c61578081fd5b8135611c74611c6f8261320c565b6131e9565b818152915060208083019084810181840286018201871015611c9557600080fd5b60005b84811015611cb457813584529282019290820190600101611c98565b505050505092915050565b600082601f830112611ccf578081fd5b8135611cdd611c6f82613229565b9150808252836020828501011115611cf457600080fd5b8060208401602084013760009082016020015292915050565b600082601f830112611d1d578081fd5b8151611d2b611c6f82613229565b9150808252836020828501011115611d4257600080fd5b611d5381602084016020860161324a565b5092915050565b600060808284031215611d6b578081fd5b604051608081016001600160401b038282108183111715611d8857fe5b81604052829350845183526020850151602084015260408501519150611dad8261327a565b8160408401526060850151915080821115611dc757600080fd5b50611dd485828601611d0d565b6060830152505092915050565b600060208284031215611df2578081fd5b8135611af68161327a565b600060208284031215611e0e578081fd5b8151611af68161327a565b60008060408385031215611e2b578081fd5b8251611e368161327a565b6020939093015192949293505050565b60008060408385031215611e58578182fd5b8235611e638161327a565b91506020830135611e738161327a565b809150509250929050565b60008060008060008060c08789031215611e96578182fd5b8635611ea18161327a565b95506020870135611eb18161327a565b945060408701356001600160401b0380821115611ecc578384fd5b611ed88a838b01611c51565b95506060890135915080821115611eed578384fd5b611ef98a838b01611c51565b945060808901359150611f0b82613292565b90925060a08801359080821115611f20578283fd5b50611f2d89828a01611cbf565b9150509295509295509295565b600080600080600060a08688031215611f51578081fd5b8535611f5c8161327a565b94506020860135611f6c8161327a565b935060408601356001600160401b0380821115611f87578283fd5b611f9389838a01611c51565b94506060880135915080821115611fa8578283fd5b611fb489838a01611c51565b93506080880135915080821115611fc9578283fd5b50611fd688828901611cbf565b9150509295509295909350565b600080600080600060a08688031215611ffa578081fd5b85356120058161327a565b945060208601356120158161327a565b9350604086013561202581613292565b9250606086013561203581613292565b915060808601356001600160401b0381111561204f578182fd5b611fd688828901611cbf565b60008060008060008060c08789031215612073578384fd5b863561207e8161327a565b9550602087013561208e8161327a565b9450604087013593506060870135925060808701356120ac81613292565b915060a08701356001600160401b038111156120c6578182fd5b611f2d89828a01611cbf565b600080600080600060a086880312156120e9578283fd5b85356120f48161327a565b945060208601356121048161327a565b9350604086013592506060860135915060808601356001600160401b0381111561204f578182fd5b6000806040838503121561213e578182fd5b82356121498161327a565b91506020830135611e7381613292565b6000806000806080858703121561216e578182fd5b84356121798161327a565b93506020850135925060408501356001600160401b038082111561219b578384fd5b6121a788838901611cbf565b935060608701359150808211156121bc578283fd5b506121c987828801611cbf565b91505092959194509250565b600080604083850312156121e7578182fd5b82356121f28161327a565b946020939093013593505050565b60008060408385031215612212578182fd5b82356001600160401b0380821115612228578384fd5b818501915085601f83011261223b578384fd5b8135612249611c6f8261320c565b80828252602080830192508086018a828387028901011115612269578889fd5b8896505b848710156122945780356122808161327a565b84526001969096019592810192810161226d565b5090965087013593505050808211156122ab578283fd5b506122b885828601611c51565b9150509250929050565b6000602082840312156122d3578081fd5b8151611af681613292565b6000602082840312156122ef578081fd5b8135611af6816132a0565b60006020828403121561230b578081fd5b8151611af6816132a0565b60008060408385031215612328578182fd5b82516001600160401b038082111561233e578384fd5b61234a86838701611d0d565b9350602085015191508082111561235f578283fd5b506122b885828601611d0d565b60006020828403121561237d578081fd5b81516001600160401b03811115612392578182fd5b610fbd84828501611d5a565b600080604083850312156123b0578182fd5b82516001600160401b03808211156123c6578384fd5b61234a86838701611d5a565b6000602082840312156123e3578081fd5b5035919050565b600080604083850312156123fc578182fd5b50508035926020909101359150565b6000815180845260208085019450808401835b8381101561243a5781518752958201959082019060010161241e565b509495945050505050565b6000815180845261245d81602086016020860161324a565b601f01601f19169290920160200192915050565b815160009082906020808601845b8381101561249b5781518552938201939082019060010161247f565b50929695505050505050565b600084516124b981846020890161324a565b91909101928352506020820152604001919050565b600084516124e081846020890161324a565b820184815283516124f881602080850190880161324a565b0160200195945050505050565b6000808454600180821660008114612524576001811461253b5761256a565b60ff198316865260028304607f168601935061256a565b600283048886526020808720875b838110156125625781548a820152908501908201612549565b505050860193505b505050835161257d81836020880161324a565b64173539b7b760d91b9101908152600501949350505050565b7f19457468657265756d205369676e6564204d6573736167653a0a3332000000008152601c810191909152603c0190565b6001600160a01b0391909116815260200190565b6001600160a01b0386811682528516602082015260a0604082018190526000906126079083018661240b565b8281036060840152612619818661240b565b9050828103608084015261262d8185612445565b98975050505050505050565b6001600160a01b03868116825285166020820152604081018490526060810183905260a06080820181905260009061267390830184612445565b979650505050505050565b6001600160a01b039384168152919092166020820152604081019190915260600190565b6001600160a01b0394851681529290931660208301526040820152606081019190915260a06080820181905260009082015260c00190565b600060208252611af6602083018461240b565b600060408252612700604083018561240b565b8281036020840152610324818561240b565b901515815260200190565b9182526001600160a01b0316602082015260400190565b9586526001600160a01b0394851660208701529290931660408501526060840152608083019190915260a082015260c00190565b9485526001600160a01b0393841660208601529190921660408401526060830191909152608082015260a00190565b600083825260406020830152610fbd6040830184612445565b93845260ff9290921660208401526040830152606082015260800190565b6000604082526127e16040830185612445565b82810360208401526103248185612445565b600060208252611af66020830184612445565b60208082526039908201527f455243313135355061636b656442616c616e63652362616c616e63654f66426160408201527f7463683a20494e56414c49445f41525241595f4c454e47544800000000000000606082015260800190565b6020808252603d908201527f455243313135355061636b656442616c616e636523736166654261746368547260408201527f616e7366657246726f6d3a20494e56414c49445f524543495049454e54000000606082015260800190565b6020808252603f908201527f455243313135354d6574615061636b656442616c616e6365235f7472616e736660408201527f65724761734665653a2045524332305f5452414e534645525f4641494c454400606082015260800190565b60208082526037908201527f4c6962427974657323706f704c617374427974653a20475245415445525f544860408201527f414e5f5a45524f5f4c454e4754485f5245515549524544000000000000000000606082015260800190565b6020808252603c908201527f455243313135354d6574615061636b656442616c616e6365235f7369676e617460408201527f75726556616c69646174696f6e3a20494e56414c49445f4e4f4e434500000000606082015260800190565b60208082526033908201527f455243313135355061636b656442616c616e6365235f7669657755706461746560408201527242696e56616c75653a20554e444552464c4f5760681b606082015260800190565b6020808252602a908201527f4f776e61626c65237472616e736665724f776e6572736869703a20494e56414c60408201526949445f4144445245535360b01b606082015260800190565b6020808252603a908201526000805160206132b783398151915260408201527f7572653a20554e535550504f525445445f5349474e4154555245000000000000606082015260800190565b602080825260409082018190527f455243313135354d6574615061636b656442616c616e6365235f7369676e6174908201527f75726556616c69646174696f6e3a20494e56414c49445f5349474e4154555245606082015260800190565b60208082526037908201527f455243313135355061636b656442616c616e636523736166655472616e73666560408201527f7246726f6d3a20494e56414c49445f4f50455241544f52000000000000000000606082015260800190565b60208082526036908201526000805160206132b78339815191526040820152757572653a20494c4c4547414c5f5349474e415455524560501b606082015260800190565b60208082526042908201527f455243313135355061636b656442616c616e6365235f7361666542617463685460408201527f72616e7366657246726f6d3a20494e56414c49445f4152524159535f4c454e476060820152610a8960f31b608082015260a00190565b6020808252604c908201527f455243313135355061636b656442616c616e6365235f63616c6c6f6e4552433160408201527f313535426174636852656365697665643a20494e56414c49445f4f4e5f52454360608201526b454956455f4d45535341474560a01b608082015260a00190565b60208082526037908201526000805160206132b783398151915260408201527f7572653a204c454e4754485f39375f5245515549524544000000000000000000606082015260800190565b6020808252603c908201527f455243313135355061636b656442616c616e636523736166654261746368547260408201527f616e7366657246726f6d3a20494e56414c49445f4f50455241544f5200000000606082015260800190565b60208082526036908201527f455243313135355061636b656442616c616e6365235f7361666542617463685460408201527572616e7366657246726f6d3a20554e444552464c4f5760501b606082015260800190565b60208082526033908201526000805160206132b78339815191526040820152723ab9329d1024a72b20a624a22fa9a4a3a722a960691b606082015260800190565b602080825260409082018190527f455243313135354d6574615061636b656442616c616e6365236d657461536166908201527f655472616e7366657246726f6d3a20494e56414c49445f524543495049454e54606082015260800190565b60208082526047908201527f455243313135355061636b656442616c616e6365235f63616c6c6f6e4552433160408201527f31353552656365697665643a20494e56414c49445f4f4e5f524543454956455f6060820152664d45535341474560c81b608082015260a00190565b60208082526043908201526000805160206132b783398151915260408201527f7572653a204c454e4754485f475245415445525f5448414e5f305f524551554960608201526214915160ea1b608082015260a00190565b60208082526045908201527f455243313135354d6574615061636b656442616c616e6365236d65746153616660408201527f6542617463685472616e7366657246726f6d3a20494e56414c49445f52454349606082015264141251539560da1b608082015260a00190565b60208082526038908201527f455243313135355061636b656442616c616e636523736166655472616e73666560408201527f7246726f6d3a20494e56414c49445f524543495049454e540000000000000000606082015260800190565b60208082526026908201527f4f776e61626c65236f6e6c794f776e65723a2053454e4445525f49535f4e4f546040820152652fa7aba722a960d11b606082015260800190565b6020808252603b908201527f455243313135354d6574615061636b656442616c616e6365235f7472616e736660408201527f65724761734665653a20554e535550504f525445445f544f4b454e0000000000606082015260800190565b6020808252603c908201527f4c696242797465732372656164427974657333323a20475245415445525f4f5260408201527f5f455155414c5f544f5f33325f4c454e4754485f524551554952454400000000606082015260800190565b60208082526034908201527f455243313135354d6574614d696e744275726e5061636b656442616c616e6365604082015273135bd8dace881253959053125117d351551213d160621b606082015260800190565b60208082526045908201527f455243313135355061636b656442616c616e6365235f7669657755706461746560408201527f42696e56616c75653a20494e56414c49445f42494e5f57524954455f4f50455260608201526420aa24a7a760d91b608082015260a00190565b60208082526032908201527f455243313135355061636b656442616c616e6365235f7669657755706461746560408201527142696e56616c75653a204f564552464c4f5760701b606082015260800190565b90815260200190565b918252602082015260400190565b6040518181016001600160401b038111828210171561320457fe5b604052919050565b60006001600160401b0382111561321f57fe5b5060209081020190565b60006001600160401b0382111561323c57fe5b50601f01601f191660200190565b60005b8381101561326557818101518382015260200161324d565b83811115613274576000848401525b50505050565b6001600160a01b038116811461328f57600080fd5b50565b801515811461328f57600080fd5b6001600160e01b03198116811461328f57600080fdfe5369676e617475726556616c696461746f7223697356616c69645369676e6174a26469706673582212209b91a59671fb1cd4c0eb34b26a0642b5f08b95ece88ea3c20da5596bfb93412964736f6c63430007040033",
			"opcodes": "PUSH1 0x80 PUSH1 0x40 MSTORE CALLVALUE DUP1 ISZERO PUSH3 0x11 JUMPI PUSH1 0x0 DUP1 REVERT JUMPDEST POP PUSH1 0x40 MLOAD PUSH3 0x35C0 CODESIZE SUB DUP1 PUSH3 0x35C0 DUP4 CODECOPY DUP2 ADD PUSH1 0x40 DUP2 SWAP1 MSTORE PUSH3 0x34 SWAP2 PUSH3 0x217 JUMP JUMPDEST PUSH1 0x0 DUP1 SLOAD PUSH1 0x1 PUSH1 0x1 PUSH1 0xA0 SHL SUB NOT AND CALLER OR DUP1 DUP3 SSTORE PUSH1 0x40 MLOAD PUSH1 0x1 PUSH1 0x1 PUSH1 0xA0 SHL SUB SWAP2 SWAP1 SWAP2 AND SWAP2 SWAP1 PUSH32 0x8BE0079C531659141344CD1FD0A4F28419497F9722A3DAAFE3B4186F6B6457E0 SWAP1 DUP3 SWAP1 LOG3 DUP3 MLOAD PUSH3 0x92 SWAP1 PUSH1 0x5 SWAP1 PUSH1 0x20 DUP7 ADD SWAP1 PUSH3 0xC8 JUMP JUMPDEST POP DUP2 MLOAD PUSH3 0xA8 SWAP1 PUSH1 0x6 SWAP1 PUSH1 0x20 DUP6 ADD SWAP1 PUSH3 0xC8 JUMP JUMPDEST POP DUP1 MLOAD PUSH3 0xBE SWAP1 PUSH1 0x4 SWAP1 PUSH1 0x20 DUP5 ADD SWAP1 PUSH3 0xC8 JUMP JUMPDEST POP POP POP POP PUSH3 0x2A4 JUMP JUMPDEST DUP3 DUP1 SLOAD PUSH1 0x1 DUP2 PUSH1 0x1 AND ISZERO PUSH2 0x100 MUL SUB AND PUSH1 0x2 SWAP1 DIV SWAP1 PUSH1 0x0 MSTORE PUSH1 0x20 PUSH1 0x0 KECCAK256 SWAP1 PUSH1 0x1F ADD PUSH1 0x20 SWAP1 DIV DUP2 ADD SWAP3 DUP3 PUSH3 0x100 JUMPI PUSH1 0x0 DUP6 SSTORE PUSH3 0x14B JUMP JUMPDEST DUP3 PUSH1 0x1F LT PUSH3 0x11B JUMPI DUP1 MLOAD PUSH1 0xFF NOT AND DUP4 DUP1 ADD OR DUP6 SSTORE PUSH3 0x14B JUMP JUMPDEST DUP3 DUP1 ADD PUSH1 0x1 ADD DUP6 SSTORE DUP3 ISZERO PUSH3 0x14B JUMPI SWAP2 DUP3 ADD JUMPDEST DUP3 DUP2 GT ISZERO PUSH3 0x14B JUMPI DUP3 MLOAD DUP3 SSTORE SWAP2 PUSH1 0x20 ADD SWAP2 SWAP1 PUSH1 0x1 ADD SWAP1 PUSH3 0x12E JUMP JUMPDEST POP PUSH3 0x159 SWAP3 SWAP2 POP PUSH3 0x15D JUMP JUMPDEST POP SWAP1 JUMP JUMPDEST JUMPDEST DUP1 DUP3 GT ISZERO PUSH3 0x159 JUMPI PUSH1 0x0 DUP2 SSTORE PUSH1 0x1 ADD PUSH3 0x15E JUMP JUMPDEST PUSH1 0x0 DUP3 PUSH1 0x1F DUP4 ADD SLT PUSH3 0x185 JUMPI DUP1 DUP2 REVERT JUMPDEST DUP2 MLOAD PUSH1 0x1 PUSH1 0x1 PUSH1 0x40 SHL SUB DUP1 DUP3 GT ISZERO PUSH3 0x19A JUMPI INVALID JUMPDEST PUSH1 0x40 MLOAD PUSH1 0x20 PUSH1 0x1F DUP5 ADD PUSH1 0x1F NOT AND DUP3 ADD DUP2 ADD DUP4 DUP2 GT DUP4 DUP3 LT OR ISZERO PUSH3 0x1BA JUMPI INVALID JUMPDEST DUP1 PUSH1 0x40 MSTORE POP DUP2 SWAP5 POP DUP4 DUP3 MSTORE DUP7 DUP2 DUP6 DUP9 ADD ADD GT ISZERO PUSH3 0x1D7 JUMPI PUSH1 0x0 DUP1 REVERT JUMPDEST PUSH1 0x0 SWAP3 POP JUMPDEST DUP4 DUP4 LT ISZERO PUSH3 0x1FB JUMPI DUP6 DUP4 ADD DUP2 ADD MLOAD DUP3 DUP5 ADD DUP3 ADD MSTORE SWAP2 DUP3 ADD SWAP2 PUSH3 0x1DC JUMP JUMPDEST DUP4 DUP4 GT ISZERO PUSH3 0x20D JUMPI PUSH1 0x0 DUP2 DUP6 DUP5 ADD ADD MSTORE JUMPDEST POP POP POP POP SWAP3 SWAP2 POP POP JUMP JUMPDEST PUSH1 0x0 DUP1 PUSH1 0x0 PUSH1 0x60 DUP5 DUP7 SUB SLT ISZERO PUSH3 0x22C JUMPI DUP3 DUP4 REVERT JUMPDEST DUP4 MLOAD PUSH1 0x1 PUSH1 0x1 PUSH1 0x40 SHL SUB DUP1 DUP3 GT ISZERO PUSH3 0x243 JUMPI DUP5 DUP6 REVERT JUMPDEST PUSH3 0x251 DUP8 DUP4 DUP9 ADD PUSH3 0x174 JUMP JUMPDEST SWAP5 POP PUSH1 0x20 DUP7 ADD MLOAD SWAP2 POP DUP1 DUP3 GT ISZERO PUSH3 0x267 JUMPI DUP4 DUP5 REVERT JUMPDEST PUSH3 0x275 DUP8 DUP4 DUP9 ADD PUSH3 0x174 JUMP JUMPDEST SWAP4 POP PUSH1 0x40 DUP7 ADD MLOAD SWAP2 POP DUP1 DUP3 GT ISZERO PUSH3 0x28B JUMPI DUP3 DUP4 REVERT JUMPDEST POP PUSH3 0x29A DUP7 DUP3 DUP8 ADD PUSH3 0x174 JUMP JUMPDEST SWAP2 POP POP SWAP3 POP SWAP3 POP SWAP3 JUMP JUMPDEST PUSH2 0x330C DUP1 PUSH3 0x2B4 PUSH1 0x0 CODECOPY PUSH1 0x0 RETURN INVALID PUSH1 0x80 PUSH1 0x40 MSTORE CALLVALUE DUP1 ISZERO PUSH2 0x10 JUMPI PUSH1 0x0 DUP1 REVERT JUMPDEST POP PUSH1 0x4 CALLDATASIZE LT PUSH2 0x120 JUMPI PUSH1 0x0 CALLDATALOAD PUSH1 0xE0 SHR DUP1 PUSH4 0xA22CB465 GT PUSH2 0xAD JUMPI DUP1 PUSH4 0xEAEC5F81 GT PUSH2 0x71 JUMPI DUP1 PUSH4 0xEAEC5F81 EQ PUSH2 0x284 JUMPI DUP1 PUSH4 0xF242432A EQ PUSH2 0x297 JUMPI DUP1 PUSH4 0xF2FDE38B EQ PUSH2 0x2AA JUMPI DUP1 PUSH4 0xF5D4C820 EQ PUSH2 0x2BD JUMPI DUP1 PUSH4 0xFA4E12D7 EQ PUSH2 0x2D0 JUMPI PUSH2 0x120 JUMP JUMPDEST DUP1 PUSH4 0xA22CB465 EQ PUSH2 0x217 JUMPI DUP1 PUSH4 0xA3D4926E EQ PUSH2 0x22A JUMPI DUP1 PUSH4 0xCE0B514B EQ PUSH2 0x23D JUMPI DUP1 PUSH4 0xDB90E83C EQ PUSH2 0x250 JUMPI DUP1 PUSH4 0xE985E9C5 EQ PUSH2 0x271 JUMPI PUSH2 0x120 JUMP JUMPDEST DUP1 PUSH4 0x2D0335AB GT PUSH2 0xF4 JUMPI DUP1 PUSH4 0x2D0335AB EQ PUSH2 0x1B2 JUMPI DUP1 PUSH4 0x2EB2C2D6 EQ PUSH2 0x1C5 JUMPI DUP1 PUSH4 0x4E1273F4 EQ PUSH2 0x1DA JUMPI DUP1 PUSH4 0x8DA5CB5B EQ PUSH2 0x1FA JUMPI DUP1 PUSH4 0x95D89B41 EQ PUSH2 0x20F JUMPI PUSH2 0x120 JUMP JUMPDEST DUP1 PUSH3 0xFDD58E EQ PUSH2 0x141 JUMPI DUP1 PUSH4 0x1FFC9A7 EQ PUSH2 0x16A JUMPI DUP1 PUSH4 0x6FDDE03 EQ PUSH2 0x18A JUMPI DUP1 PUSH4 0xE89341C EQ PUSH2 0x19F JUMPI JUMPDEST PUSH1 0x40 MLOAD PUSH3 0x461BCD PUSH1 0xE5 SHL DUP2 MSTORE PUSH1 0x4 ADD PUSH2 0x138 SWAP1 PUSH2 0x30C1 JUMP JUMPDEST PUSH1 0x40 MLOAD DUP1 SWAP2 SUB SWAP1 REVERT JUMPDEST PUSH2 0x154 PUSH2 0x14F CALLDATASIZE PUSH1 0x4 PUSH2 0x21D5 JUMP JUMPDEST PUSH2 0x2E3 JUMP JUMPDEST PUSH1 0x40 MLOAD PUSH2 0x161 SWAP2 SWAP1 PUSH2 0x31D2 JUMP JUMPDEST PUSH1 0x40 MLOAD DUP1 SWAP2 SUB SWAP1 RETURN JUMPDEST PUSH2 0x17D PUSH2 0x178 CALLDATASIZE PUSH1 0x4 PUSH2 0x22DE JUMP JUMPDEST PUSH2 0x32D JUMP JUMPDEST PUSH1 0x40 MLOAD PUSH2 0x161 SWAP2 SWAP1 PUSH2 0x2712 JUMP JUMPDEST PUSH2 0x192 PUSH2 0x340 JUMP JUMPDEST PUSH1 0x40 MLOAD PUSH2 0x161 SWAP2 SWAP1 PUSH2 0x27F3 JUMP JUMPDEST PUSH2 0x192 PUSH2 0x1AD CALLDATASIZE PUSH1 0x4 PUSH2 0x23D2 JUMP JUMPDEST PUSH2 0x3D6 JUMP JUMPDEST PUSH2 0x154 PUSH2 0x1C0 CALLDATASIZE PUSH1 0x4 PUSH2 0x1DE1 JUMP JUMPDEST PUSH2 0x40A JUMP JUMPDEST PUSH2 0x1D8 PUSH2 0x1D3 CALLDATASIZE PUSH1 0x4 PUSH2 0x1F3A JUMP JUMPDEST PUSH2 0x425 JUMP JUMPDEST STOP JUMPDEST PUSH2 0x1ED PUSH2 0x1E8 CALLDATASIZE PUSH1 0x4 PUSH2 0x2200 JUMP JUMPDEST PUSH2 0x4A4 JUMP JUMPDEST PUSH1 0x40 MLOAD PUSH2 0x161 SWAP2 SWAP1 PUSH2 0x26DA JUMP JUMPDEST PUSH2 0x202 PUSH2 0x69D JUMP JUMPDEST PUSH1 0x40 MLOAD PUSH2 0x161 SWAP2 SWAP1 PUSH2 0x25C7 JUMP JUMPDEST PUSH2 0x192 PUSH2 0x6AC JUMP JUMPDEST PUSH2 0x1D8 PUSH2 0x225 CALLDATASIZE PUSH1 0x4 PUSH2 0x212C JUMP JUMPDEST PUSH2 0x70D JUMP JUMPDEST PUSH2 0x1D8 PUSH2 0x238 CALLDATASIZE PUSH1 0x4 PUSH2 0x1E7E JUMP JUMPDEST PUSH2 0x77C JUMP JUMPDEST PUSH2 0x1D8 PUSH2 0x24B CALLDATASIZE PUSH1 0x4 PUSH2 0x205B JUMP JUMPDEST PUSH2 0x8C9 JUMP JUMPDEST PUSH2 0x263 PUSH2 0x25E CALLDATASIZE PUSH1 0x4 PUSH2 0x23D2 JUMP JUMPDEST PUSH2 0x981 JUMP JUMPDEST PUSH1 0x40 MLOAD PUSH2 0x161 SWAP3 SWAP2 SWAP1 PUSH2 0x31DB JUMP JUMPDEST PUSH2 0x17D PUSH2 0x27F CALLDATASIZE PUSH1 0x4 PUSH2 0x1E46 JUMP JUMPDEST PUSH2 0x98E JUMP JUMPDEST PUSH2 0x154 PUSH2 0x292 CALLDATASIZE PUSH1 0x4 PUSH2 0x23EA JUMP JUMPDEST PUSH2 0x9BC JUMP JUMPDEST PUSH2 0x1D8 PUSH2 0x2A5 CALLDATASIZE PUSH1 0x4 PUSH2 0x20D2 JUMP JUMPDEST PUSH2 0x9CF JUMP JUMPDEST PUSH2 0x1D8 PUSH2 0x2B8 CALLDATASIZE PUSH1 0x4 PUSH2 0x1DE1 JUMP JUMPDEST PUSH2 0xA47 JUMP JUMPDEST PUSH2 0x1D8 PUSH2 0x2CB CALLDATASIZE PUSH1 0x4 PUSH2 0x1FE3 JUMP JUMPDEST PUSH2 0xAF2 JUMP JUMPDEST PUSH2 0x17D PUSH2 0x2DE CALLDATASIZE PUSH1 0x4 PUSH2 0x2159 JUMP JUMPDEST PUSH2 0xBF7 JUMP JUMPDEST PUSH1 0x0 DUP1 PUSH1 0x0 PUSH2 0x2F1 DUP5 PUSH2 0x981 JUMP JUMPDEST PUSH1 0x1 PUSH1 0x1 PUSH1 0xA0 SHL SUB DUP8 AND PUSH1 0x0 SWAP1 DUP2 MSTORE PUSH1 0x1 PUSH1 0x20 SWAP1 DUP2 MSTORE PUSH1 0x40 DUP1 DUP4 KECCAK256 DUP6 DUP5 MSTORE SWAP1 SWAP2 MSTORE SWAP1 KECCAK256 SLOAD SWAP2 SWAP4 POP SWAP2 POP PUSH2 0x324 SWAP1 DUP3 PUSH2 0x9BC JUMP JUMPDEST SWAP6 SWAP5 POP POP POP POP POP JUMP JUMPDEST PUSH1 0x0 PUSH2 0x338 DUP3 PUSH2 0xFC5 JUMP JUMPDEST SWAP1 POP JUMPDEST SWAP2 SWAP1 POP JUMP JUMPDEST PUSH1 0x5 DUP1 SLOAD PUSH1 0x40 DUP1 MLOAD PUSH1 0x20 PUSH1 0x1F PUSH1 0x2 PUSH1 0x0 NOT PUSH2 0x100 PUSH1 0x1 DUP9 AND ISZERO MUL ADD SWAP1 SWAP6 AND SWAP5 SWAP1 SWAP5 DIV SWAP4 DUP5 ADD DUP2 SWAP1 DIV DUP2 MUL DUP3 ADD DUP2 ADD SWAP1 SWAP3 MSTORE DUP3 DUP2 MSTORE PUSH1 0x60 SWAP4 SWAP1 SWAP3 SWAP1 SWAP2 DUP4 ADD DUP3 DUP3 DUP1 ISZERO PUSH2 0x3CC JUMPI DUP1 PUSH1 0x1F LT PUSH2 0x3A1 JUMPI PUSH2 0x100 DUP1 DUP4 SLOAD DIV MUL DUP4 MSTORE SWAP2 PUSH1 0x20 ADD SWAP2 PUSH2 0x3CC JUMP JUMPDEST DUP3 ADD SWAP2 SWAP1 PUSH1 0x0 MSTORE PUSH1 0x20 PUSH1 0x0 KECCAK256 SWAP1 JUMPDEST DUP2 SLOAD DUP2 MSTORE SWAP1 PUSH1 0x1 ADD SWAP1 PUSH1 0x20 ADD DUP1 DUP4 GT PUSH2 0x3AF JUMPI DUP3 SWAP1 SUB PUSH1 0x1F AND DUP3 ADD SWAP2 JUMPDEST POP POP POP POP POP SWAP1 POP SWAP1 JUMP JUMPDEST PUSH1 0x60 PUSH1 0x4 PUSH2 0x3E3 DUP4 PUSH2 0xFF1 JUMP JUMPDEST PUSH1 0x40 MLOAD PUSH1 0x20 ADD PUSH2 0x3F4 SWAP3 SWAP2 SWAP1 PUSH2 0x2505 JUMP JUMPDEST PUSH1 0x40 MLOAD PUSH1 0x20 DUP2 DUP4 SUB SUB DUP2 MSTORE SWAP1 PUSH1 0x40 MSTORE SWAP1 POP SWAP2 SWAP1 POP JUMP JUMPDEST PUSH1 0x1 PUSH1 0x1 PUSH1 0xA0 SHL SUB AND PUSH1 0x0 SWAP1 DUP2 MSTORE PUSH1 0x3 PUSH1 0x20 MSTORE PUSH1 0x40 SWAP1 KECCAK256 SLOAD SWAP1 JUMP JUMPDEST CALLER PUSH1 0x1 PUSH1 0x1 PUSH1 0xA0 SHL SUB DUP7 AND EQ DUP1 PUSH2 0x441 JUMPI POP PUSH2 0x441 DUP6 CALLER PUSH2 0x98E JUMP JUMPDEST PUSH2 0x45D JUMPI PUSH1 0x40 MLOAD PUSH3 0x461BCD PUSH1 0xE5 SHL DUP2 MSTORE PUSH1 0x4 ADD PUSH2 0x138 SWAP1 PUSH2 0x2CE3 JUMP JUMPDEST PUSH1 0x1 PUSH1 0x1 PUSH1 0xA0 SHL SUB DUP5 AND PUSH2 0x483 JUMPI PUSH1 0x40 MLOAD PUSH3 0x461BCD PUSH1 0xE5 SHL DUP2 MSTORE PUSH1 0x4 ADD PUSH2 0x138 SWAP1 PUSH2 0x2863 JUMP JUMPDEST PUSH2 0x48F DUP6 DUP6 DUP6 DUP6 PUSH2 0x10CA JUMP JUMPDEST PUSH2 0x49D DUP6 DUP6 DUP6 DUP6 GAS DUP7 PUSH2 0x1395 JUMP JUMPDEST POP POP POP POP POP JUMP JUMPDEST DUP2 MLOAD DUP2 MLOAD PUSH1 0x60 SWAP2 SWAP1 DUP2 EQ PUSH2 0x4CA JUMPI PUSH1 0x40 MLOAD PUSH3 0x461BCD PUSH1 0xE5 SHL DUP2 MSTORE PUSH1 0x4 ADD PUSH2 0x138 SWAP1 PUSH2 0x2806 JUMP JUMPDEST PUSH1 0x0 DUP1 PUSH2 0x4EA DUP6 PUSH1 0x0 DUP2 MLOAD DUP2 LT PUSH2 0x4DD JUMPI INVALID JUMPDEST PUSH1 0x20 MUL PUSH1 0x20 ADD ADD MLOAD PUSH2 0x981 JUMP JUMPDEST SWAP2 POP SWAP2 POP PUSH1 0x0 PUSH1 0x1 PUSH1 0x0 DUP9 PUSH1 0x0 DUP2 MLOAD DUP2 LT PUSH2 0x501 JUMPI INVALID JUMPDEST PUSH1 0x20 MUL PUSH1 0x20 ADD ADD MLOAD PUSH1 0x1 PUSH1 0x1 PUSH1 0xA0 SHL SUB AND PUSH1 0x1 PUSH1 0x1 PUSH1 0xA0 SHL SUB AND DUP2 MSTORE PUSH1 0x20 ADD SWAP1 DUP2 MSTORE PUSH1 0x20 ADD PUSH1 0x0 KECCAK256 PUSH1 0x0 DUP5 DUP2 MSTORE PUSH1 0x20 ADD SWAP1 DUP2 MSTORE PUSH1 0x20 ADD PUSH1 0x0 KECCAK256 SLOAD SWAP1 POP PUSH1 0x0 DUP4 SWAP1 POP PUSH1 0x60 DUP6 PUSH1 0x1 PUSH1 0x1 PUSH1 0x40 SHL SUB DUP2 GT DUP1 ISZERO PUSH2 0x55A JUMPI PUSH1 0x0 DUP1 REVERT JUMPDEST POP PUSH1 0x40 MLOAD SWAP1 DUP1 DUP3 MSTORE DUP1 PUSH1 0x20 MUL PUSH1 0x20 ADD DUP3 ADD PUSH1 0x40 MSTORE DUP1 ISZERO PUSH2 0x584 JUMPI DUP2 PUSH1 0x20 ADD PUSH1 0x20 DUP3 MUL DUP1 CALLDATASIZE DUP4 CALLDATACOPY ADD SWAP1 POP JUMPDEST POP SWAP1 POP PUSH2 0x591 DUP4 DUP6 PUSH2 0x9BC JUMP JUMPDEST DUP2 PUSH1 0x0 DUP2 MLOAD DUP2 LT PUSH2 0x59E JUMPI INVALID JUMPDEST PUSH1 0x20 SWAP1 DUP2 MUL SWAP2 SWAP1 SWAP2 ADD ADD MSTORE PUSH1 0x1 JUMPDEST DUP7 DUP2 LT ISZERO PUSH2 0x690 JUMPI PUSH2 0x5C3 DUP10 DUP3 DUP2 MLOAD DUP2 LT PUSH2 0x4DD JUMPI INVALID JUMPDEST SWAP1 SWAP7 POP SWAP5 POP DUP3 DUP7 EQ ISZERO DUP1 PUSH2 0x612 JUMPI POP DUP10 DUP2 DUP2 MLOAD DUP2 LT PUSH2 0x5DE JUMPI INVALID JUMPDEST PUSH1 0x20 MUL PUSH1 0x20 ADD ADD MLOAD PUSH1 0x1 PUSH1 0x1 PUSH1 0xA0 SHL SUB AND DUP11 PUSH1 0x1 DUP4 SUB DUP2 MLOAD DUP2 LT PUSH2 0x5FE JUMPI INVALID JUMPDEST PUSH1 0x20 MUL PUSH1 0x20 ADD ADD MLOAD PUSH1 0x1 PUSH1 0x1 PUSH1 0xA0 SHL SUB AND EQ ISZERO JUMPDEST ISZERO PUSH2 0x667 JUMPI PUSH1 0x1 PUSH1 0x0 DUP12 DUP4 DUP2 MLOAD DUP2 LT PUSH2 0x627 JUMPI INVALID JUMPDEST PUSH1 0x20 MUL PUSH1 0x20 ADD ADD MLOAD PUSH1 0x1 PUSH1 0x1 PUSH1 0xA0 SHL SUB AND PUSH1 0x1 PUSH1 0x1 PUSH1 0xA0 SHL SUB AND DUP2 MSTORE PUSH1 0x20 ADD SWAP1 DUP2 MSTORE PUSH1 0x20 ADD PUSH1 0x0 KECCAK256 PUSH1 0x0 DUP8 DUP2 MSTORE PUSH1 0x20 ADD SWAP1 DUP2 MSTORE PUSH1 0x20 ADD PUSH1 0x0 KECCAK256 SLOAD SWAP4 POP DUP6 SWAP3 POP JUMPDEST PUSH2 0x671 DUP5 DUP7 PUSH2 0x9BC JUMP JUMPDEST DUP3 DUP3 DUP2 MLOAD DUP2 LT PUSH2 0x67D JUMPI INVALID JUMPDEST PUSH1 0x20 SWAP1 DUP2 MUL SWAP2 SWAP1 SWAP2 ADD ADD MSTORE PUSH1 0x1 ADD PUSH2 0x5AC JUMP JUMPDEST POP SWAP9 SWAP8 POP POP POP POP POP POP POP POP JUMP JUMPDEST PUSH1 0x0 SLOAD PUSH1 0x1 PUSH1 0x1 PUSH1 0xA0 SHL SUB AND SWAP1 JUMP JUMPDEST PUSH1 0x6 DUP1 SLOAD PUSH1 0x40 DUP1 MLOAD PUSH1 0x20 PUSH1 0x1F PUSH1 0x2 PUSH1 0x0 NOT PUSH2 0x100 PUSH1 0x1 DUP9 AND ISZERO MUL ADD SWAP1 SWAP6 AND SWAP5 SWAP1 SWAP5 DIV SWAP4 DUP5 ADD DUP2 SWAP1 DIV DUP2 MUL DUP3 ADD DUP2 ADD SWAP1 SWAP3 MSTORE DUP3 DUP2 MSTORE PUSH1 0x60 SWAP4 SWAP1 SWAP3 SWAP1 SWAP2 DUP4 ADD DUP3 DUP3 DUP1 ISZERO PUSH2 0x3CC JUMPI DUP1 PUSH1 0x1F LT PUSH2 0x3A1 JUMPI PUSH2 0x100 DUP1 DUP4 SLOAD DIV MUL DUP4 MSTORE SWAP2 PUSH1 0x20 ADD SWAP2 PUSH2 0x3CC JUMP JUMPDEST CALLER PUSH1 0x0 DUP2 DUP2 MSTORE PUSH1 0x2 PUSH1 0x20 SWAP1 DUP2 MSTORE PUSH1 0x40 DUP1 DUP4 KECCAK256 PUSH1 0x1 PUSH1 0x1 PUSH1 0xA0 SHL SUB DUP8 AND DUP1 DUP6 MSTORE SWAP3 MSTORE SWAP2 DUP3 SWAP1 KECCAK256 DUP1 SLOAD PUSH1 0xFF NOT AND DUP6 ISZERO ISZERO OR SWAP1 SSTORE SWAP1 MLOAD SWAP1 SWAP2 SWAP1 PUSH32 0x17307EAB39AB6107E8899845AD3D59BD9653F200F220920489CA2B5937696C31 SWAP1 PUSH2 0x770 SWAP1 DUP6 SWAP1 PUSH2 0x2712 JUMP JUMPDEST PUSH1 0x40 MLOAD DUP1 SWAP2 SUB SWAP1 LOG3 POP POP JUMP JUMPDEST PUSH1 0x1 PUSH1 0x1 PUSH1 0xA0 SHL SUB DUP6 AND PUSH2 0x7A2 JUMPI PUSH1 0x40 MLOAD PUSH3 0x461BCD PUSH1 0xE5 SHL DUP2 MSTORE PUSH1 0x4 ADD PUSH2 0x138 SWAP1 PUSH2 0x2EF9 JUMP JUMPDEST PUSH1 0x60 PUSH2 0x7AC PUSH2 0x1C20 JUMP JUMPDEST PUSH1 0x60 PUSH2 0x85F DUP10 DUP6 PUSH32 0xA3D4926E8CF8FE8E020CD29F514C256BC2EEC62AA2337E415F1A33A4828AF5A0 PUSH1 0x0 SHL DUP13 DUP13 DUP13 PUSH1 0x40 MLOAD PUSH1 0x20 ADD PUSH2 0x7EA SWAP2 SWAP1 PUSH2 0x2471 JUMP JUMPDEST PUSH1 0x40 MLOAD PUSH1 0x20 DUP2 DUP4 SUB SUB DUP2 MSTORE SWAP1 PUSH1 0x40 MSTORE DUP1 MLOAD SWAP1 PUSH1 0x20 ADD KECCAK256 DUP13 PUSH1 0x40 MLOAD PUSH1 0x20 ADD PUSH2 0x811 SWAP2 SWAP1 PUSH2 0x2471 JUMP JUMPDEST PUSH1 0x40 MLOAD PUSH1 0x20 DUP2 DUP4 SUB SUB DUP2 MSTORE SWAP1 PUSH1 0x40 MSTORE DUP1 MLOAD SWAP1 PUSH1 0x20 ADD KECCAK256 DUP13 PUSH2 0x833 JUMPI PUSH1 0x0 PUSH2 0x836 JUMP JUMPDEST PUSH1 0x1 JUMPDEST PUSH1 0x40 MLOAD PUSH1 0x20 ADD PUSH2 0x84B SWAP7 SWAP6 SWAP5 SWAP4 SWAP3 SWAP2 SWAP1 PUSH2 0x2734 JUMP JUMPDEST PUSH1 0x40 MLOAD PUSH1 0x20 DUP2 DUP4 SUB SUB DUP2 MSTORE SWAP1 PUSH1 0x40 MSTORE PUSH2 0x1468 JUMP JUMPDEST SWAP1 POP PUSH2 0x86D DUP10 DUP10 DUP10 DUP10 PUSH2 0x10CA JUMP JUMPDEST DUP5 ISZERO PUSH2 0x8B0 JUMPI DUP1 DUP1 PUSH1 0x20 ADD SWAP1 MLOAD DUP2 ADD SWAP1 PUSH2 0x887 SWAP2 SWAP1 PUSH2 0x239E JUMP JUMPDEST DUP1 SWAP5 POP DUP2 SWAP4 POP POP POP PUSH2 0x8A1 DUP10 DUP10 DUP10 DUP10 DUP7 PUSH1 0x20 ADD MLOAD DUP9 PUSH2 0x1395 JUMP JUMPDEST PUSH2 0x8AB DUP10 DUP4 PUSH2 0x15CB JUMP JUMPDEST PUSH2 0x8BE JUMP JUMPDEST PUSH2 0x8BE DUP10 DUP10 DUP10 DUP10 GAS DUP7 PUSH2 0x1395 JUMP JUMPDEST POP POP POP POP POP POP POP POP POP JUMP JUMPDEST PUSH1 0x1 PUSH1 0x1 PUSH1 0xA0 SHL SUB DUP6 AND PUSH2 0x8EF JUMPI PUSH1 0x40 MLOAD PUSH3 0x461BCD PUSH1 0xE5 SHL DUP2 MSTORE PUSH1 0x4 ADD PUSH2 0x138 SWAP1 PUSH2 0x2DD7 JUMP JUMPDEST PUSH1 0x60 PUSH2 0x8F9 PUSH2 0x1C20 JUMP JUMPDEST PUSH1 0x60 PUSH2 0x931 DUP10 DUP6 PUSH32 0xCE0B514B3931BDBE4D5D44E4F035AFE7113767B7DB71949271F6A62D9C60F558 DUP3 DUP13 DUP13 DUP13 DUP13 PUSH2 0x833 JUMPI PUSH1 0x0 PUSH2 0x836 JUMP JUMPDEST SWAP1 POP PUSH2 0x93F DUP10 DUP10 DUP10 DUP10 PUSH2 0x17DA JUMP JUMPDEST DUP5 ISZERO PUSH2 0x973 JUMPI DUP1 DUP1 PUSH1 0x20 ADD SWAP1 MLOAD DUP2 ADD SWAP1 PUSH2 0x959 SWAP2 SWAP1 PUSH2 0x239E JUMP JUMPDEST DUP1 SWAP5 POP DUP2 SWAP4 POP POP POP PUSH2 0x8A1 DUP10 DUP10 DUP10 DUP10 DUP7 PUSH1 0x20 ADD MLOAD DUP9 PUSH2 0x1851 JUMP JUMPDEST PUSH2 0x8BE DUP10 DUP10 DUP10 DUP10 GAS DUP7 PUSH2 0x1851 JUMP JUMPDEST PUSH1 0x8 DUP2 DIV SWAP2 PUSH1 0x7 SWAP1 SWAP2 AND SWAP1 JUMP JUMPDEST PUSH1 0x1 PUSH1 0x1 PUSH1 0xA0 SHL SUB SWAP2 DUP3 AND PUSH1 0x0 SWAP1 DUP2 MSTORE PUSH1 0x2 PUSH1 0x20 SWAP1 DUP2 MSTORE PUSH1 0x40 DUP1 DUP4 KECCAK256 SWAP4 SWAP1 SWAP5 AND DUP3 MSTORE SWAP2 SWAP1 SWAP2 MSTORE KECCAK256 SLOAD PUSH1 0xFF AND SWAP1 JUMP JUMPDEST PUSH1 0x20 DUP2 MUL DUP3 SWAP1 SHR PUSH4 0xFFFFFFFF AND SWAP3 SWAP2 POP POP JUMP JUMPDEST CALLER PUSH1 0x1 PUSH1 0x1 PUSH1 0xA0 SHL SUB DUP7 AND EQ DUP1 PUSH2 0x9EB JUMPI POP PUSH2 0x9EB DUP6 CALLER PUSH2 0x98E JUMP JUMPDEST PUSH2 0xA07 JUMPI PUSH1 0x40 MLOAD PUSH3 0x461BCD PUSH1 0xE5 SHL DUP2 MSTORE PUSH1 0x4 ADD PUSH2 0x138 SWAP1 PUSH2 0x2B1D JUMP JUMPDEST PUSH1 0x1 PUSH1 0x1 PUSH1 0xA0 SHL SUB DUP5 AND PUSH2 0xA2D JUMPI PUSH1 0x40 MLOAD PUSH3 0x461BCD PUSH1 0xE5 SHL DUP2 MSTORE PUSH1 0x4 ADD PUSH2 0x138 SWAP1 PUSH2 0x2F64 JUMP JUMPDEST PUSH2 0xA39 DUP6 DUP6 DUP6 DUP6 PUSH2 0x17DA JUMP JUMPDEST PUSH2 0x49D DUP6 DUP6 DUP6 DUP6 GAS DUP7 PUSH2 0x1851 JUMP JUMPDEST PUSH1 0x0 SLOAD PUSH1 0x1 PUSH1 0x1 PUSH1 0xA0 SHL SUB AND CALLER EQ PUSH2 0xA71 JUMPI PUSH1 0x40 MLOAD PUSH3 0x461BCD PUSH1 0xE5 SHL DUP2 MSTORE PUSH1 0x4 ADD PUSH2 0x138 SWAP1 PUSH2 0x2FC1 JUMP JUMPDEST PUSH1 0x1 PUSH1 0x1 PUSH1 0xA0 SHL SUB DUP2 AND PUSH2 0xA97 JUMPI PUSH1 0x40 MLOAD PUSH3 0x461BCD PUSH1 0xE5 SHL DUP2 MSTORE PUSH1 0x4 ADD PUSH2 0x138 SWAP1 PUSH2 0x2A2A JUMP JUMPDEST PUSH1 0x0 DUP1 SLOAD PUSH1 0x40 MLOAD PUSH1 0x1 PUSH1 0x1 PUSH1 0xA0 SHL SUB DUP1 DUP6 AND SWAP4 SWAP3 AND SWAP2 PUSH32 0x8BE0079C531659141344CD1FD0A4F28419497F9722A3DAAFE3B4186F6B6457E0 SWAP2 LOG3 PUSH1 0x0 DUP1 SLOAD PUSH1 0x1 PUSH1 0x1 PUSH1 0xA0 SHL SUB NOT AND PUSH1 0x1 PUSH1 0x1 PUSH1 0xA0 SHL SUB SWAP3 SWAP1 SWAP3 AND SWAP2 SWAP1 SWAP2 OR SWAP1 SSTORE JUMP JUMPDEST PUSH1 0x60 PUSH2 0xB4E DUP7 DUP4 PUSH32 0xF5D4C820494C8595DE274C7FF619BEAD38AAC4FBC3D143B5BF956AA4B84FA524 DUP3 DUP10 DUP10 PUSH2 0xB28 JUMPI PUSH1 0x0 PUSH2 0xB2B JUMP JUMPDEST PUSH1 0x1 JUMPDEST DUP10 PUSH2 0xB37 JUMPI PUSH1 0x0 PUSH2 0xB3A JUMP JUMPDEST PUSH1 0x1 JUMPDEST PUSH1 0x40 MLOAD PUSH1 0x20 ADD PUSH2 0x84B SWAP6 SWAP5 SWAP4 SWAP3 SWAP2 SWAP1 PUSH2 0x2768 JUMP JUMPDEST PUSH1 0x1 PUSH1 0x1 PUSH1 0xA0 SHL SUB DUP8 DUP2 AND PUSH1 0x0 DUP2 DUP2 MSTORE PUSH1 0x2 PUSH1 0x20 SWAP1 DUP2 MSTORE PUSH1 0x40 DUP1 DUP4 KECCAK256 SWAP5 DUP12 AND DUP1 DUP5 MSTORE SWAP5 SWAP1 SWAP2 MSTORE SWAP1 DUP2 SWAP1 KECCAK256 DUP1 SLOAD PUSH1 0xFF NOT AND DUP10 ISZERO ISZERO OR SWAP1 SSTORE MLOAD SWAP3 SWAP4 POP SWAP1 SWAP2 PUSH32 0x17307EAB39AB6107E8899845AD3D59BD9653F200F220920489CA2B5937696C31 SWAP1 PUSH2 0xBB7 SWAP1 DUP9 SWAP1 PUSH2 0x2712 JUMP JUMPDEST PUSH1 0x40 MLOAD DUP1 SWAP2 SUB SWAP1 LOG3 DUP3 ISZERO PUSH2 0xBEF JUMPI PUSH2 0xBCD PUSH2 0x1C20 JUMP JUMPDEST DUP2 DUP1 PUSH1 0x20 ADD SWAP1 MLOAD DUP2 ADD SWAP1 PUSH2 0xBE1 SWAP2 SWAP1 PUSH2 0x236C JUMP JUMPDEST SWAP1 POP PUSH2 0xBED DUP8 DUP3 PUSH2 0x15CB JUMP JUMPDEST POP JUMPDEST POP POP POP POP POP POP JUMP JUMPDEST PUSH1 0x0 DUP1 DUP3 MLOAD GT PUSH2 0xC19 JUMPI PUSH1 0x40 MLOAD PUSH3 0x461BCD PUSH1 0xE5 SHL DUP2 MSTORE PUSH1 0x4 ADD PUSH2 0x138 SWAP1 PUSH2 0x2EA2 JUMP JUMPDEST PUSH1 0x1 PUSH1 0x1 PUSH1 0xA0 SHL SUB DUP6 AND PUSH2 0xC3F JUMPI PUSH1 0x40 MLOAD PUSH3 0x461BCD PUSH1 0xE5 SHL DUP2 MSTORE PUSH1 0x4 ADD PUSH2 0x138 SWAP1 PUSH2 0x2D96 JUMP JUMPDEST PUSH1 0x0 PUSH2 0xC4A DUP4 PUSH2 0x1924 JUMP JUMPDEST PUSH1 0xF8 SHR SWAP1 POP PUSH1 0x5 DUP2 LT PUSH2 0xC6F JUMPI PUSH1 0x40 MLOAD PUSH3 0x461BCD PUSH1 0xE5 SHL DUP2 MSTORE PUSH1 0x4 ADD PUSH2 0x138 SWAP1 PUSH2 0x2A74 JUMP JUMPDEST PUSH1 0x0 DUP2 PUSH1 0xFF AND PUSH1 0x5 DUP2 GT ISZERO PUSH2 0xC80 JUMPI INVALID JUMPDEST SWAP1 POP PUSH1 0x0 DUP1 DUP1 DUP1 DUP1 DUP6 PUSH1 0x5 DUP2 GT ISZERO PUSH2 0xC94 JUMPI INVALID JUMPDEST EQ ISZERO PUSH2 0xCB2 JUMPI PUSH1 0x40 MLOAD PUSH3 0x461BCD PUSH1 0xE5 SHL DUP2 MSTORE PUSH1 0x4 ADD PUSH2 0x138 SWAP1 PUSH2 0x2B7A JUMP JUMPDEST PUSH1 0x1 DUP6 PUSH1 0x5 DUP2 GT ISZERO PUSH2 0xCC0 JUMPI INVALID JUMPDEST EQ ISZERO PUSH2 0xD8A JUMPI DUP8 MLOAD PUSH1 0x61 EQ PUSH2 0xCE7 JUMPI PUSH1 0x40 MLOAD PUSH3 0x461BCD PUSH1 0xE5 SHL DUP2 MSTORE PUSH1 0x4 ADD PUSH2 0x138 SWAP1 PUSH2 0x2C98 JUMP JUMPDEST PUSH2 0xCF2 DUP9 PUSH1 0x0 PUSH2 0x1972 JUMP JUMPDEST SWAP3 POP PUSH2 0xCFF DUP9 PUSH1 0x20 PUSH2 0x1972 JUMP JUMPDEST SWAP2 POP DUP8 PUSH1 0x40 DUP2 MLOAD DUP2 LT PUSH2 0xD0E JUMPI INVALID JUMPDEST PUSH1 0x20 ADD ADD MLOAD PUSH1 0xF8 SHR PUSH1 0xF8 SHL PUSH1 0xF8 SHR SWAP4 POP PUSH1 0x1 DUP11 DUP6 DUP6 DUP6 PUSH1 0x40 MLOAD PUSH1 0x0 DUP2 MSTORE PUSH1 0x20 ADD PUSH1 0x40 MSTORE PUSH1 0x40 MLOAD PUSH2 0xD41 SWAP5 SWAP4 SWAP3 SWAP2 SWAP1 PUSH2 0x27B0 JUMP JUMPDEST PUSH1 0x20 PUSH1 0x40 MLOAD PUSH1 0x20 DUP2 SUB SWAP1 DUP1 DUP5 SUB SWAP1 DUP6 GAS STATICCALL ISZERO DUP1 ISZERO PUSH2 0xD63 JUMPI RETURNDATASIZE PUSH1 0x0 DUP1 RETURNDATACOPY RETURNDATASIZE PUSH1 0x0 REVERT JUMPDEST POP POP PUSH1 0x40 MLOAD PUSH1 0x1F NOT ADD MLOAD PUSH1 0x1 PUSH1 0x1 PUSH1 0xA0 SHL SUB DUP14 DUP2 AND SWAP2 AND EQ SWAP8 POP PUSH2 0xFBD SWAP7 POP POP POP POP POP POP POP JUMP JUMPDEST PUSH1 0x2 DUP6 PUSH1 0x5 DUP2 GT ISZERO PUSH2 0xD98 JUMPI INVALID JUMPDEST EQ ISZERO PUSH2 0xE3F JUMPI DUP8 MLOAD PUSH1 0x61 EQ PUSH2 0xDBF JUMPI PUSH1 0x40 MLOAD PUSH3 0x461BCD PUSH1 0xE5 SHL DUP2 MSTORE PUSH1 0x4 ADD PUSH2 0x138 SWAP1 PUSH2 0x2C98 JUMP JUMPDEST PUSH2 0xDCA DUP9 PUSH1 0x0 PUSH2 0x1972 JUMP JUMPDEST SWAP3 POP PUSH2 0xDD7 DUP9 PUSH1 0x20 PUSH2 0x1972 JUMP JUMPDEST SWAP2 POP DUP8 PUSH1 0x40 DUP2 MLOAD DUP2 LT PUSH2 0xDE6 JUMPI INVALID JUMPDEST PUSH1 0x20 ADD ADD MLOAD PUSH1 0xF8 SHR PUSH1 0xF8 SHL PUSH1 0xF8 SHR SWAP4 POP PUSH1 0x1 DUP11 PUSH1 0x40 MLOAD PUSH1 0x20 ADD PUSH2 0xE09 SWAP2 SWAP1 PUSH2 0x2596 JUMP JUMPDEST PUSH1 0x40 MLOAD PUSH1 0x20 DUP2 DUP4 SUB SUB DUP2 MSTORE SWAP1 PUSH1 0x40 MSTORE DUP1 MLOAD SWAP1 PUSH1 0x20 ADD KECCAK256 DUP6 DUP6 DUP6 PUSH1 0x40 MLOAD PUSH1 0x0 DUP2 MSTORE PUSH1 0x20 ADD PUSH1 0x40 MSTORE PUSH1 0x40 MLOAD PUSH2 0xD41 SWAP5 SWAP4 SWAP3 SWAP2 SWAP1 PUSH2 0x27B0 JUMP JUMPDEST PUSH1 0x3 DUP6 PUSH1 0x5 DUP2 GT ISZERO PUSH2 0xE4D JUMPI INVALID JUMPDEST EQ ISZERO PUSH2 0xEF2 JUMPI PUSH1 0x40 MLOAD PUSH4 0x20C13B0B PUSH1 0xE0 SHL DUP2 MSTORE PUSH1 0x1 PUSH1 0x1 PUSH1 0xA0 SHL SUB DUP13 AND SWAP1 PUSH4 0x20C13B0B SWAP1 PUSH2 0xE81 SWAP1 DUP13 SWAP1 DUP13 SWAP1 PUSH1 0x4 ADD PUSH2 0x27CE JUMP JUMPDEST PUSH1 0x20 PUSH1 0x40 MLOAD DUP1 DUP4 SUB DUP2 DUP7 DUP1 EXTCODESIZE ISZERO DUP1 ISZERO PUSH2 0xE99 JUMPI PUSH1 0x0 DUP1 REVERT JUMPDEST POP GAS STATICCALL ISZERO DUP1 ISZERO PUSH2 0xEAD JUMPI RETURNDATASIZE PUSH1 0x0 DUP1 RETURNDATACOPY RETURNDATASIZE PUSH1 0x0 REVERT JUMPDEST POP POP POP POP PUSH1 0x40 MLOAD RETURNDATASIZE PUSH1 0x1F NOT PUSH1 0x1F DUP3 ADD AND DUP3 ADD DUP1 PUSH1 0x40 MSTORE POP DUP2 ADD SWAP1 PUSH2 0xED1 SWAP2 SWAP1 PUSH2 0x22FA JUMP JUMPDEST PUSH1 0x1 PUSH1 0x1 PUSH1 0xE0 SHL SUB NOT AND PUSH4 0x20C13B0B PUSH1 0xE0 SHL EQ SWAP7 POP PUSH2 0xFBD SWAP6 POP POP POP POP POP POP JUMP JUMPDEST PUSH1 0x4 DUP6 PUSH1 0x5 DUP2 GT ISZERO PUSH2 0xF00 JUMPI INVALID JUMPDEST EQ ISZERO PUSH2 0xFA5 JUMPI PUSH1 0x40 MLOAD PUSH4 0xB135D3F PUSH1 0xE1 SHL DUP2 MSTORE PUSH1 0x1 PUSH1 0x1 PUSH1 0xA0 SHL SUB DUP13 AND SWAP1 PUSH4 0x1626BA7E SWAP1 PUSH2 0xF34 SWAP1 DUP14 SWAP1 DUP13 SWAP1 PUSH1 0x4 ADD PUSH2 0x2797 JUMP JUMPDEST PUSH1 0x20 PUSH1 0x40 MLOAD DUP1 DUP4 SUB DUP2 DUP7 DUP1 EXTCODESIZE ISZERO DUP1 ISZERO PUSH2 0xF4C JUMPI PUSH1 0x0 DUP1 REVERT JUMPDEST POP GAS STATICCALL ISZERO DUP1 ISZERO PUSH2 0xF60 JUMPI RETURNDATASIZE PUSH1 0x0 DUP1 RETURNDATACOPY RETURNDATASIZE PUSH1 0x0 REVERT JUMPDEST POP POP POP POP PUSH1 0x40 MLOAD RETURNDATASIZE PUSH1 0x1F NOT PUSH1 0x1F DUP3 ADD AND DUP3 ADD DUP1 PUSH1 0x40 MSTORE POP DUP2 ADD SWAP1 PUSH2 0xF84 SWAP2 SWAP1 PUSH2 0x22FA JUMP JUMPDEST PUSH1 0x1 PUSH1 0x1 PUSH1 0xE0 SHL SUB NOT AND PUSH4 0xB135D3F PUSH1 0xE1 SHL EQ SWAP7 POP PUSH2 0xFBD SWAP6 POP POP POP POP POP POP JUMP JUMPDEST PUSH1 0x40 MLOAD PUSH3 0x461BCD PUSH1 0xE5 SHL DUP2 MSTORE PUSH1 0x4 ADD PUSH2 0x138 SWAP1 PUSH2 0x2A74 JUMP JUMPDEST SWAP5 SWAP4 POP POP POP POP JUMP JUMPDEST PUSH1 0x0 PUSH1 0x1 PUSH1 0x1 PUSH1 0xE0 SHL SUB NOT DUP3 AND PUSH4 0x3A24D07 PUSH1 0xE2 SHL EQ ISZERO PUSH2 0xFE8 JUMPI POP PUSH1 0x1 PUSH2 0x33B JUMP JUMPDEST PUSH2 0x338 DUP3 PUSH2 0x19A1 JUMP JUMPDEST PUSH1 0x60 DUP2 PUSH2 0x1016 JUMPI POP PUSH1 0x40 DUP1 MLOAD DUP1 DUP3 ADD SWAP1 SWAP2 MSTORE PUSH1 0x1 DUP2 MSTORE PUSH1 0x3 PUSH1 0xFC SHL PUSH1 0x20 DUP3 ADD MSTORE PUSH2 0x33B JUMP JUMPDEST DUP2 DUP1 PUSH1 0x0 JUMPDEST DUP3 ISZERO PUSH2 0x102F JUMPI PUSH1 0x1 ADD PUSH1 0xA DUP4 DIV SWAP3 POP PUSH2 0x101B JUMP JUMPDEST PUSH1 0x60 DUP2 PUSH1 0x1 PUSH1 0x1 PUSH1 0x40 SHL SUB DUP2 GT DUP1 ISZERO PUSH2 0x1047 JUMPI PUSH1 0x0 DUP1 REVERT JUMPDEST POP PUSH1 0x40 MLOAD SWAP1 DUP1 DUP3 MSTORE DUP1 PUSH1 0x1F ADD PUSH1 0x1F NOT AND PUSH1 0x20 ADD DUP3 ADD PUSH1 0x40 MSTORE DUP1 ISZERO PUSH2 0x1072 JUMPI PUSH1 0x20 DUP3 ADD DUP2 DUP1 CALLDATASIZE DUP4 CALLDATACOPY ADD SWAP1 POP JUMPDEST POP SWAP1 POP PUSH1 0x0 NOT DUP3 ADD JUMPDEST DUP4 ISZERO PUSH2 0x10C0 JUMPI PUSH1 0xA DUP5 MOD PUSH1 0x30 ADD PUSH1 0xF8 SHL DUP3 DUP3 DUP1 PUSH1 0x1 SWAP1 SUB SWAP4 POP DUP2 MLOAD DUP2 LT PUSH2 0x109E JUMPI INVALID JUMPDEST PUSH1 0x20 ADD ADD SWAP1 PUSH1 0x1 PUSH1 0x1 PUSH1 0xF8 SHL SUB NOT AND SWAP1 DUP2 PUSH1 0x0 BYTE SWAP1 MSTORE8 POP PUSH1 0xA DUP5 DIV SWAP4 POP PUSH2 0x107B JUMP JUMPDEST POP SWAP6 SWAP5 POP POP POP POP POP JUMP JUMPDEST DUP2 MLOAD DUP2 MLOAD DUP2 EQ PUSH2 0x10EC JUMPI PUSH1 0x40 MLOAD PUSH3 0x461BCD PUSH1 0xE5 SHL DUP2 MSTORE PUSH1 0x4 ADD PUSH2 0x138 SWAP1 PUSH2 0x2BBE JUMP JUMPDEST DUP4 PUSH1 0x1 PUSH1 0x1 PUSH1 0xA0 SHL SUB AND DUP6 PUSH1 0x1 PUSH1 0x1 PUSH1 0xA0 SHL SUB AND EQ ISZERO DUP1 ISZERO PUSH2 0x110E JUMPI POP PUSH1 0x0 DUP2 GT JUMPDEST ISZERO PUSH2 0x12D3 JUMPI PUSH1 0x0 DUP1 PUSH2 0x1126 DUP6 PUSH1 0x0 DUP2 MLOAD DUP2 LT PUSH2 0x4DD JUMPI INVALID JUMPDEST SWAP2 POP SWAP2 POP PUSH1 0x0 PUSH2 0x1183 PUSH1 0x1 PUSH1 0x0 DUP11 PUSH1 0x1 PUSH1 0x1 PUSH1 0xA0 SHL SUB AND PUSH1 0x1 PUSH1 0x1 PUSH1 0xA0 SHL SUB AND DUP2 MSTORE PUSH1 0x20 ADD SWAP1 DUP2 MSTORE PUSH1 0x20 ADD PUSH1 0x0 KECCAK256 PUSH1 0x0 DUP6 DUP2 MSTORE PUSH1 0x20 ADD SWAP1 DUP2 MSTORE PUSH1 0x20 ADD PUSH1 0x0 KECCAK256 SLOAD DUP4 DUP8 PUSH1 0x0 DUP2 MLOAD DUP2 LT PUSH2 0x1174 JUMPI INVALID JUMPDEST PUSH1 0x20 MUL PUSH1 0x20 ADD ADD MLOAD PUSH1 0x1 PUSH2 0x19CD JUMP JUMPDEST SWAP1 POP PUSH1 0x0 PUSH2 0x11DE PUSH1 0x1 PUSH1 0x0 DUP11 PUSH1 0x1 PUSH1 0x1 PUSH1 0xA0 SHL SUB AND PUSH1 0x1 PUSH1 0x1 PUSH1 0xA0 SHL SUB AND DUP2 MSTORE PUSH1 0x20 ADD SWAP1 DUP2 MSTORE PUSH1 0x20 ADD PUSH1 0x0 KECCAK256 PUSH1 0x0 DUP7 DUP2 MSTORE PUSH1 0x20 ADD SWAP1 DUP2 MSTORE PUSH1 0x20 ADD PUSH1 0x0 KECCAK256 SLOAD DUP5 DUP9 PUSH1 0x0 DUP2 MLOAD DUP2 LT PUSH2 0x11CF JUMPI INVALID JUMPDEST PUSH1 0x20 MUL PUSH1 0x20 ADD ADD MLOAD PUSH1 0x0 PUSH2 0x19CD JUMP JUMPDEST SWAP1 POP DUP4 PUSH1 0x1 JUMPDEST DUP7 DUP2 LT ISZERO PUSH2 0x128D JUMPI PUSH2 0x11FB DUP10 DUP3 DUP2 MLOAD DUP2 LT PUSH2 0x4DD JUMPI INVALID JUMPDEST SWAP1 SWAP7 POP SWAP5 POP DUP2 DUP7 EQ PUSH2 0x125F JUMPI PUSH1 0x1 PUSH1 0x1 PUSH1 0xA0 SHL SUB DUP12 DUP2 AND PUSH1 0x0 SWAP1 DUP2 MSTORE PUSH1 0x1 PUSH1 0x20 DUP2 DUP2 MSTORE PUSH1 0x40 DUP1 DUP5 KECCAK256 DUP8 DUP6 MSTORE DUP1 DUP4 MSTORE DUP2 DUP6 KECCAK256 SWAP10 SWAP1 SWAP10 SSTORE SWAP4 DUP15 AND DUP4 MSTORE SWAP1 DUP2 MSTORE DUP3 DUP3 KECCAK256 SWAP5 DUP3 MSTORE DUP5 DUP2 MSTORE DUP3 DUP3 KECCAK256 SWAP6 SWAP1 SWAP6 SSTORE DUP8 DUP2 MSTORE SWAP5 DUP5 MSTORE DUP1 DUP6 KECCAK256 SLOAD SWAP3 SWAP1 SWAP4 MSTORE SWAP2 SWAP1 SWAP3 KECCAK256 SLOAD SWAP1 DUP5 SWAP1 JUMPDEST PUSH2 0x1270 DUP5 DUP7 DUP11 DUP5 DUP2 MLOAD DUP2 LT PUSH2 0x1174 JUMPI INVALID JUMPDEST SWAP4 POP PUSH2 0x1283 DUP4 DUP7 DUP11 DUP5 DUP2 MLOAD DUP2 LT PUSH2 0x11CF JUMPI INVALID JUMPDEST SWAP3 POP PUSH1 0x1 ADD PUSH2 0x11E4 JUMP JUMPDEST POP POP PUSH1 0x1 PUSH1 0x1 PUSH1 0xA0 SHL SUB DUP1 DUP11 AND PUSH1 0x0 SWAP1 DUP2 MSTORE PUSH1 0x1 PUSH1 0x20 DUP2 DUP2 MSTORE PUSH1 0x40 DUP1 DUP5 KECCAK256 DUP10 DUP6 MSTORE DUP3 MSTORE DUP1 DUP5 KECCAK256 SWAP7 SWAP1 SWAP7 SSTORE SWAP3 DUP12 AND DUP3 MSTORE DUP3 MSTORE DUP4 DUP2 KECCAK256 SWAP6 DUP2 MSTORE SWAP5 SWAP1 MSTORE SWAP3 KECCAK256 SWAP2 SWAP1 SWAP2 SSTORE POP PUSH2 0x1337 JUMP JUMPDEST PUSH1 0x0 JUMPDEST DUP2 DUP2 LT ISZERO PUSH2 0x1335 JUMPI DUP3 DUP2 DUP2 MLOAD DUP2 LT PUSH2 0x12EA JUMPI INVALID JUMPDEST PUSH1 0x20 MUL PUSH1 0x20 ADD ADD MLOAD PUSH2 0x130F DUP8 DUP7 DUP5 DUP2 MLOAD DUP2 LT PUSH2 0x1302 JUMPI INVALID JUMPDEST PUSH1 0x20 MUL PUSH1 0x20 ADD ADD MLOAD PUSH2 0x2E3 JUMP JUMPDEST LT ISZERO PUSH2 0x132D JUMPI PUSH1 0x40 MLOAD PUSH3 0x461BCD PUSH1 0xE5 SHL DUP2 MSTORE PUSH1 0x4 ADD PUSH2 0x138 SWAP1 PUSH2 0x2D40 JUMP JUMPDEST PUSH1 0x1 ADD PUSH2 0x12D6 JUMP JUMPDEST POP JUMPDEST DUP4 PUSH1 0x1 PUSH1 0x1 PUSH1 0xA0 SHL SUB AND DUP6 PUSH1 0x1 PUSH1 0x1 PUSH1 0xA0 SHL SUB AND CALLER PUSH1 0x1 PUSH1 0x1 PUSH1 0xA0 SHL SUB AND PUSH32 0x4A39DC06D4C0DBC64B70AF90FD698A233A518AA5D07E595D983B8C0526C8F7FB DUP7 DUP7 PUSH1 0x40 MLOAD PUSH2 0x1386 SWAP3 SWAP2 SWAP1 PUSH2 0x26ED JUMP JUMPDEST PUSH1 0x40 MLOAD DUP1 SWAP2 SUB SWAP1 LOG4 POP POP POP POP POP JUMP JUMPDEST PUSH2 0x13A7 DUP6 PUSH1 0x1 PUSH1 0x1 PUSH1 0xA0 SHL SUB AND PUSH2 0x1AC3 JUMP JUMPDEST ISZERO PUSH2 0xBEF JUMPI PUSH1 0x0 DUP6 PUSH1 0x1 PUSH1 0x1 PUSH1 0xA0 SHL SUB AND PUSH4 0xBC197C81 DUP5 CALLER DUP11 DUP10 DUP10 DUP9 PUSH1 0x40 MLOAD DUP8 PUSH4 0xFFFFFFFF AND PUSH1 0xE0 SHL DUP2 MSTORE PUSH1 0x4 ADD PUSH2 0x13E3 SWAP6 SWAP5 SWAP4 SWAP3 SWAP2 SWAP1 PUSH2 0x25DB JUMP JUMPDEST PUSH1 0x20 PUSH1 0x40 MLOAD DUP1 DUP4 SUB DUP2 PUSH1 0x0 DUP9 DUP1 EXTCODESIZE ISZERO DUP1 ISZERO PUSH2 0x13FD JUMPI PUSH1 0x0 DUP1 REVERT JUMPDEST POP DUP8 CALL ISZERO DUP1 ISZERO PUSH2 0x1411 JUMPI RETURNDATASIZE PUSH1 0x0 DUP1 RETURNDATACOPY RETURNDATASIZE PUSH1 0x0 REVERT JUMPDEST POP POP POP POP POP PUSH1 0x40 MLOAD RETURNDATASIZE PUSH1 0x1F NOT PUSH1 0x1F DUP3 ADD AND DUP3 ADD DUP1 PUSH1 0x40 MSTORE POP DUP2 ADD SWAP1 PUSH2 0x1436 SWAP2 SWAP1 PUSH2 0x22FA JUMP JUMPDEST SWAP1 POP PUSH1 0x1 PUSH1 0x1 PUSH1 0xE0 SHL SUB NOT DUP2 AND PUSH4 0xBC197C81 PUSH1 0xE0 SHL EQ PUSH2 0xBED JUMPI PUSH1 0x40 MLOAD PUSH3 0x461BCD PUSH1 0xE5 SHL DUP2 MSTORE PUSH1 0x4 ADD PUSH2 0x138 SWAP1 PUSH2 0x2C26 JUMP JUMPDEST PUSH1 0x60 DUP1 DUP4 DUP1 PUSH1 0x20 ADD SWAP1 MLOAD DUP2 ADD SWAP1 PUSH2 0x147F SWAP2 SWAP1 PUSH2 0x2316 JUMP JUMPDEST PUSH1 0x1 PUSH1 0x1 PUSH1 0xA0 SHL SUB DUP8 AND PUSH1 0x0 SWAP1 DUP2 MSTORE PUSH1 0x3 PUSH1 0x20 MSTORE PUSH1 0x40 DUP2 KECCAK256 SLOAD SWAP2 SWAP5 POP SWAP2 SWAP3 POP SWAP1 PUSH2 0x14AA DUP4 PUSH1 0x41 PUSH2 0x1972 JUMP JUMPDEST SWAP1 POP DUP2 DUP2 LT DUP1 ISZERO SWAP1 PUSH2 0x14BE JUMPI POP DUP2 PUSH1 0x64 ADD DUP2 LT JUMPDEST PUSH2 0x14DA JUMPI PUSH1 0x40 MLOAD PUSH3 0x461BCD PUSH1 0xE5 SHL DUP2 MSTORE PUSH1 0x4 ADD PUSH2 0x138 SWAP1 PUSH2 0x297A JUMP JUMPDEST PUSH1 0x0 PUSH2 0x1516 DUP7 DUP4 DUP8 DUP1 MLOAD SWAP1 PUSH1 0x20 ADD KECCAK256 PUSH1 0x40 MLOAD PUSH1 0x20 ADD PUSH2 0x14FB SWAP4 SWAP3 SWAP2 SWAP1 PUSH2 0x24A7 JUMP JUMPDEST PUSH1 0x40 MLOAD PUSH1 0x20 DUP2 DUP4 SUB SUB DUP2 MSTORE SWAP1 PUSH1 0x40 MSTORE DUP1 MLOAD SWAP1 PUSH1 0x20 ADD KECCAK256 PUSH2 0x1AFD JUMP JUMPDEST SWAP1 POP PUSH1 0x60 DUP7 DUP4 DUP8 PUSH1 0x40 MLOAD PUSH1 0x20 ADD PUSH2 0x152F SWAP4 SWAP3 SWAP2 SWAP1 PUSH2 0x24CE JUMP JUMPDEST PUSH1 0x40 DUP1 MLOAD PUSH1 0x1F NOT DUP2 DUP5 SUB ADD DUP2 MSTORE DUP3 DUP3 MSTORE PUSH1 0x1 PUSH1 0x1 PUSH1 0xA0 SHL SUB DUP13 AND PUSH1 0x0 DUP2 DUP2 MSTORE PUSH1 0x3 PUSH1 0x20 MSTORE SWAP3 SWAP1 SWAP3 KECCAK256 PUSH1 0x1 DUP8 ADD SWAP1 DUP2 SWAP1 SSTORE SWAP1 SWAP4 POP SWAP1 SWAP2 PUSH32 0xB861B7BDBE611A846AB271B8D2810391BC8B5A968F390C322438ECAB66BCCF59 SWAP2 PUSH2 0x158F SWAP2 PUSH2 0x31D2 JUMP JUMPDEST PUSH1 0x40 MLOAD DUP1 SWAP2 SUB SWAP1 LOG2 PUSH2 0x15A3 DUP10 DUP4 DUP4 DUP9 PUSH2 0xBF7 JUMP JUMPDEST PUSH2 0x15BF JUMPI PUSH1 0x40 MLOAD PUSH3 0x461BCD PUSH1 0xE5 SHL DUP2 MSTORE PUSH1 0x4 ADD PUSH2 0x138 SWAP1 PUSH2 0x2ABF JUMP JUMPDEST POP POP POP POP POP SWAP4 SWAP3 POP POP POP JUMP JUMPDEST PUSH1 0x0 PUSH2 0x15DA DUP3 PUSH1 0x60 ADD MLOAD PUSH2 0x1924 JUMP JUMPDEST PUSH1 0xF8 SHR SWAP1 POP PUSH1 0x2 DUP2 LT PUSH2 0x15FF JUMPI PUSH1 0x40 MLOAD PUSH3 0x461BCD PUSH1 0xE5 SHL DUP2 MSTORE PUSH1 0x4 ADD PUSH2 0x138 SWAP1 PUSH2 0x3007 JUMP JUMPDEST PUSH1 0x0 DUP2 PUSH1 0xFF AND PUSH1 0x2 DUP2 GT ISZERO PUSH2 0x1610 JUMPI INVALID JUMPDEST DUP4 MLOAD PUSH1 0x40 DUP6 ADD MLOAD SWAP2 SWAP3 POP PUSH1 0x0 SWAP2 DUP3 SWAP2 DUP3 SWAP2 PUSH1 0x1 PUSH1 0x1 PUSH1 0xA0 SHL SUB AND ISZERO PUSH2 0x1639 JUMPI DUP7 PUSH1 0x40 ADD MLOAD PUSH2 0x163B JUMP JUMPDEST CALLER JUMPDEST SWAP3 POP PUSH1 0x0 DUP6 PUSH1 0x2 DUP2 GT ISZERO PUSH2 0x164B JUMPI INVALID JUMPDEST EQ ISZERO PUSH2 0x1717 JUMPI DUP7 PUSH1 0x60 ADD MLOAD DUP1 PUSH1 0x20 ADD SWAP1 MLOAD DUP2 ADD SWAP1 PUSH2 0x1669 SWAP2 SWAP1 PUSH2 0x1E19 JUMP JUMPDEST SWAP1 SWAP5 POP SWAP2 POP PUSH1 0x1 PUSH1 0x1 PUSH1 0xA0 SHL SUB DUP5 AND ADDRESS EQ ISZERO PUSH2 0x16AD JUMPI PUSH2 0x168B DUP9 DUP5 DUP5 DUP5 PUSH2 0x17DA JUMP JUMPDEST PUSH2 0x16A8 DUP9 DUP5 DUP5 GAS DUP6 PUSH1 0x40 MLOAD DUP1 PUSH1 0x20 ADD PUSH1 0x40 MSTORE DUP1 PUSH1 0x0 DUP2 MSTORE POP PUSH2 0x1851 JUMP JUMPDEST PUSH2 0x1712 JUMP JUMPDEST PUSH1 0x40 MLOAD PUSH4 0x79212195 PUSH1 0xE1 SHL DUP2 MSTORE PUSH1 0x1 PUSH1 0x1 PUSH1 0xA0 SHL SUB DUP6 AND SWAP1 PUSH4 0xF242432A SWAP1 PUSH2 0x16DF SWAP1 DUP12 SWAP1 DUP8 SWAP1 DUP8 SWAP1 DUP8 SWAP1 PUSH1 0x4 ADD PUSH2 0x26A2 JUMP JUMPDEST PUSH1 0x0 PUSH1 0x40 MLOAD DUP1 DUP4 SUB DUP2 PUSH1 0x0 DUP8 DUP1 EXTCODESIZE ISZERO DUP1 ISZERO PUSH2 0x16F9 JUMPI PUSH1 0x0 DUP1 REVERT JUMPDEST POP GAS CALL ISZERO DUP1 ISZERO PUSH2 0x170D JUMPI RETURNDATASIZE PUSH1 0x0 DUP1 RETURNDATACOPY RETURNDATASIZE PUSH1 0x0 REVERT JUMPDEST POP POP POP POP JUMPDEST PUSH2 0x17D0 JUMP JUMPDEST DUP7 PUSH1 0x60 ADD MLOAD DUP1 PUSH1 0x20 ADD SWAP1 MLOAD DUP2 ADD SWAP1 PUSH2 0x172F SWAP2 SWAP1 PUSH2 0x1DFD JUMP JUMPDEST PUSH1 0x40 MLOAD PUSH4 0x23B872DD PUSH1 0xE0 SHL DUP2 MSTORE SWAP1 SWAP5 POP PUSH1 0x1 PUSH1 0x1 PUSH1 0xA0 SHL SUB DUP6 AND SWAP1 PUSH4 0x23B872DD SWAP1 PUSH2 0x1762 SWAP1 DUP12 SWAP1 DUP8 SWAP1 DUP7 SWAP1 PUSH1 0x4 ADD PUSH2 0x267E JUMP JUMPDEST PUSH1 0x20 PUSH1 0x40 MLOAD DUP1 DUP4 SUB DUP2 PUSH1 0x0 DUP8 DUP1 EXTCODESIZE ISZERO DUP1 ISZERO PUSH2 0x177C JUMPI PUSH1 0x0 DUP1 REVERT JUMPDEST POP GAS CALL ISZERO DUP1 ISZERO PUSH2 0x1790 JUMPI RETURNDATASIZE PUSH1 0x0 DUP1 RETURNDATACOPY RETURNDATASIZE PUSH1 0x0 REVERT JUMPDEST POP POP POP POP PUSH1 0x40 MLOAD RETURNDATASIZE PUSH1 0x1F NOT PUSH1 0x1F DUP3 ADD AND DUP3 ADD DUP1 PUSH1 0x40 MSTORE POP DUP2 ADD SWAP1 PUSH2 0x17B4 SWAP2 SWAP1 PUSH2 0x22C2 JUMP JUMPDEST PUSH2 0x17D0 JUMPI PUSH1 0x40 MLOAD PUSH3 0x461BCD PUSH1 0xE5 SHL DUP2 MSTORE PUSH1 0x4 ADD PUSH2 0x138 SWAP1 PUSH2 0x28C0 JUMP JUMPDEST POP POP POP POP POP POP POP POP JUMP JUMPDEST PUSH2 0x17E7 DUP5 DUP4 DUP4 PUSH1 0x1 PUSH2 0x1B96 JUMP JUMPDEST PUSH2 0x17F4 DUP4 DUP4 DUP4 PUSH1 0x0 PUSH2 0x1B96 JUMP JUMPDEST DUP3 PUSH1 0x1 PUSH1 0x1 PUSH1 0xA0 SHL SUB AND DUP5 PUSH1 0x1 PUSH1 0x1 PUSH1 0xA0 SHL SUB AND CALLER PUSH1 0x1 PUSH1 0x1 PUSH1 0xA0 SHL SUB AND PUSH32 0xC3D58168C5AE7397731D063D5BBF3D657854427343F4C083240F7AACAA2D0F62 DUP6 DUP6 PUSH1 0x40 MLOAD PUSH2 0x1843 SWAP3 SWAP2 SWAP1 PUSH2 0x31DB JUMP JUMPDEST PUSH1 0x40 MLOAD DUP1 SWAP2 SUB SWAP1 LOG4 POP POP POP POP JUMP JUMPDEST PUSH2 0x1863 DUP6 PUSH1 0x1 PUSH1 0x1 PUSH1 0xA0 SHL SUB AND PUSH2 0x1AC3 JUMP JUMPDEST ISZERO PUSH2 0xBEF JUMPI PUSH1 0x0 DUP6 PUSH1 0x1 PUSH1 0x1 PUSH1 0xA0 SHL SUB AND PUSH4 0xF23A6E61 DUP5 CALLER DUP11 DUP10 DUP10 DUP9 PUSH1 0x40 MLOAD DUP8 PUSH4 0xFFFFFFFF AND PUSH1 0xE0 SHL DUP2 MSTORE PUSH1 0x4 ADD PUSH2 0x189F SWAP6 SWAP5 SWAP4 SWAP3 SWAP2 SWAP1 PUSH2 0x2639 JUMP JUMPDEST PUSH1 0x20 PUSH1 0x40 MLOAD DUP1 DUP4 SUB DUP2 PUSH1 0x0 DUP9 DUP1 EXTCODESIZE ISZERO DUP1 ISZERO PUSH2 0x18B9 JUMPI PUSH1 0x0 DUP1 REVERT JUMPDEST POP DUP8 CALL ISZERO DUP1 ISZERO PUSH2 0x18CD JUMPI RETURNDATASIZE PUSH1 0x0 DUP1 RETURNDATACOPY RETURNDATASIZE PUSH1 0x0 REVERT JUMPDEST POP POP POP POP POP PUSH1 0x40 MLOAD RETURNDATASIZE PUSH1 0x1F NOT PUSH1 0x1F DUP3 ADD AND DUP3 ADD DUP1 PUSH1 0x40 MSTORE POP DUP2 ADD SWAP1 PUSH2 0x18F2 SWAP2 SWAP1 PUSH2 0x22FA JUMP JUMPDEST SWAP1 POP PUSH1 0x1 PUSH1 0x1 PUSH1 0xE0 SHL SUB NOT DUP2 AND PUSH4 0xF23A6E61 PUSH1 0xE0 SHL EQ PUSH2 0xBED JUMPI PUSH1 0x40 MLOAD PUSH3 0x461BCD PUSH1 0xE5 SHL DUP2 MSTORE PUSH1 0x4 ADD PUSH2 0x138 SWAP1 PUSH2 0x2E35 JUMP JUMPDEST PUSH1 0x0 DUP1 DUP3 MLOAD GT PUSH2 0x1946 JUMPI PUSH1 0x40 MLOAD PUSH3 0x461BCD PUSH1 0xE5 SHL DUP2 MSTORE PUSH1 0x4 ADD PUSH2 0x138 SWAP1 PUSH2 0x291D JUMP JUMPDEST DUP2 PUSH1 0x1 DUP4 MLOAD SUB DUP2 MLOAD DUP2 LT PUSH2 0x1956 JUMPI INVALID JUMPDEST ADD PUSH1 0x20 ADD MLOAD DUP3 MLOAD PUSH1 0x0 NOT ADD SWAP1 SWAP3 MSTORE POP PUSH1 0x1 PUSH1 0x1 PUSH1 0xF8 SHL SUB NOT AND SWAP1 JUMP JUMPDEST PUSH1 0x0 DUP2 PUSH1 0x20 ADD DUP4 MLOAD LT ISZERO PUSH2 0x1998 JUMPI PUSH1 0x40 MLOAD PUSH3 0x461BCD PUSH1 0xE5 SHL DUP2 MSTORE PUSH1 0x4 ADD PUSH2 0x138 SWAP1 PUSH2 0x3064 JUMP JUMPDEST POP ADD PUSH1 0x20 ADD MLOAD SWAP1 JUMP JUMPDEST PUSH1 0x0 PUSH1 0x1 PUSH1 0x1 PUSH1 0xE0 SHL SUB NOT DUP3 AND PUSH4 0x6CDB3D13 PUSH1 0xE1 SHL EQ ISZERO PUSH2 0x19C4 JUMPI POP PUSH1 0x1 PUSH2 0x33B JUMP JUMPDEST PUSH2 0x338 DUP3 PUSH2 0x1C07 JUMP JUMPDEST PUSH1 0x0 PUSH1 0x20 DUP5 MUL PUSH4 0xFFFFFFFF DUP3 DUP5 PUSH1 0x1 DUP2 GT ISZERO PUSH2 0x19E5 JUMPI INVALID JUMPDEST EQ ISZERO PUSH2 0x1A41 JUMPI DUP5 DUP3 SHL DUP8 ADD SWAP3 POP DUP7 DUP4 LT ISZERO PUSH2 0x1A12 JUMPI PUSH1 0x40 MLOAD PUSH3 0x461BCD PUSH1 0xE5 SHL DUP2 MSTORE PUSH1 0x4 ADD PUSH2 0x138 SWAP1 PUSH2 0x3180 JUMP JUMPDEST PUSH5 0x100000000 DUP8 DUP4 SHR DUP3 AND DUP7 ADD LT PUSH2 0x1A3C JUMPI PUSH1 0x40 MLOAD PUSH3 0x461BCD PUSH1 0xE5 SHL DUP2 MSTORE PUSH1 0x4 ADD PUSH2 0x138 SWAP1 PUSH2 0x3180 JUMP JUMPDEST PUSH2 0x1AB9 JUMP JUMPDEST PUSH1 0x1 DUP5 PUSH1 0x1 DUP2 GT ISZERO PUSH2 0x1A4F JUMPI INVALID JUMPDEST EQ ISZERO PUSH2 0x1AA1 JUMPI DUP5 DUP3 SHL DUP8 SUB SWAP3 POP DUP7 DUP4 GT ISZERO PUSH2 0x1A7C JUMPI PUSH1 0x40 MLOAD PUSH3 0x461BCD PUSH1 0xE5 SHL DUP2 MSTORE PUSH1 0x4 ADD PUSH2 0x138 SWAP1 PUSH2 0x29D7 JUMP JUMPDEST DUP5 DUP2 DUP4 DUP10 SWAP1 SHR AND LT ISZERO PUSH2 0x1A3C JUMPI PUSH1 0x40 MLOAD PUSH3 0x461BCD PUSH1 0xE5 SHL DUP2 MSTORE PUSH1 0x4 ADD PUSH2 0x138 SWAP1 PUSH2 0x29D7 JUMP JUMPDEST PUSH1 0x40 MLOAD PUSH3 0x461BCD PUSH1 0xE5 SHL DUP2 MSTORE PUSH1 0x4 ADD PUSH2 0x138 SWAP1 PUSH2 0x3115 JUMP JUMPDEST POP POP SWAP5 SWAP4 POP POP POP POP JUMP JUMPDEST PUSH1 0x0 DUP2 EXTCODEHASH DUP1 ISZERO DUP1 ISZERO SWAP1 PUSH2 0x1AF6 JUMPI POP PUSH32 0xC5D2460186F7233C927E7DB2DCC703C0E500B653CA82273B7BFAD8045D85A470 DUP2 EQ ISZERO JUMPDEST SWAP4 SWAP3 POP POP POP JUMP JUMPDEST PUSH1 0x0 PUSH1 0x40 MLOAD DUP1 PUSH1 0x40 ADD PUSH1 0x40 MSTORE DUP1 PUSH1 0x2 DUP2 MSTORE PUSH1 0x20 ADD PUSH2 0x1901 PUSH1 0xF0 SHL DUP2 MSTORE POP PUSH32 0x35AFF83D86937D35B32E04F0DDC6FF469290EEF2F1B692D8A815C89404D4749 PUSH1 0x0 SHL ADDRESS PUSH1 0x40 MLOAD PUSH1 0x20 ADD PUSH2 0x1B50 SWAP3 SWAP2 SWAP1 PUSH2 0x271D JUMP JUMPDEST PUSH1 0x40 MLOAD PUSH1 0x20 DUP2 DUP4 SUB SUB DUP2 MSTORE SWAP1 PUSH1 0x40 MSTORE DUP1 MLOAD SWAP1 PUSH1 0x20 ADD KECCAK256 DUP4 PUSH1 0x40 MLOAD PUSH1 0x20 ADD PUSH2 0x1B79 SWAP4 SWAP3 SWAP2 SWAP1 PUSH2 0x24A7 JUMP JUMPDEST PUSH1 0x40 MLOAD PUSH1 0x20 DUP2 DUP4 SUB SUB DUP2 MSTORE SWAP1 PUSH1 0x40 MSTORE DUP1 MLOAD SWAP1 PUSH1 0x20 ADD KECCAK256 SWAP1 POP SWAP2 SWAP1 POP JUMP JUMPDEST PUSH1 0x0 DUP1 PUSH2 0x1BA2 DUP6 PUSH2 0x981 JUMP JUMPDEST PUSH1 0x1 PUSH1 0x1 PUSH1 0xA0 SHL SUB DUP9 AND PUSH1 0x0 SWAP1 DUP2 MSTORE PUSH1 0x1 PUSH1 0x20 SWAP1 DUP2 MSTORE PUSH1 0x40 DUP1 DUP4 KECCAK256 DUP6 DUP5 MSTORE SWAP1 SWAP2 MSTORE SWAP1 KECCAK256 SLOAD SWAP2 SWAP4 POP SWAP2 POP PUSH2 0x1BD7 SWAP1 DUP3 DUP7 DUP7 PUSH2 0x19CD JUMP JUMPDEST PUSH1 0x1 PUSH1 0x1 PUSH1 0xA0 SHL SUB SWAP1 SWAP7 AND PUSH1 0x0 SWAP1 DUP2 MSTORE PUSH1 0x1 PUSH1 0x20 SWAP1 DUP2 MSTORE PUSH1 0x40 DUP1 DUP4 KECCAK256 SWAP5 DUP4 MSTORE SWAP4 SWAP1 MSTORE SWAP2 SWAP1 SWAP2 KECCAK256 SWAP5 SWAP1 SWAP5 SSTORE POP POP POP POP JUMP JUMPDEST PUSH1 0x1 PUSH1 0x1 PUSH1 0xE0 SHL SUB NOT DUP2 AND PUSH4 0x1FFC9A7 PUSH1 0xE0 SHL EQ SWAP2 SWAP1 POP JUMP JUMPDEST PUSH1 0x40 MLOAD DUP1 PUSH1 0x80 ADD PUSH1 0x40 MSTORE DUP1 PUSH1 0x0 DUP2 MSTORE PUSH1 0x20 ADD PUSH1 0x0 DUP2 MSTORE PUSH1 0x20 ADD PUSH1 0x0 PUSH1 0x1 PUSH1 0x1 PUSH1 0xA0 SHL SUB AND DUP2 MSTORE PUSH1 0x20 ADD PUSH1 0x60 DUP2 MSTORE POP SWAP1 JUMP JUMPDEST PUSH1 0x0 DUP3 PUSH1 0x1F DUP4 ADD SLT PUSH2 0x1C61 JUMPI DUP1 DUP2 REVERT JUMPDEST DUP2 CALLDATALOAD PUSH2 0x1C74 PUSH2 0x1C6F DUP3 PUSH2 0x320C JUMP JUMPDEST PUSH2 0x31E9 JUMP JUMPDEST DUP2 DUP2 MSTORE SWAP2 POP PUSH1 0x20 DUP1 DUP4 ADD SWAP1 DUP5 DUP2 ADD DUP2 DUP5 MUL DUP7 ADD DUP3 ADD DUP8 LT ISZERO PUSH2 0x1C95 JUMPI PUSH1 0x0 DUP1 REVERT JUMPDEST PUSH1 0x0 JUMPDEST DUP5 DUP2 LT ISZERO PUSH2 0x1CB4 JUMPI DUP2 CALLDATALOAD DUP5 MSTORE SWAP3 DUP3 ADD SWAP3 SWAP1 DUP3 ADD SWAP1 PUSH1 0x1 ADD PUSH2 0x1C98 JUMP JUMPDEST POP POP POP POP POP SWAP3 SWAP2 POP POP JUMP JUMPDEST PUSH1 0x0 DUP3 PUSH1 0x1F DUP4 ADD SLT PUSH2 0x1CCF JUMPI DUP1 DUP2 REVERT JUMPDEST DUP2 CALLDATALOAD PUSH2 0x1CDD PUSH2 0x1C6F DUP3 PUSH2 0x3229 JUMP JUMPDEST SWAP2 POP DUP1 DUP3 MSTORE DUP4 PUSH1 0x20 DUP3 DUP6 ADD ADD GT ISZERO PUSH2 0x1CF4 JUMPI PUSH1 0x0 DUP1 REVERT JUMPDEST DUP1 PUSH1 0x20 DUP5 ADD PUSH1 0x20 DUP5 ADD CALLDATACOPY PUSH1 0x0 SWAP1 DUP3 ADD PUSH1 0x20 ADD MSTORE SWAP3 SWAP2 POP POP JUMP JUMPDEST PUSH1 0x0 DUP3 PUSH1 0x1F DUP4 ADD SLT PUSH2 0x1D1D JUMPI DUP1 DUP2 REVERT JUMPDEST DUP2 MLOAD PUSH2 0x1D2B PUSH2 0x1C6F DUP3 PUSH2 0x3229 JUMP JUMPDEST SWAP2 POP DUP1 DUP3 MSTORE DUP4 PUSH1 0x20 DUP3 DUP6 ADD ADD GT ISZERO PUSH2 0x1D42 JUMPI PUSH1 0x0 DUP1 REVERT JUMPDEST PUSH2 0x1D53 DUP2 PUSH1 0x20 DUP5 ADD PUSH1 0x20 DUP7 ADD PUSH2 0x324A JUMP JUMPDEST POP SWAP3 SWAP2 POP POP JUMP JUMPDEST PUSH1 0x0 PUSH1 0x80 DUP3 DUP5 SUB SLT ISZERO PUSH2 0x1D6B JUMPI DUP1 DUP2 REVERT JUMPDEST PUSH1 0x40 MLOAD PUSH1 0x80 DUP2 ADD PUSH1 0x1 PUSH1 0x1 PUSH1 0x40 SHL SUB DUP3 DUP3 LT DUP2 DUP4 GT OR ISZERO PUSH2 0x1D88 JUMPI INVALID JUMPDEST DUP2 PUSH1 0x40 MSTORE DUP3 SWAP4 POP DUP5 MLOAD DUP4 MSTORE PUSH1 0x20 DUP6 ADD MLOAD PUSH1 0x20 DUP5 ADD MSTORE PUSH1 0x40 DUP6 ADD MLOAD SWAP2 POP PUSH2 0x1DAD DUP3 PUSH2 0x327A JUMP JUMPDEST DUP2 PUSH1 0x40 DUP5 ADD MSTORE PUSH1 0x60 DUP6 ADD MLOAD SWAP2 POP DUP1 DUP3 GT ISZERO PUSH2 0x1DC7 JUMPI PUSH1 0x0 DUP1 REVERT JUMPDEST POP PUSH2 0x1DD4 DUP6 DUP3 DUP7 ADD PUSH2 0x1D0D JUMP JUMPDEST PUSH1 0x60 DUP4 ADD MSTORE POP POP SWAP3 SWAP2 POP POP JUMP JUMPDEST PUSH1 0x0 PUSH1 0x20 DUP3 DUP5 SUB SLT ISZERO PUSH2 0x1DF2 JUMPI DUP1 DUP2 REVERT JUMPDEST DUP2 CALLDATALOAD PUSH2 0x1AF6 DUP2 PUSH2 0x327A JUMP JUMPDEST PUSH1 0x0 PUSH1 0x20 DUP3 DUP5 SUB SLT ISZERO PUSH2 0x1E0E JUMPI DUP1 DUP2 REVERT JUMPDEST DUP2 MLOAD PUSH2 0x1AF6 DUP2 PUSH2 0x327A JUMP JUMPDEST PUSH1 0x0 DUP1 PUSH1 0x40 DUP4 DUP6 SUB SLT ISZERO PUSH2 0x1E2B JUMPI DUP1 DUP2 REVERT JUMPDEST DUP3 MLOAD PUSH2 0x1E36 DUP2 PUSH2 0x327A JUMP JUMPDEST PUSH1 0x20 SWAP4 SWAP1 SWAP4 ADD MLOAD SWAP3 SWAP5 SWAP3 SWAP4 POP POP POP JUMP JUMPDEST PUSH1 0x0 DUP1 PUSH1 0x40 DUP4 DUP6 SUB SLT ISZERO PUSH2 0x1E58 JUMPI DUP2 DUP3 REVERT JUMPDEST DUP3 CALLDATALOAD PUSH2 0x1E63 DUP2 PUSH2 0x327A JUMP JUMPDEST SWAP2 POP PUSH1 0x20 DUP4 ADD CALLDATALOAD PUSH2 0x1E73 DUP2 PUSH2 0x327A JUMP JUMPDEST DUP1 SWAP2 POP POP SWAP3 POP SWAP3 SWAP1 POP JUMP JUMPDEST PUSH1 0x0 DUP1 PUSH1 0x0 DUP1 PUSH1 0x0 DUP1 PUSH1 0xC0 DUP8 DUP10 SUB SLT ISZERO PUSH2 0x1E96 JUMPI DUP2 DUP3 REVERT JUMPDEST DUP7 CALLDATALOAD PUSH2 0x1EA1 DUP2 PUSH2 0x327A JUMP JUMPDEST SWAP6 POP PUSH1 0x20 DUP8 ADD CALLDATALOAD PUSH2 0x1EB1 DUP2 PUSH2 0x327A JUMP JUMPDEST SWAP5 POP PUSH1 0x40 DUP8 ADD CALLDATALOAD PUSH1 0x1 PUSH1 0x1 PUSH1 0x40 SHL SUB DUP1 DUP3 GT ISZERO PUSH2 0x1ECC JUMPI DUP4 DUP5 REVERT JUMPDEST PUSH2 0x1ED8 DUP11 DUP4 DUP12 ADD PUSH2 0x1C51 JUMP JUMPDEST SWAP6 POP PUSH1 0x60 DUP10 ADD CALLDATALOAD SWAP2 POP DUP1 DUP3 GT ISZERO PUSH2 0x1EED JUMPI DUP4 DUP5 REVERT JUMPDEST PUSH2 0x1EF9 DUP11 DUP4 DUP12 ADD PUSH2 0x1C51 JUMP JUMPDEST SWAP5 POP PUSH1 0x80 DUP10 ADD CALLDATALOAD SWAP2 POP PUSH2 0x1F0B DUP3 PUSH2 0x3292 JUMP JUMPDEST SWAP1 SWAP3 POP PUSH1 0xA0 DUP9 ADD CALLDATALOAD SWAP1 DUP1 DUP3 GT ISZERO PUSH2 0x1F20 JUMPI DUP3 DUP4 REVERT JUMPDEST POP PUSH2 0x1F2D DUP10 DUP3 DUP11 ADD PUSH2 0x1CBF JUMP JUMPDEST SWAP2 POP POP SWAP3 SWAP6 POP SWAP3 SWAP6 POP SWAP3 SWAP6 JUMP JUMPDEST PUSH1 0x0 DUP1 PUSH1 0x0 DUP1 PUSH1 0x0 PUSH1 0xA0 DUP7 DUP9 SUB SLT ISZERO PUSH2 0x1F51 JUMPI DUP1 DUP2 REVERT JUMPDEST DUP6 CALLDATALOAD PUSH2 0x1F5C DUP2 PUSH2 0x327A JUMP JUMPDEST SWAP5 POP PUSH1 0x20 DUP7 ADD CALLDATALOAD PUSH2 0x1F6C DUP2 PUSH2 0x327A JUMP JUMPDEST SWAP4 POP PUSH1 0x40 DUP7 ADD CALLDATALOAD PUSH1 0x1 PUSH1 0x1 PUSH1 0x40 SHL SUB DUP1 DUP3 GT ISZERO PUSH2 0x1F87 JUMPI DUP3 DUP4 REVERT JUMPDEST PUSH2 0x1F93 DUP10 DUP4 DUP11 ADD PUSH2 0x1C51 JUMP JUMPDEST SWAP5 POP PUSH1 0x60 DUP9 ADD CALLDATALOAD SWAP2 POP DUP1 DUP3 GT ISZERO PUSH2 0x1FA8 JUMPI DUP3 DUP4 REVERT JUMPDEST PUSH2 0x1FB4 DUP10 DUP4 DUP11 ADD PUSH2 0x1C51 JUMP JUMPDEST SWAP4 POP PUSH1 0x80 DUP9 ADD CALLDATALOAD SWAP2 POP DUP1 DUP3 GT ISZERO PUSH2 0x1FC9 JUMPI DUP3 DUP4 REVERT JUMPDEST POP PUSH2 0x1FD6 DUP9 DUP3 DUP10 ADD PUSH2 0x1CBF JUMP JUMPDEST SWAP2 POP POP SWAP3 SWAP6 POP SWAP3 SWAP6 SWAP1 SWAP4 POP JUMP JUMPDEST PUSH1 0x0 DUP1 PUSH1 0x0 DUP1 PUSH1 0x0 PUSH1 0xA0 DUP7 DUP9 SUB SLT ISZERO PUSH2 0x1FFA JUMPI DUP1 DUP2 REVERT JUMPDEST DUP6 CALLDATALOAD PUSH2 0x2005 DUP2 PUSH2 0x327A JUMP JUMPDEST SWAP5 POP PUSH1 0x20 DUP7 ADD CALLDATALOAD PUSH2 0x2015 DUP2 PUSH2 0x327A JUMP JUMPDEST SWAP4 POP PUSH1 0x40 DUP7 ADD CALLDATALOAD PUSH2 0x2025 DUP2 PUSH2 0x3292 JUMP JUMPDEST SWAP3 POP PUSH1 0x60 DUP7 ADD CALLDATALOAD PUSH2 0x2035 DUP2 PUSH2 0x3292 JUMP JUMPDEST SWAP2 POP PUSH1 0x80 DUP7 ADD CALLDATALOAD PUSH1 0x1 PUSH1 0x1 PUSH1 0x40 SHL SUB DUP2 GT ISZERO PUSH2 0x204F JUMPI DUP2 DUP3 REVERT JUMPDEST PUSH2 0x1FD6 DUP9 DUP3 DUP10 ADD PUSH2 0x1CBF JUMP JUMPDEST PUSH1 0x0 DUP1 PUSH1 0x0 DUP1 PUSH1 0x0 DUP1 PUSH1 0xC0 DUP8 DUP10 SUB SLT ISZERO PUSH2 0x2073 JUMPI DUP4 DUP5 REVERT JUMPDEST DUP7 CALLDATALOAD PUSH2 0x207E DUP2 PUSH2 0x327A JUMP JUMPDEST SWAP6 POP PUSH1 0x20 DUP8 ADD CALLDATALOAD PUSH2 0x208E DUP2 PUSH2 0x327A JUMP JUMPDEST SWAP5 POP PUSH1 0x40 DUP8 ADD CALLDATALOAD SWAP4 POP PUSH1 0x60 DUP8 ADD CALLDATALOAD SWAP3 POP PUSH1 0x80 DUP8 ADD CALLDATALOAD PUSH2 0x20AC DUP2 PUSH2 0x3292 JUMP JUMPDEST SWAP2 POP PUSH1 0xA0 DUP8 ADD CALLDATALOAD PUSH1 0x1 PUSH1 0x1 PUSH1 0x40 SHL SUB DUP2 GT ISZERO PUSH2 0x20C6 JUMPI DUP2 DUP3 REVERT JUMPDEST PUSH2 0x1F2D DUP10 DUP3 DUP11 ADD PUSH2 0x1CBF JUMP JUMPDEST PUSH1 0x0 DUP1 PUSH1 0x0 DUP1 PUSH1 0x0 PUSH1 0xA0 DUP7 DUP9 SUB SLT ISZERO PUSH2 0x20E9 JUMPI DUP3 DUP4 REVERT JUMPDEST DUP6 CALLDATALOAD PUSH2 0x20F4 DUP2 PUSH2 0x327A JUMP JUMPDEST SWAP5 POP PUSH1 0x20 DUP7 ADD CALLDATALOAD PUSH2 0x2104 DUP2 PUSH2 0x327A JUMP JUMPDEST SWAP4 POP PUSH1 0x40 DUP7 ADD CALLDATALOAD SWAP3 POP PUSH1 0x60 DUP7 ADD CALLDATALOAD SWAP2 POP PUSH1 0x80 DUP7 ADD CALLDATALOAD PUSH1 0x1 PUSH1 0x1 PUSH1 0x40 SHL SUB DUP2 GT ISZERO PUSH2 0x204F JUMPI DUP2 DUP3 REVERT JUMPDEST PUSH1 0x0 DUP1 PUSH1 0x40 DUP4 DUP6 SUB SLT ISZERO PUSH2 0x213E JUMPI DUP2 DUP3 REVERT JUMPDEST DUP3 CALLDATALOAD PUSH2 0x2149 DUP2 PUSH2 0x327A JUMP JUMPDEST SWAP2 POP PUSH1 0x20 DUP4 ADD CALLDATALOAD PUSH2 0x1E73 DUP2 PUSH2 0x3292 JUMP JUMPDEST PUSH1 0x0 DUP1 PUSH1 0x0 DUP1 PUSH1 0x80 DUP6 DUP8 SUB SLT ISZERO PUSH2 0x216E JUMPI DUP2 DUP3 REVERT JUMPDEST DUP5 CALLDATALOAD PUSH2 0x2179 DUP2 PUSH2 0x327A JUMP JUMPDEST SWAP4 POP PUSH1 0x20 DUP6 ADD CALLDATALOAD SWAP3 POP PUSH1 0x40 DUP6 ADD CALLDATALOAD PUSH1 0x1 PUSH1 0x1 PUSH1 0x40 SHL SUB DUP1 DUP3 GT ISZERO PUSH2 0x219B JUMPI DUP4 DUP5 REVERT JUMPDEST PUSH2 0x21A7 DUP9 DUP4 DUP10 ADD PUSH2 0x1CBF JUMP JUMPDEST SWAP4 POP PUSH1 0x60 DUP8 ADD CALLDATALOAD SWAP2 POP DUP1 DUP3 GT ISZERO PUSH2 0x21BC JUMPI DUP3 DUP4 REVERT JUMPDEST POP PUSH2 0x21C9 DUP8 DUP3 DUP9 ADD PUSH2 0x1CBF JUMP JUMPDEST SWAP2 POP POP SWAP3 SWAP6 SWAP2 SWAP5 POP SWAP3 POP JUMP JUMPDEST PUSH1 0x0 DUP1 PUSH1 0x40 DUP4 DUP6 SUB SLT ISZERO PUSH2 0x21E7 JUMPI DUP2 DUP3 REVERT JUMPDEST DUP3 CALLDATALOAD PUSH2 0x21F2 DUP2 PUSH2 0x327A JUMP JUMPDEST SWAP5 PUSH1 0x20 SWAP4 SWAP1 SWAP4 ADD CALLDATALOAD SWAP4 POP POP POP JUMP JUMPDEST PUSH1 0x0 DUP1 PUSH1 0x40 DUP4 DUP6 SUB SLT ISZERO PUSH2 0x2212 JUMPI DUP2 DUP3 REVERT JUMPDEST DUP3 CALLDATALOAD PUSH1 0x1 PUSH1 0x1 PUSH1 0x40 SHL SUB DUP1 DUP3 GT ISZERO PUSH2 0x2228 JUMPI DUP4 DUP5 REVERT JUMPDEST DUP2 DUP6 ADD SWAP2 POP DUP6 PUSH1 0x1F DUP4 ADD SLT PUSH2 0x223B JUMPI DUP4 DUP5 REVERT JUMPDEST DUP2 CALLDATALOAD PUSH2 0x2249 PUSH2 0x1C6F DUP3 PUSH2 0x320C JUMP JUMPDEST DUP1 DUP3 DUP3 MSTORE PUSH1 0x20 DUP1 DUP4 ADD SWAP3 POP DUP1 DUP7 ADD DUP11 DUP3 DUP4 DUP8 MUL DUP10 ADD ADD GT ISZERO PUSH2 0x2269 JUMPI DUP9 DUP10 REVERT JUMPDEST DUP9 SWAP7 POP JUMPDEST DUP5 DUP8 LT ISZERO PUSH2 0x2294 JUMPI DUP1 CALLDATALOAD PUSH2 0x2280 DUP2 PUSH2 0x327A JUMP JUMPDEST DUP5 MSTORE PUSH1 0x1 SWAP7 SWAP1 SWAP7 ADD SWAP6 SWAP3 DUP2 ADD SWAP3 DUP2 ADD PUSH2 0x226D JUMP JUMPDEST POP SWAP1 SWAP7 POP DUP8 ADD CALLDATALOAD SWAP4 POP POP POP DUP1 DUP3 GT ISZERO PUSH2 0x22AB JUMPI DUP3 DUP4 REVERT JUMPDEST POP PUSH2 0x22B8 DUP6 DUP3 DUP7 ADD PUSH2 0x1C51 JUMP JUMPDEST SWAP2 POP POP SWAP3 POP SWAP3 SWAP1 POP JUMP JUMPDEST PUSH1 0x0 PUSH1 0x20 DUP3 DUP5 SUB SLT ISZERO PUSH2 0x22D3 JUMPI DUP1 DUP2 REVERT JUMPDEST DUP2 MLOAD PUSH2 0x1AF6 DUP2 PUSH2 0x3292 JUMP JUMPDEST PUSH1 0x0 PUSH1 0x20 DUP3 DUP5 SUB SLT ISZERO PUSH2 0x22EF JUMPI DUP1 DUP2 REVERT JUMPDEST DUP2 CALLDATALOAD PUSH2 0x1AF6 DUP2 PUSH2 0x32A0 JUMP JUMPDEST PUSH1 0x0 PUSH1 0x20 DUP3 DUP5 SUB SLT ISZERO PUSH2 0x230B JUMPI DUP1 DUP2 REVERT JUMPDEST DUP2 MLOAD PUSH2 0x1AF6 DUP2 PUSH2 0x32A0 JUMP JUMPDEST PUSH1 0x0 DUP1 PUSH1 0x40 DUP4 DUP6 SUB SLT ISZERO PUSH2 0x2328 JUMPI DUP2 DUP3 REVERT JUMPDEST DUP3 MLOAD PUSH1 0x1 PUSH1 0x1 PUSH1 0x40 SHL SUB DUP1 DUP3 GT ISZERO PUSH2 0x233E JUMPI DUP4 DUP5 REVERT JUMPDEST PUSH2 0x234A DUP7 DUP4 DUP8 ADD PUSH2 0x1D0D JUMP JUMPDEST SWAP4 POP PUSH1 0x20 DUP6 ADD MLOAD SWAP2 POP DUP1 DUP3 GT ISZERO PUSH2 0x235F JUMPI DUP3 DUP4 REVERT JUMPDEST POP PUSH2 0x22B8 DUP6 DUP3 DUP7 ADD PUSH2 0x1D0D JUMP JUMPDEST PUSH1 0x0 PUSH1 0x20 DUP3 DUP5 SUB SLT ISZERO PUSH2 0x237D JUMPI DUP1 DUP2 REVERT JUMPDEST DUP2 MLOAD PUSH1 0x1 PUSH1 0x1 PUSH1 0x40 SHL SUB DUP2 GT ISZERO PUSH2 0x2392 JUMPI DUP2 DUP3 REVERT JUMPDEST PUSH2 0xFBD DUP5 DUP3 DUP6 ADD PUSH2 0x1D5A JUMP JUMPDEST PUSH1 0x0 DUP1 PUSH1 0x40 DUP4 DUP6 SUB SLT ISZERO PUSH2 0x23B0 JUMPI DUP2 DUP3 REVERT JUMPDEST DUP3 MLOAD PUSH1 0x1 PUSH1 0x1 PUSH1 0x40 SHL SUB DUP1 DUP3 GT ISZERO PUSH2 0x23C6 JUMPI DUP4 DUP5 REVERT JUMPDEST PUSH2 0x234A DUP7 DUP4 DUP8 ADD PUSH2 0x1D5A JUMP JUMPDEST PUSH1 0x0 PUSH1 0x20 DUP3 DUP5 SUB SLT ISZERO PUSH2 0x23E3 JUMPI DUP1 DUP2 REVERT JUMPDEST POP CALLDATALOAD SWAP2 SWAP1 POP JUMP JUMPDEST PUSH1 0x0 DUP1 PUSH1 0x40 DUP4 DUP6 SUB SLT ISZERO PUSH2 0x23FC JUMPI DUP2 DUP3 REVERT JUMPDEST POP POP DUP1 CALLDATALOAD SWAP3 PUSH1 0x20 SWAP1 SWAP2 ADD CALLDATALOAD SWAP2 POP JUMP JUMPDEST PUSH1 0x0 DUP2 MLOAD DUP1 DUP5 MSTORE PUSH1 0x20 DUP1 DUP6 ADD SWAP5 POP DUP1 DUP5 ADD DUP4 JUMPDEST DUP4 DUP2 LT ISZERO PUSH2 0x243A JUMPI DUP2 MLOAD DUP8 MSTORE SWAP6 DUP3 ADD SWAP6 SWAP1 DUP3 ADD SWAP1 PUSH1 0x1 ADD PUSH2 0x241E JUMP JUMPDEST POP SWAP5 SWAP6 SWAP5 POP POP POP POP POP JUMP JUMPDEST PUSH1 0x0 DUP2 MLOAD DUP1 DUP5 MSTORE PUSH2 0x245D DUP2 PUSH1 0x20 DUP7 ADD PUSH1 0x20 DUP7 ADD PUSH2 0x324A JUMP JUMPDEST PUSH1 0x1F ADD PUSH1 0x1F NOT AND SWAP3 SWAP1 SWAP3 ADD PUSH1 0x20 ADD SWAP3 SWAP2 POP POP JUMP JUMPDEST DUP2 MLOAD PUSH1 0x0 SWAP1 DUP3 SWAP1 PUSH1 0x20 DUP1 DUP7 ADD DUP5 JUMPDEST DUP4 DUP2 LT ISZERO PUSH2 0x249B JUMPI DUP2 MLOAD DUP6 MSTORE SWAP4 DUP3 ADD SWAP4 SWAP1 DUP3 ADD SWAP1 PUSH1 0x1 ADD PUSH2 0x247F JUMP JUMPDEST POP SWAP3 SWAP7 SWAP6 POP POP POP POP POP POP JUMP JUMPDEST PUSH1 0x0 DUP5 MLOAD PUSH2 0x24B9 DUP2 DUP5 PUSH1 0x20 DUP10 ADD PUSH2 0x324A JUMP JUMPDEST SWAP2 SWAP1 SWAP2 ADD SWAP3 DUP4 MSTORE POP PUSH1 0x20 DUP3 ADD MSTORE PUSH1 0x40 ADD SWAP2 SWAP1 POP JUMP JUMPDEST PUSH1 0x0 DUP5 MLOAD PUSH2 0x24E0 DUP2 DUP5 PUSH1 0x20 DUP10 ADD PUSH2 0x324A JUMP JUMPDEST DUP3 ADD DUP5 DUP2 MSTORE DUP4 MLOAD PUSH2 0x24F8 DUP2 PUSH1 0x20 DUP1 DUP6 ADD SWAP1 DUP9 ADD PUSH2 0x324A JUMP JUMPDEST ADD PUSH1 0x20 ADD SWAP6 SWAP5 POP POP POP POP POP JUMP JUMPDEST PUSH1 0x0 DUP1 DUP5 SLOAD PUSH1 0x1 DUP1 DUP3 AND PUSH1 0x0 DUP2 EQ PUSH2 0x2524 JUMPI PUSH1 0x1 DUP2 EQ PUSH2 0x253B JUMPI PUSH2 0x256A JUMP JUMPDEST PUSH1 0xFF NOT DUP4 AND DUP7 MSTORE PUSH1 0x2 DUP4 DIV PUSH1 0x7F AND DUP7 ADD SWAP4 POP PUSH2 0x256A JUMP JUMPDEST PUSH1 0x2 DUP4 DIV DUP9 DUP7 MSTORE PUSH1 0x20 DUP1 DUP8 KECCAK256 DUP8 JUMPDEST DUP4 DUP2 LT ISZERO PUSH2 0x2562 JUMPI DUP2 SLOAD DUP11 DUP3 ADD MSTORE SWAP1 DUP6 ADD SWAP1 DUP3 ADD PUSH2 0x2549 JUMP JUMPDEST POP POP POP DUP7 ADD SWAP4 POP JUMPDEST POP POP POP DUP4 MLOAD PUSH2 0x257D DUP2 DUP4 PUSH1 0x20 DUP9 ADD PUSH2 0x324A JUMP JUMPDEST PUSH5 0x173539B7B7 PUSH1 0xD9 SHL SWAP2 ADD SWAP1 DUP2 MSTORE PUSH1 0x5 ADD SWAP5 SWAP4 POP POP POP POP JUMP JUMPDEST PUSH32 0x19457468657265756D205369676E6564204D6573736167653A0A333200000000 DUP2 MSTORE PUSH1 0x1C DUP2 ADD SWAP2 SWAP1 SWAP2 MSTORE PUSH1 0x3C ADD SWAP1 JUMP JUMPDEST PUSH1 0x1 PUSH1 0x1 PUSH1 0xA0 SHL SUB SWAP2 SWAP1 SWAP2 AND DUP2 MSTORE PUSH1 0x20 ADD SWAP1 JUMP JUMPDEST PUSH1 0x1 PUSH1 0x1 PUSH1 0xA0 SHL SUB DUP7 DUP2 AND DUP3 MSTORE DUP6 AND PUSH1 0x20 DUP3 ADD MSTORE PUSH1 0xA0 PUSH1 0x40 DUP3 ADD DUP2 SWAP1 MSTORE PUSH1 0x0 SWAP1 PUSH2 0x2607 SWAP1 DUP4 ADD DUP7 PUSH2 0x240B JUMP JUMPDEST DUP3 DUP2 SUB PUSH1 0x60 DUP5 ADD MSTORE PUSH2 0x2619 DUP2 DUP7 PUSH2 0x240B JUMP JUMPDEST SWAP1 POP DUP3 DUP2 SUB PUSH1 0x80 DUP5 ADD MSTORE PUSH2 0x262D DUP2 DUP6 PUSH2 0x2445 JUMP JUMPDEST SWAP9 SWAP8 POP POP POP POP POP POP POP POP JUMP JUMPDEST PUSH1 0x1 PUSH1 0x1 PUSH1 0xA0 SHL SUB DUP7 DUP2 AND DUP3 MSTORE DUP6 AND PUSH1 0x20 DUP3 ADD MSTORE PUSH1 0x40 DUP2 ADD DUP5 SWAP1 MSTORE PUSH1 0x60 DUP2 ADD DUP4 SWAP1 MSTORE PUSH1 0xA0 PUSH1 0x80 DUP3 ADD DUP2 SWAP1 MSTORE PUSH1 0x0 SWAP1 PUSH2 0x2673 SWAP1 DUP4 ADD DUP5 PUSH2 0x2445 JUMP JUMPDEST SWAP8 SWAP7 POP POP POP POP POP POP POP JUMP JUMPDEST PUSH1 0x1 PUSH1 0x1 PUSH1 0xA0 SHL SUB SWAP4 DUP5 AND DUP2 MSTORE SWAP2 SWAP1 SWAP3 AND PUSH1 0x20 DUP3 ADD MSTORE PUSH1 0x40 DUP2 ADD SWAP2 SWAP1 SWAP2 MSTORE PUSH1 0x60 ADD SWAP1 JUMP JUMPDEST PUSH1 0x1 PUSH1 0x1 PUSH1 0xA0 SHL SUB SWAP5 DUP6 AND DUP2 MSTORE SWAP3 SWAP1 SWAP4 AND PUSH1 0x20 DUP4 ADD MSTORE PUSH1 0x40 DUP3 ADD MSTORE PUSH1 0x60 DUP2 ADD SWAP2 SWAP1 SWAP2 MSTORE PUSH1 0xA0 PUSH1 0x80 DUP3 ADD DUP2 SWAP1 MSTORE PUSH1 0x0 SWAP1 DUP3 ADD MSTORE PUSH1 0xC0 ADD SWAP1 JUMP JUMPDEST PUSH1 0x0 PUSH1 0x20 DUP3 MSTORE PUSH2 0x1AF6 PUSH1 0x20 DUP4 ADD DUP5 PUSH2 0x240B JUMP JUMPDEST PUSH1 0x0 PUSH1 0x40 DUP3 MSTORE PUSH2 0x2700 PUSH1 0x40 DUP4 ADD DUP6 PUSH2 0x240B JUMP JUMPDEST DUP3 DUP2 SUB PUSH1 0x20 DUP5 ADD MSTORE PUSH2 0x324 DUP2 DUP6 PUSH2 0x240B JUMP JUMPDEST SWAP1 ISZERO ISZERO DUP2 MSTORE PUSH1 0x20 ADD SWAP1 JUMP JUMPDEST SWAP2 DUP3 MSTORE PUSH1 0x1 PUSH1 0x1 PUSH1 0xA0 SHL SUB AND PUSH1 0x20 DUP3 ADD MSTORE PUSH1 0x40 ADD SWAP1 JUMP JUMPDEST SWAP6 DUP7 MSTORE PUSH1 0x1 PUSH1 0x1 PUSH1 0xA0 SHL SUB SWAP5 DUP6 AND PUSH1 0x20 DUP8 ADD MSTORE SWAP3 SWAP1 SWAP4 AND PUSH1 0x40 DUP6 ADD MSTORE PUSH1 0x60 DUP5 ADD MSTORE PUSH1 0x80 DUP4 ADD SWAP2 SWAP1 SWAP2 MSTORE PUSH1 0xA0 DUP3 ADD MSTORE PUSH1 0xC0 ADD SWAP1 JUMP JUMPDEST SWAP5 DUP6 MSTORE PUSH1 0x1 PUSH1 0x1 PUSH1 0xA0 SHL SUB SWAP4 DUP5 AND PUSH1 0x20 DUP7 ADD MSTORE SWAP2 SWAP1 SWAP3 AND PUSH1 0x40 DUP5 ADD MSTORE PUSH1 0x60 DUP4 ADD SWAP2 SWAP1 SWAP2 MSTORE PUSH1 0x80 DUP3 ADD MSTORE PUSH1 0xA0 ADD SWAP1 JUMP JUMPDEST PUSH1 0x0 DUP4 DUP3 MSTORE PUSH1 0x40 PUSH1 0x20 DUP4 ADD MSTORE PUSH2 0xFBD PUSH1 0x40 DUP4 ADD DUP5 PUSH2 0x2445 JUMP JUMPDEST SWAP4 DUP5 MSTORE PUSH1 0xFF SWAP3 SWAP1 SWAP3 AND PUSH1 0x20 DUP5 ADD MSTORE PUSH1 0x40 DUP4 ADD MSTORE PUSH1 0x60 DUP3 ADD MSTORE PUSH1 0x80 ADD SWAP1 JUMP JUMPDEST PUSH1 0x0 PUSH1 0x40 DUP3 MSTORE PUSH2 0x27E1 PUSH1 0x40 DUP4 ADD DUP6 PUSH2 0x2445 JUMP JUMPDEST DUP3 DUP2 SUB PUSH1 0x20 DUP5 ADD MSTORE PUSH2 0x324 DUP2 DUP6 PUSH2 0x2445 JUMP JUMPDEST PUSH1 0x0 PUSH1 0x20 DUP3 MSTORE PUSH2 0x1AF6 PUSH1 0x20 DUP4 ADD DUP5 PUSH2 0x2445 JUMP JUMPDEST PUSH1 0x20 DUP1 DUP3 MSTORE PUSH1 0x39 SWAP1 DUP3 ADD MSTORE PUSH32 0x455243313135355061636B656442616C616E63652362616C616E63654F664261 PUSH1 0x40 DUP3 ADD MSTORE PUSH32 0x7463683A20494E56414C49445F41525241595F4C454E47544800000000000000 PUSH1 0x60 DUP3 ADD MSTORE PUSH1 0x80 ADD SWAP1 JUMP JUMPDEST PUSH1 0x20 DUP1 DUP3 MSTORE PUSH1 0x3D SWAP1 DUP3 ADD MSTORE PUSH32 0x455243313135355061636B656442616C616E6365237361666542617463685472 PUSH1 0x40 DUP3 ADD MSTORE PUSH32 0x616E7366657246726F6D3A20494E56414C49445F524543495049454E54000000 PUSH1 0x60 DUP3 ADD MSTORE PUSH1 0x80 ADD SWAP1 JUMP JUMPDEST PUSH1 0x20 DUP1 DUP3 MSTORE PUSH1 0x3F SWAP1 DUP3 ADD MSTORE PUSH32 0x455243313135354D6574615061636B656442616C616E6365235F7472616E7366 PUSH1 0x40 DUP3 ADD MSTORE PUSH32 0x65724761734665653A2045524332305F5452414E534645525F4641494C454400 PUSH1 0x60 DUP3 ADD MSTORE PUSH1 0x80 ADD SWAP1 JUMP JUMPDEST PUSH1 0x20 DUP1 DUP3 MSTORE PUSH1 0x37 SWAP1 DUP3 ADD MSTORE PUSH32 0x4C6962427974657323706F704C617374427974653A20475245415445525F5448 PUSH1 0x40 DUP3 ADD MSTORE PUSH32 0x414E5F5A45524F5F4C454E4754485F5245515549524544000000000000000000 PUSH1 0x60 DUP3 ADD MSTORE PUSH1 0x80 ADD SWAP1 JUMP JUMPDEST PUSH1 0x20 DUP1 DUP3 MSTORE PUSH1 0x3C SWAP1 DUP3 ADD MSTORE PUSH32 0x455243313135354D6574615061636B656442616C616E6365235F7369676E6174 PUSH1 0x40 DUP3 ADD MSTORE PUSH32 0x75726556616C69646174696F6E3A20494E56414C49445F4E4F4E434500000000 PUSH1 0x60 DUP3 ADD MSTORE PUSH1 0x80 ADD SWAP1 JUMP JUMPDEST PUSH1 0x20 DUP1 DUP3 MSTORE PUSH1 0x33 SWAP1 DUP3 ADD MSTORE PUSH32 0x455243313135355061636B656442616C616E6365235F76696577557064617465 PUSH1 0x40 DUP3 ADD MSTORE PUSH19 0x42696E56616C75653A20554E444552464C4F57 PUSH1 0x68 SHL PUSH1 0x60 DUP3 ADD MSTORE PUSH1 0x80 ADD SWAP1 JUMP JUMPDEST PUSH1 0x20 DUP1 DUP3 MSTORE PUSH1 0x2A SWAP1 DUP3 ADD MSTORE PUSH32 0x4F776E61626C65237472616E736665724F776E6572736869703A20494E56414C PUSH1 0x40 DUP3 ADD MSTORE PUSH10 0x49445F41444452455353 PUSH1 0xB0 SHL PUSH1 0x60 DUP3 ADD MSTORE PUSH1 0x80 ADD SWAP1 JUMP JUMPDEST PUSH1 0x20 DUP1 DUP3 MSTORE PUSH1 0x3A SWAP1 DUP3 ADD MSTORE PUSH1 0x0 DUP1 MLOAD PUSH1 0x20 PUSH2 0x32B7 DUP4 CODECOPY DUP2 MLOAD SWAP2 MSTORE PUSH1 0x40 DUP3 ADD MSTORE PUSH32 0x7572653A20554E535550504F525445445F5349474E4154555245000000000000 PUSH1 0x60 DUP3 ADD MSTORE PUSH1 0x80 ADD SWAP1 JUMP JUMPDEST PUSH1 0x20 DUP1 DUP3 MSTORE PUSH1 0x40 SWAP1 DUP3 ADD DUP2 SWAP1 MSTORE PUSH32 0x455243313135354D6574615061636B656442616C616E6365235F7369676E6174 SWAP1 DUP3 ADD MSTORE PUSH32 0x75726556616C69646174696F6E3A20494E56414C49445F5349474E4154555245 PUSH1 0x60 DUP3 ADD MSTORE PUSH1 0x80 ADD SWAP1 JUMP JUMPDEST PUSH1 0x20 DUP1 DUP3 MSTORE PUSH1 0x37 SWAP1 DUP3 ADD MSTORE PUSH32 0x455243313135355061636B656442616C616E636523736166655472616E736665 PUSH1 0x40 DUP3 ADD MSTORE PUSH32 0x7246726F6D3A20494E56414C49445F4F50455241544F52000000000000000000 PUSH1 0x60 DUP3 ADD MSTORE PUSH1 0x80 ADD SWAP1 JUMP JUMPDEST PUSH1 0x20 DUP1 DUP3 MSTORE PUSH1 0x36 SWAP1 DUP3 ADD MSTORE PUSH1 0x0 DUP1 MLOAD PUSH1 0x20 PUSH2 0x32B7 DUP4 CODECOPY DUP2 MLOAD SWAP2 MSTORE PUSH1 0x40 DUP3 ADD MSTORE PUSH22 0x7572653A20494C4C4547414C5F5349474E4154555245 PUSH1 0x50 SHL PUSH1 0x60 DUP3 ADD MSTORE PUSH1 0x80 ADD SWAP1 JUMP JUMPDEST PUSH1 0x20 DUP1 DUP3 MSTORE PUSH1 0x42 SWAP1 DUP3 ADD MSTORE PUSH32 0x455243313135355061636B656442616C616E6365235F73616665426174636854 PUSH1 0x40 DUP3 ADD MSTORE PUSH32 0x72616E7366657246726F6D3A20494E56414C49445F4152524159535F4C454E47 PUSH1 0x60 DUP3 ADD MSTORE PUSH2 0xA89 PUSH1 0xF3 SHL PUSH1 0x80 DUP3 ADD MSTORE PUSH1 0xA0 ADD SWAP1 JUMP JUMPDEST PUSH1 0x20 DUP1 DUP3 MSTORE PUSH1 0x4C SWAP1 DUP3 ADD MSTORE PUSH32 0x455243313135355061636B656442616C616E6365235F63616C6C6F6E45524331 PUSH1 0x40 DUP3 ADD MSTORE PUSH32 0x313535426174636852656365697665643A20494E56414C49445F4F4E5F524543 PUSH1 0x60 DUP3 ADD MSTORE PUSH12 0x454956455F4D455353414745 PUSH1 0xA0 SHL PUSH1 0x80 DUP3 ADD MSTORE PUSH1 0xA0 ADD SWAP1 JUMP JUMPDEST PUSH1 0x20 DUP1 DUP3 MSTORE PUSH1 0x37 SWAP1 DUP3 ADD MSTORE PUSH1 0x0 DUP1 MLOAD PUSH1 0x20 PUSH2 0x32B7 DUP4 CODECOPY DUP2 MLOAD SWAP2 MSTORE PUSH1 0x40 DUP3 ADD MSTORE PUSH32 0x7572653A204C454E4754485F39375F5245515549524544000000000000000000 PUSH1 0x60 DUP3 ADD MSTORE PUSH1 0x80 ADD SWAP1 JUMP JUMPDEST PUSH1 0x20 DUP1 DUP3 MSTORE PUSH1 0x3C SWAP1 DUP3 ADD MSTORE PUSH32 0x455243313135355061636B656442616C616E6365237361666542617463685472 PUSH1 0x40 DUP3 ADD MSTORE PUSH32 0x616E7366657246726F6D3A20494E56414C49445F4F50455241544F5200000000 PUSH1 0x60 DUP3 ADD MSTORE PUSH1 0x80 ADD SWAP1 JUMP JUMPDEST PUSH1 0x20 DUP1 DUP3 MSTORE PUSH1 0x36 SWAP1 DUP3 ADD MSTORE PUSH32 0x455243313135355061636B656442616C616E6365235F73616665426174636854 PUSH1 0x40 DUP3 ADD MSTORE PUSH22 0x72616E7366657246726F6D3A20554E444552464C4F57 PUSH1 0x50 SHL PUSH1 0x60 DUP3 ADD MSTORE PUSH1 0x80 ADD SWAP1 JUMP JUMPDEST PUSH1 0x20 DUP1 DUP3 MSTORE PUSH1 0x33 SWAP1 DUP3 ADD MSTORE PUSH1 0x0 DUP1 MLOAD PUSH1 0x20 PUSH2 0x32B7 DUP4 CODECOPY DUP2 MLOAD SWAP2 MSTORE PUSH1 0x40 DUP3 ADD MSTORE PUSH19 0x3AB9329D1024A72B20A624A22FA9A4A3A722A9 PUSH1 0x69 SHL PUSH1 0x60 DUP3 ADD MSTORE PUSH1 0x80 ADD SWAP1 JUMP JUMPDEST PUSH1 0x20 DUP1 DUP3 MSTORE PUSH1 0x40 SWAP1 DUP3 ADD DUP2 SWAP1 MSTORE PUSH32 0x455243313135354D6574615061636B656442616C616E6365236D657461536166 SWAP1 DUP3 ADD MSTORE PUSH32 0x655472616E7366657246726F6D3A20494E56414C49445F524543495049454E54 PUSH1 0x60 DUP3 ADD MSTORE PUSH1 0x80 ADD SWAP1 JUMP JUMPDEST PUSH1 0x20 DUP1 DUP3 MSTORE PUSH1 0x47 SWAP1 DUP3 ADD MSTORE PUSH32 0x455243313135355061636B656442616C616E6365235F63616C6C6F6E45524331 PUSH1 0x40 DUP3 ADD MSTORE PUSH32 0x31353552656365697665643A20494E56414C49445F4F4E5F524543454956455F PUSH1 0x60 DUP3 ADD MSTORE PUSH7 0x4D455353414745 PUSH1 0xC8 SHL PUSH1 0x80 DUP3 ADD MSTORE PUSH1 0xA0 ADD SWAP1 JUMP JUMPDEST PUSH1 0x20 DUP1 DUP3 MSTORE PUSH1 0x43 SWAP1 DUP3 ADD MSTORE PUSH1 0x0 DUP1 MLOAD PUSH1 0x20 PUSH2 0x32B7 DUP4 CODECOPY DUP2 MLOAD SWAP2 MSTORE PUSH1 0x40 DUP3 ADD MSTORE PUSH32 0x7572653A204C454E4754485F475245415445525F5448414E5F305F5245515549 PUSH1 0x60 DUP3 ADD MSTORE PUSH3 0x149151 PUSH1 0xEA SHL PUSH1 0x80 DUP3 ADD MSTORE PUSH1 0xA0 ADD SWAP1 JUMP JUMPDEST PUSH1 0x20 DUP1 DUP3 MSTORE PUSH1 0x45 SWAP1 DUP3 ADD MSTORE PUSH32 0x455243313135354D6574615061636B656442616C616E6365236D657461536166 PUSH1 0x40 DUP3 ADD MSTORE PUSH32 0x6542617463685472616E7366657246726F6D3A20494E56414C49445F52454349 PUSH1 0x60 DUP3 ADD MSTORE PUSH5 0x1412515395 PUSH1 0xDA SHL PUSH1 0x80 DUP3 ADD MSTORE PUSH1 0xA0 ADD SWAP1 JUMP JUMPDEST PUSH1 0x20 DUP1 DUP3 MSTORE PUSH1 0x38 SWAP1 DUP3 ADD MSTORE PUSH32 0x455243313135355061636B656442616C616E636523736166655472616E736665 PUSH1 0x40 DUP3 ADD MSTORE PUSH32 0x7246726F6D3A20494E56414C49445F524543495049454E540000000000000000 PUSH1 0x60 DUP3 ADD MSTORE PUSH1 0x80 ADD SWAP1 JUMP JUMPDEST PUSH1 0x20 DUP1 DUP3 MSTORE PUSH1 0x26 SWAP1 DUP3 ADD MSTORE PUSH32 0x4F776E61626C65236F6E6C794F776E65723A2053454E4445525F49535F4E4F54 PUSH1 0x40 DUP3 ADD MSTORE PUSH6 0x2FA7ABA722A9 PUSH1 0xD1 SHL PUSH1 0x60 DUP3 ADD MSTORE PUSH1 0x80 ADD SWAP1 JUMP JUMPDEST PUSH1 0x20 DUP1 DUP3 MSTORE PUSH1 0x3B SWAP1 DUP3 ADD MSTORE PUSH32 0x455243313135354D6574615061636B656442616C616E6365235F7472616E7366 PUSH1 0x40 DUP3 ADD MSTORE PUSH32 0x65724761734665653A20554E535550504F525445445F544F4B454E0000000000 PUSH1 0x60 DUP3 ADD MSTORE PUSH1 0x80 ADD SWAP1 JUMP JUMPDEST PUSH1 0x20 DUP1 DUP3 MSTORE PUSH1 0x3C SWAP1 DUP3 ADD MSTORE PUSH32 0x4C696242797465732372656164427974657333323A20475245415445525F4F52 PUSH1 0x40 DUP3 ADD MSTORE PUSH32 0x5F455155414C5F544F5F33325F4C454E4754485F524551554952454400000000 PUSH1 0x60 DUP3 ADD MSTORE PUSH1 0x80 ADD SWAP1 JUMP JUMPDEST PUSH1 0x20 DUP1 DUP3 MSTORE PUSH1 0x34 SWAP1 DUP3 ADD MSTORE PUSH32 0x455243313135354D6574614D696E744275726E5061636B656442616C616E6365 PUSH1 0x40 DUP3 ADD MSTORE PUSH20 0x135BD8DACE881253959053125117D351551213D1 PUSH1 0x62 SHL PUSH1 0x60 DUP3 ADD MSTORE PUSH1 0x80 ADD SWAP1 JUMP JUMPDEST PUSH1 0x20 DUP1 DUP3 MSTORE PUSH1 0x45 SWAP1 DUP3 ADD MSTORE PUSH32 0x455243313135355061636B656442616C616E6365235F76696577557064617465 PUSH1 0x40 DUP3 ADD MSTORE PUSH32 0x42696E56616C75653A20494E56414C49445F42494E5F57524954455F4F504552 PUSH1 0x60 DUP3 ADD MSTORE PUSH5 0x20AA24A7A7 PUSH1 0xD9 SHL PUSH1 0x80 DUP3 ADD MSTORE PUSH1 0xA0 ADD SWAP1 JUMP JUMPDEST PUSH1 0x20 DUP1 DUP3 MSTORE PUSH1 0x32 SWAP1 DUP3 ADD MSTORE PUSH32 0x455243313135355061636B656442616C616E6365235F76696577557064617465 PUSH1 0x40 DUP3 ADD MSTORE PUSH18 0x42696E56616C75653A204F564552464C4F57 PUSH1 0x70 SHL PUSH1 0x60 DUP3 ADD MSTORE PUSH1 0x80 ADD SWAP1 JUMP JUMPDEST SWAP1 DUP2 MSTORE PUSH1 0x20 ADD SWAP1 JUMP JUMPDEST SWAP2 DUP3 MSTORE PUSH1 0x20 DUP3 ADD MSTORE PUSH1 0x40 ADD SWAP1 JUMP JUMPDEST PUSH1 0x40 MLOAD DUP2 DUP2 ADD PUSH1 0x1 PUSH1 0x1 PUSH1 0x40 SHL SUB DUP2 GT DUP3 DUP3 LT OR ISZERO PUSH2 0x3204 JUMPI INVALID JUMPDEST PUSH1 0x40 MSTORE SWAP2 SWAP1 POP JUMP JUMPDEST PUSH1 0x0 PUSH1 0x1 PUSH1 0x1 PUSH1 0x40 SHL SUB DUP3 GT ISZERO PUSH2 0x321F JUMPI INVALID JUMPDEST POP PUSH1 0x20 SWAP1 DUP2 MUL ADD SWAP1 JUMP JUMPDEST PUSH1 0x0 PUSH1 0x1 PUSH1 0x1 PUSH1 0x40 SHL SUB DUP3 GT ISZERO PUSH2 0x323C JUMPI INVALID JUMPDEST POP PUSH1 0x1F ADD PUSH1 0x1F NOT AND PUSH1 0x20 ADD SWAP1 JUMP JUMPDEST PUSH1 0x0 JUMPDEST DUP4 DUP2 LT ISZERO PUSH2 0x3265 JUMPI DUP2 DUP2 ADD MLOAD DUP4 DUP3 ADD MSTORE PUSH1 0x20 ADD PUSH2 0x324D JUMP JUMPDEST DUP4 DUP2 GT ISZERO PUSH2 0x3274 JUMPI PUSH1 0x0 DUP5 DUP5 ADD MSTORE JUMPDEST POP POP POP POP JUMP JUMPDEST PUSH1 0x1 PUSH1 0x1 PUSH1 0xA0 SHL SUB DUP2 AND DUP2 EQ PUSH2 0x328F JUMPI PUSH1 0x0 DUP1 REVERT JUMPDEST POP JUMP JUMPDEST DUP1 ISZERO ISZERO DUP2 EQ PUSH2 0x328F JUMPI PUSH1 0x0 DUP1 REVERT JUMPDEST PUSH1 0x1 PUSH1 0x1 PUSH1 0xE0 SHL SUB NOT DUP2 AND DUP2 EQ PUSH2 0x328F JUMPI PUSH1 0x0 DUP1 REVERT INVALID MSTORE8 PUSH10 0x676E617475726556616C PUSH10 0x6461746F722369735661 PUSH13 0x69645369676E6174A264697066 PUSH20 0x582212209B91A59671FB1CD4C0EB34B26A0642B5 CREATE DUP12 SWAP6 0xEC 0xE8 DUP15 LOG3 0xC2 0xD 0xA5 MSIZE PUSH12 0xFB93412964736F6C63430007 DIV STOP CALLER "
		},
		"gasEstimates": {
			"creation": {
				"codeDepositCost": "2613600",
				"executionCost": "infinite",
				"totalCost": "infinite"
			},
			"external": {
				"": "372",
				"balanceOf(address,uint256)": "1541",
				"balanceOfBatch(address[],uint256[])": "infinite",
				"getIDBinIndex(uint256)": "435",
				"getNonce(address)": "1287",
				"getValueInBin(uint256,uint256)": "380",
				"isApprovedForAll(address,address)": "infinite",
				"isValidSignature(address,bytes32,bytes,bytes)": "infinite",
				"metaSafeBatchTransferFrom(address,address,uint256[],uint256[],bool,bytes)": "infinite",
				"metaSafeTransferFrom(address,address,uint256,uint256,bool,bytes)": "infinite",
				"metaSetApprovalForAll(address,address,bool,bool,bytes)": "infinite",
				"name()": "infinite",
				"owner()": "1159",
				"safeBatchTransferFrom(address,address,uint256[],uint256[],bytes)": "infinite",
				"safeTransferFrom(address,address,uint256,uint256,bytes)": "infinite",
				"setApprovalForAll(address,bool)": "infinite",
				"supportsInterface(bytes4)": "infinite",
				"symbol()": "infinite",
				"transferOwnership(address)": "24460",
				"uri(uint256)": "infinite"
			}
		},
		"methodIdentifiers": {
			"balanceOf(address,uint256)": "00fdd58e",
			"balanceOfBatch(address[],uint256[])": "4e1273f4",
			"getIDBinIndex(uint256)": "db90e83c",
			"getNonce(address)": "2d0335ab",
			"getValueInBin(uint256,uint256)": "eaec5f81",
			"isApprovedForAll(address,address)": "e985e9c5",
			"isValidSignature(address,bytes32,bytes,bytes)": "fa4e12d7",
			"metaSafeBatchTransferFrom(address,address,uint256[],uint256[],bool,bytes)": "a3d4926e",
			"metaSafeTransferFrom(address,address,uint256,uint256,bool,bytes)": "ce0b514b",
			"metaSetApprovalForAll(address,address,bool,bool,bytes)": "f5d4c820",
			"name()": "06fdde03",
			"owner()": "8da5cb5b",
			"safeBatchTransferFrom(address,address,uint256[],uint256[],bytes)": "2eb2c2d6",
			"safeTransferFrom(address,address,uint256,uint256,bytes)": "f242432a",
			"setApprovalForAll(address,bool)": "a22cb465",
			"supportsInterface(bytes4)": "01ffc9a7",
			"symbol()": "95d89b41",
			"transferOwnership(address)": "f2fde38b",
			"uri(uint256)": "0e89341c"
		}
	},
	"abi": [
		{
			"inputs": [
				{
					"internalType": "string",
					"name": "name_",
					"type": "string"
				},
				{
					"internalType": "string",
					"name": "symbol_",
					"type": "string"
				},
				{
					"internalType": "string",
					"name": "baseMetadataURI_",
					"type": "string"
				}
			],
			"stateMutability": "nonpayable",
			"type": "constructor"
		},
		{
			"anonymous": false,
			"inputs": [
				{
					"indexed": true,
					"internalType": "address",
					"name": "_owner",
					"type": "address"
				},
				{
					"indexed": true,
					"internalType": "address",
					"name": "_operator",
					"type": "address"
				},
				{
					"indexed": false,
					"internalType": "bool",
					"name": "_approved",
					"type": "bool"
				}
			],
			"name": "ApprovalForAll",
			"type": "event"
		},
		{
			"anonymous": false,
			"inputs": [
				{
					"indexed": true,
					"internalType": "address",
					"name": "signer",
					"type": "address"
				},
				{
					"indexed": false,
					"internalType": "uint256",
					"name": "newNonce",
					"type": "uint256"
				}
			],
			"name": "NonceChange",
			"type": "event"
		},
		{
			"anonymous": false,
			"inputs": [
				{
					"indexed": true,
					"internalType": "address",
					"name": "previousOwner",
					"type": "address"
				},
				{
					"indexed": true,
					"internalType": "address",
					"name": "newOwner",
					"type": "address"
				}
			],
			"name": "OwnershipTransferred",
			"type": "event"
		},
		{
			"anonymous": false,
			"inputs": [
				{
					"indexed": true,
					"internalType": "address",
					"name": "_operator",
					"type": "address"
				},
				{
					"indexed": true,
					"internalType": "address",
					"name": "_from",
					"type": "address"
				},
				{
					"indexed": true,
					"internalType": "address",
					"name": "_to",
					"type": "address"
				},
				{
					"indexed": false,
					"internalType": "uint256[]",
					"name": "_ids",
					"type": "uint256[]"
				},
				{
					"indexed": false,
					"internalType": "uint256[]",
					"name": "_amounts",
					"type": "uint256[]"
				}
			],
			"name": "TransferBatch",
			"type": "event"
		},
		{
			"anonymous": false,
			"inputs": [
				{
					"indexed": true,
					"internalType": "address",
					"name": "_operator",
					"type": "address"
				},
				{
					"indexed": true,
					"internalType": "address",
					"name": "_from",
					"type": "address"
				},
				{
					"indexed": true,
					"internalType": "address",
					"name": "_to",
					"type": "address"
				},
				{
					"indexed": false,
					"internalType": "uint256",
					"name": "_id",
					"type": "uint256"
				},
				{
					"indexed": false,
					"internalType": "uint256",
					"name": "_amount",
					"type": "uint256"
				}
			],
			"name": "TransferSingle",
			"type": "event"
		},
		{
			"anonymous": false,
			"inputs": [
				{
					"indexed": false,
					"internalType": "string",
					"name": "_uri",
					"type": "string"
				},
				{
					"indexed": true,
					"internalType": "uint256",
					"name": "_id",
					"type": "uint256"
				}
			],
			"name": "URI",
			"type": "event"
		},
		{
			"stateMutability": "nonpayable",
			"type": "fallback"
		},
		{
			"inputs": [
				{
					"internalType": "address",
					"name": "_owner",
					"type": "address"
				},
				{
					"internalType": "uint256",
					"name": "_id",
					"type": "uint256"
				}
			],
			"name": "balanceOf",
			"outputs": [
				{
					"internalType": "uint256",
					"name": "",
					"type": "uint256"
				}
			],
			"stateMutability": "view",
			"type": "function"
		},
		{
			"inputs": [
				{
					"internalType": "address[]",
					"name": "_owners",
					"type": "address[]"
				},
				{
					"internalType": "uint256[]",
					"name": "_ids",
					"type": "uint256[]"
				}
			],
			"name": "balanceOfBatch",
			"outputs": [
				{
					"internalType": "uint256[]",
					"name": "",
					"type": "uint256[]"
				}
			],
			"stateMutability": "view",
			"type": "function"
		},
		{
			"inputs": [
				{
					"internalType": "uint256",
					"name": "_id",
					"type": "uint256"
				}
			],
			"name": "getIDBinIndex",
			"outputs": [
				{
					"internalType": "uint256",
					"name": "bin",
					"type": "uint256"
				},
				{
					"internalType": "uint256",
					"name": "index",
					"type": "uint256"
				}
			],
			"stateMutability": "pure",
			"type": "function"
		},
		{
			"inputs": [
				{
					"internalType": "address",
					"name": "_signer",
					"type": "address"
				}
			],
			"name": "getNonce",
			"outputs": [
				{
					"internalType": "uint256",
					"name": "nonce",
					"type": "uint256"
				}
			],
			"stateMutability": "view",
			"type": "function"
		},
		{
			"inputs": [
				{
					"internalType": "uint256",
					"name": "_binValues",
					"type": "uint256"
				},
				{
					"internalType": "uint256",
					"name": "_index",
					"type": "uint256"
				}
			],
			"name": "getValueInBin",
			"outputs": [
				{
					"internalType": "uint256",
					"name": "",
					"type": "uint256"
				}
			],
			"stateMutability": "pure",
			"type": "function"
		},
		{
			"inputs": [
				{
					"internalType": "address",
					"name": "_owner",
					"type": "address"
				},
				{
					"internalType": "address",
					"name": "_operator",
					"type": "address"
				}
			],
			"name": "isApprovedForAll",
			"outputs": [
				{
					"internalType": "bool",
					"name": "isOperator",
					"type": "bool"
				}
			],
			"stateMutability": "view",
			"type": "function"
		},
		{
			"inputs": [
				{
					"internalType": "address",
					"name": "_signerAddress",
					"type": "address"
				},
				{
					"internalType": "bytes32",
					"name": "_hash",
					"type": "bytes32"
				},
				{
					"internalType": "bytes",
					"name": "_data",
					"type": "bytes"
				},
				{
					"internalType": "bytes",
					"name": "_sig",
					"type": "bytes"
				}
			],
			"name": "isValidSignature",
			"outputs": [
				{
					"internalType": "bool",
					"name": "isValid",
					"type": "bool"
				}
			],
			"stateMutability": "view",
			"type": "function"
		},
		{
			"inputs": [
				{
					"internalType": "address",
					"name": "_from",
					"type": "address"
				},
				{
					"internalType": "address",
					"name": "_to",
					"type": "address"
				},
				{
					"internalType": "uint256[]",
					"name": "_ids",
					"type": "uint256[]"
				},
				{
					"internalType": "uint256[]",
					"name": "_amounts",
					"type": "uint256[]"
				},
				{
					"internalType": "bool",
					"name": "_isGasFee",
					"type": "bool"
				},
				{
					"internalType": "bytes",
					"name": "_data",
					"type": "bytes"
				}
			],
			"name": "metaSafeBatchTransferFrom",
			"outputs": [],
			"stateMutability": "nonpayable",
			"type": "function"
		},
		{
			"inputs": [
				{
					"internalType": "address",
					"name": "_from",
					"type": "address"
				},
				{
					"internalType": "address",
					"name": "_to",
					"type": "address"
				},
				{
					"internalType": "uint256",
					"name": "_id",
					"type": "uint256"
				},
				{
					"internalType": "uint256",
					"name": "_amount",
					"type": "uint256"
				},
				{
					"internalType": "bool",
					"name": "_isGasFee",
					"type": "bool"
				},
				{
					"internalType": "bytes",
					"name": "_data",
					"type": "bytes"
				}
			],
			"name": "metaSafeTransferFrom",
			"outputs": [],
			"stateMutability": "nonpayable",
			"type": "function"
		},
		{
			"inputs": [
				{
					"internalType": "address",
					"name": "_owner",
					"type": "address"
				},
				{
					"internalType": "address",
					"name": "_operator",
					"type": "address"
				},
				{
					"internalType": "bool",
					"name": "_approved",
					"type": "bool"
				},
				{
					"internalType": "bool",
					"name": "_isGasFee",
					"type": "bool"
				},
				{
					"internalType": "bytes",
					"name": "_data",
					"type": "bytes"
				}
			],
			"name": "metaSetApprovalForAll",
			"outputs": [],
			"stateMutability": "nonpayable",
			"type": "function"
		},
		{
			"inputs": [],
			"name": "name",
			"outputs": [
				{
					"internalType": "string",
					"name": "",
					"type": "string"
				}
			],
			"stateMutability": "view",
			"type": "function"
		},
		{
			"inputs": [],
			"name": "owner",
			"outputs": [
				{
					"internalType": "address",
					"name": "",
					"type": "address"
				}
			],
			"stateMutability": "view",
			"type": "function"
		},
		{
			"inputs": [
				{
					"internalType": "address",
					"name": "_from",
					"type": "address"
				},
				{
					"internalType": "address",
					"name": "_to",
					"type": "address"
				},
				{
					"internalType": "uint256[]",
					"name": "_ids",
					"type": "uint256[]"
				},
				{
					"internalType": "uint256[]",
					"name": "_amounts",
					"type": "uint256[]"
				},
				{
					"internalType": "bytes",
					"name": "_data",
					"type": "bytes"
				}
			],
			"name": "safeBatchTransferFrom",
			"outputs": [],
			"stateMutability": "nonpayable",
			"type": "function"
		},
		{
			"inputs": [
				{
					"internalType": "address",
					"name": "_from",
					"type": "address"
				},
				{
					"internalType": "address",
					"name": "_to",
					"type": "address"
				},
				{
					"internalType": "uint256",
					"name": "_id",
					"type": "uint256"
				},
				{
					"internalType": "uint256",
					"name": "_amount",
					"type": "uint256"
				},
				{
					"internalType": "bytes",
					"name": "_data",
					"type": "bytes"
				}
			],
			"name": "safeTransferFrom",
			"outputs": [],
			"stateMutability": "nonpayable",
			"type": "function"
		},
		{
			"inputs": [
				{
					"internalType": "address",
					"name": "_operator",
					"type": "address"
				},
				{
					"internalType": "bool",
					"name": "_approved",
					"type": "bool"
				}
			],
			"name": "setApprovalForAll",
			"outputs": [],
			"stateMutability": "nonpayable",
			"type": "function"
		},
		{
			"inputs": [
				{
					"internalType": "bytes4",
					"name": "_interfaceID",
					"type": "bytes4"
				}
			],
			"name": "supportsInterface",
			"outputs": [
				{
					"internalType": "bool",
					"name": "",
					"type": "bool"
				}
			],
			"stateMutability": "pure",
			"type": "function"
		},
		{
			"inputs": [],
			"name": "symbol",
			"outputs": [
				{
					"internalType": "string",
					"name": "",
					"type": "string"
				}
			],
			"stateMutability": "view",
			"type": "function"
		},
		{
			"inputs": [
				{
					"internalType": "address",
					"name": "_newOwner",
					"type": "address"
				}
			],
			"name": "transferOwnership",
			"outputs": [],
			"stateMutability": "nonpayable",
			"type": "function"
		},
		{
			"inputs": [
				{
					"internalType": "uint256",
					"name": "_id",
					"type": "uint256"
				}
			],
			"name": "uri",
			"outputs": [
				{
					"internalType": "string",
					"name": "",
					"type": "string"
				}
			],
			"stateMutability": "view",
			"type": "function"
		}
	]
}